{
  "contractName": "Businesses",
  "abi": [
    {
      "inputs": [
        {
          "internalType": "address",
          "name": "_nftContractAddress",
          "type": "address"
        },
        {
          "internalType": "address",
          "name": "_collectionsContractAddress",
          "type": "address"
        }
      ],
      "stateMutability": "nonpayable",
      "type": "constructor"
    },
    {
      "anonymous": false,
      "inputs": [
        {
          "indexed": false,
          "internalType": "uint256",
          "name": "businessId",
          "type": "uint256"
        },
        {
          "indexed": false,
          "internalType": "string",
          "name": "businessName",
          "type": "string"
        },
        {
          "indexed": false,
          "internalType": "uint256",
          "name": "feeePercent",
          "type": "uint256"
        },
        {
          "indexed": false,
          "internalType": "address",
          "name": "adminAddress",
          "type": "address"
        }
      ],
      "name": "businessCreated",
      "type": "event"
    },
    {
      "anonymous": false,
      "inputs": [
        {
          "indexed": false,
          "internalType": "uint256",
          "name": "bId",
          "type": "uint256"
        },
        {
          "indexed": false,
          "internalType": "uint256",
          "name": "newFeePercent",
          "type": "uint256"
        },
        {
          "indexed": false,
          "internalType": "address",
          "name": "adminAddress",
          "type": "address"
        }
      ],
      "name": "businessFeeUpdated",
      "type": "event"
    },
    {
      "anonymous": false,
      "inputs": [
        {
          "indexed": false,
          "internalType": "uint256",
          "name": "businessId",
          "type": "uint256"
        },
        {
          "indexed": false,
          "internalType": "address",
          "name": "adminAddress",
          "type": "address"
        }
      ],
      "name": "businessRemoved",
      "type": "event"
    },
    {
      "anonymous": false,
      "inputs": [
        {
          "indexed": false,
          "internalType": "uint256",
          "name": "bId",
          "type": "uint256"
        },
        {
          "indexed": false,
          "internalType": "uint256",
          "name": "collectionId",
          "type": "uint256"
        },
        {
          "indexed": false,
          "internalType": "address",
          "name": "adminAddress",
          "type": "address"
        }
      ],
      "name": "collectionAddedToBusiness",
      "type": "event"
    },
    {
      "anonymous": false,
      "inputs": [
        {
          "indexed": false,
          "internalType": "uint256",
          "name": "bId",
          "type": "uint256"
        },
        {
          "indexed": false,
          "internalType": "uint256",
          "name": "collectionId",
          "type": "uint256"
        },
        {
          "indexed": false,
          "internalType": "address",
          "name": "adminAddress",
          "type": "address"
        }
      ],
      "name": "collectionRemovedFromBusiness",
      "type": "event"
    },
    {
      "anonymous": false,
      "inputs": [
        {
          "indexed": false,
          "internalType": "uint256",
          "name": "bId",
          "type": "uint256"
        },
        {
          "indexed": false,
          "internalType": "address",
          "name": "employeeAddress",
          "type": "address"
        },
        {
          "indexed": false,
          "internalType": "address",
          "name": "adminAddress",
          "type": "address"
        }
      ],
      "name": "employeeAddedToBusiness",
      "type": "event"
    },
    {
      "anonymous": false,
      "inputs": [
        {
          "indexed": false,
          "internalType": "uint256",
          "name": "bId",
          "type": "uint256"
        },
        {
          "indexed": false,
          "internalType": "address",
          "name": "employeeAddress",
          "type": "address"
        },
        {
          "indexed": false,
          "internalType": "address",
          "name": "adminAddress",
          "type": "address"
        }
      ],
      "name": "employeeRemovedFromBusiness",
      "type": "event"
    },
    {
      "anonymous": false,
      "inputs": [
        {
          "indexed": false,
          "internalType": "uint256",
          "name": "bId",
          "type": "uint256"
        },
        {
          "indexed": false,
          "internalType": "uint256",
          "name": "nftId",
          "type": "uint256"
        },
        {
          "indexed": false,
          "internalType": "address",
          "name": "adminAddress",
          "type": "address"
        }
      ],
      "name": "nftAddedToBusiness",
      "type": "event"
    },
    {
      "anonymous": false,
      "inputs": [
        {
          "indexed": false,
          "internalType": "uint256",
          "name": "bId",
          "type": "uint256"
        },
        {
          "indexed": false,
          "internalType": "uint256",
          "name": "nftId",
          "type": "uint256"
        },
        {
          "indexed": false,
          "internalType": "address",
          "name": "adminAddress",
          "type": "address"
        }
      ],
      "name": "nftRemovedFromBusiness",
      "type": "event"
    },
    {
      "inputs": [],
      "name": "_businessIdGenerator",
      "outputs": [
        {
          "internalType": "uint256",
          "name": "_value",
          "type": "uint256"
        }
      ],
      "stateMutability": "view",
      "type": "function",
      "constant": true
    },
    {
      "inputs": [],
      "name": "businessCount",
      "outputs": [
        {
          "internalType": "uint256",
          "name": "",
          "type": "uint256"
        }
      ],
      "stateMutability": "view",
      "type": "function",
      "constant": true
    },
    {
      "inputs": [
        {
          "internalType": "uint256",
          "name": "",
          "type": "uint256"
        }
      ],
      "name": "businessIdToIndex",
      "outputs": [
        {
          "internalType": "uint256",
          "name": "",
          "type": "uint256"
        }
      ],
      "stateMutability": "view",
      "type": "function",
      "constant": true
    },
    {
      "inputs": [
        {
          "internalType": "uint256",
          "name": "",
          "type": "uint256"
        }
      ],
      "name": "businesses",
      "outputs": [
        {
          "internalType": "uint256",
          "name": "businessId",
          "type": "uint256"
        },
        {
          "internalType": "string",
          "name": "businessName",
          "type": "string"
        },
        {
          "internalType": "string",
          "name": "businessLogoUri",
          "type": "string"
        },
        {
          "internalType": "uint256",
          "name": "feePercent",
          "type": "uint256"
        },
        {
          "internalType": "address",
          "name": "adminAddress",
          "type": "address"
        },
        {
          "internalType": "uint256",
          "name": "collectionCount",
          "type": "uint256"
        },
        {
          "internalType": "uint256",
          "name": "singleNftCount",
          "type": "uint256"
        }
      ],
      "stateMutability": "view",
      "type": "function",
      "constant": true
    },
    {
      "inputs": [
        {
          "internalType": "uint256",
          "name": "",
          "type": "uint256"
        }
      ],
      "name": "collectionIdToBusinessId",
      "outputs": [
        {
          "internalType": "uint256",
          "name": "",
          "type": "uint256"
        }
      ],
      "stateMutability": "view",
      "type": "function",
      "constant": true
    },
    {
      "inputs": [
        {
          "internalType": "uint256",
          "name": "",
          "type": "uint256"
        }
      ],
      "name": "collectionIdToIndex",
      "outputs": [
        {
          "internalType": "uint256",
          "name": "",
          "type": "uint256"
        }
      ],
      "stateMutability": "view",
      "type": "function",
      "constant": true
    },
    {
      "inputs": [
        {
          "internalType": "address",
          "name": "",
          "type": "address"
        }
      ],
      "name": "employeeAddressToBusinessId",
      "outputs": [
        {
          "internalType": "uint256",
          "name": "",
          "type": "uint256"
        }
      ],
      "stateMutability": "view",
      "type": "function",
      "constant": true
    },
    {
      "inputs": [
        {
          "internalType": "address",
          "name": "",
          "type": "address"
        }
      ],
      "name": "employeeAddressToIndex",
      "outputs": [
        {
          "internalType": "uint256",
          "name": "",
          "type": "uint256"
        }
      ],
      "stateMutability": "view",
      "type": "function",
      "constant": true
    },
    {
      "inputs": [
        {
          "internalType": "uint256",
          "name": "",
          "type": "uint256"
        }
      ],
      "name": "nftIdToBusinessId",
      "outputs": [
        {
          "internalType": "uint256",
          "name": "",
          "type": "uint256"
        }
      ],
      "stateMutability": "view",
      "type": "function",
      "constant": true
    },
    {
      "inputs": [
        {
          "internalType": "uint256",
          "name": "",
          "type": "uint256"
        }
      ],
      "name": "nftIdToIndex",
      "outputs": [
        {
          "internalType": "uint256",
          "name": "",
          "type": "uint256"
        }
      ],
      "stateMutability": "view",
      "type": "function",
      "constant": true
    },
    {
      "inputs": [
        {
          "internalType": "address",
          "name": "_marketplaceContractAddress",
          "type": "address"
        }
      ],
      "name": "setMarketplaceAddress",
      "outputs": [],
      "stateMutability": "nonpayable",
      "type": "function"
    },
    {
      "inputs": [
        {
          "internalType": "string",
          "name": "_bName",
          "type": "string"
        },
        {
          "internalType": "string",
          "name": "_bLogoUri",
          "type": "string"
        },
        {
          "internalType": "uint256",
          "name": "_feePercent",
          "type": "uint256"
        },
        {
          "internalType": "address",
          "name": "_adminAddress",
          "type": "address"
        },
        {
          "internalType": "address[]",
          "name": "_employees",
          "type": "address[]"
        }
      ],
      "name": "addBusiness",
      "outputs": [
        {
          "internalType": "uint256",
          "name": "",
          "type": "uint256"
        }
      ],
      "stateMutability": "nonpayable",
      "type": "function"
    },
    {
      "inputs": [
        {
          "internalType": "uint256",
          "name": "_businessId",
          "type": "uint256"
        }
      ],
      "name": "removeBusiness",
      "outputs": [],
      "stateMutability": "nonpayable",
      "type": "function"
    },
    {
      "inputs": [
        {
          "internalType": "uint256",
          "name": "_businessId",
          "type": "uint256"
        },
        {
          "internalType": "uint256",
          "name": "_collectionId",
          "type": "uint256"
        }
      ],
      "name": "addCollectionToBusiness",
      "outputs": [],
      "stateMutability": "nonpayable",
      "type": "function"
    },
    {
      "inputs": [
        {
          "internalType": "uint256",
          "name": "_businessId",
          "type": "uint256"
        },
        {
          "internalType": "uint256[]",
          "name": "_collectionIds",
          "type": "uint256[]"
        }
      ],
      "name": "addMultipleCollectionsToBusiness",
      "outputs": [],
      "stateMutability": "nonpayable",
      "type": "function"
    },
    {
      "inputs": [
        {
          "internalType": "uint256",
          "name": "_businessId",
          "type": "uint256"
        },
        {
          "internalType": "string",
          "name": "_collectionName",
          "type": "string"
        },
        {
          "internalType": "string",
          "name": "_collectionCoverImageUri",
          "type": "string"
        },
        {
          "internalType": "string",
          "name": "_collectionDescription",
          "type": "string"
        },
        {
          "internalType": "string",
          "name": "_collectionOwnerName",
          "type": "string"
        },
        {
          "internalType": "uint256[]",
          "name": "_tokenIds",
          "type": "uint256[]"
        },
        {
          "internalType": "string",
          "name": "_category",
          "type": "string"
        }
      ],
      "name": "createCollectionInBusiness",
      "outputs": [],
      "stateMutability": "nonpayable",
      "type": "function"
    },
    {
      "inputs": [
        {
          "internalType": "uint256",
          "name": "_businessId",
          "type": "uint256"
        },
        {
          "internalType": "uint256",
          "name": "_nftId",
          "type": "uint256"
        }
      ],
      "name": "addNftToBusiness",
      "outputs": [],
      "stateMutability": "nonpayable",
      "type": "function"
    },
    {
      "inputs": [
        {
          "internalType": "uint256",
          "name": "_businessId",
          "type": "uint256"
        },
        {
          "internalType": "uint256[]",
          "name": "_nftIds",
          "type": "uint256[]"
        }
      ],
      "name": "addMultipleNftsToBusiness",
      "outputs": [],
      "stateMutability": "nonpayable",
      "type": "function"
    },
    {
      "inputs": [
        {
          "internalType": "uint256",
          "name": "_businessId",
          "type": "uint256"
        },
        {
          "internalType": "string",
          "name": "_tokenUri",
          "type": "string"
        },
        {
          "internalType": "uint256",
          "name": "_price",
          "type": "uint256"
        },
        {
          "internalType": "string",
          "name": "_category",
          "type": "string"
        }
      ],
      "name": "createNftInBusiness",
      "outputs": [],
      "stateMutability": "nonpayable",
      "type": "function"
    },
    {
      "inputs": [
        {
          "internalType": "uint256",
          "name": "_businessId",
          "type": "uint256"
        },
        {
          "internalType": "uint256",
          "name": "_collectionId",
          "type": "uint256"
        }
      ],
      "name": "removeCollectionFromBusiness",
      "outputs": [],
      "stateMutability": "nonpayable",
      "type": "function"
    },
    {
      "inputs": [
        {
          "internalType": "uint256",
          "name": "_businessId",
          "type": "uint256"
        },
        {
          "internalType": "uint256",
          "name": "_nftId",
          "type": "uint256"
        }
      ],
      "name": "removeNftFromBusiness",
      "outputs": [],
      "stateMutability": "nonpayable",
      "type": "function"
    },
    {
      "inputs": [
        {
          "internalType": "uint256",
          "name": "_businessId",
          "type": "uint256"
        },
        {
          "internalType": "uint256",
          "name": "_newFee",
          "type": "uint256"
        }
      ],
      "name": "updateFeePercent",
      "outputs": [],
      "stateMutability": "nonpayable",
      "type": "function"
    },
    {
      "inputs": [
        {
          "internalType": "uint256",
          "name": "_businessId",
          "type": "uint256"
        },
        {
          "internalType": "address",
          "name": "_newEmployee",
          "type": "address"
        }
      ],
      "name": "addEmployee",
      "outputs": [],
      "stateMutability": "nonpayable",
      "type": "function"
    },
    {
      "inputs": [
        {
          "internalType": "uint256",
          "name": "_businessId",
          "type": "uint256"
        },
        {
          "internalType": "address",
          "name": "_employeeAddress",
          "type": "address"
        }
      ],
      "name": "removeEmployee",
      "outputs": [],
      "stateMutability": "nonpayable",
      "type": "function"
    },
    {
      "inputs": [
        {
          "internalType": "uint256",
          "name": "_businessId",
          "type": "uint256"
        }
      ],
      "name": "getCollectionsInBusiness",
      "outputs": [
        {
          "internalType": "uint256[]",
          "name": "",
          "type": "uint256[]"
        }
      ],
      "stateMutability": "view",
      "type": "function",
      "constant": true
    },
    {
      "inputs": [
        {
          "internalType": "uint256",
          "name": "_businessId",
          "type": "uint256"
        }
      ],
      "name": "getNftsInBusiness",
      "outputs": [
        {
          "internalType": "uint256[]",
          "name": "",
          "type": "uint256[]"
        }
      ],
      "stateMutability": "view",
      "type": "function",
      "constant": true
    },
    {
      "inputs": [
        {
          "internalType": "uint256",
          "name": "_businessId",
          "type": "uint256"
        }
      ],
      "name": "getEmployeesinBusiness",
      "outputs": [
        {
          "internalType": "address[]",
          "name": "",
          "type": "address[]"
        }
      ],
      "stateMutability": "view",
      "type": "function",
      "constant": true
    },
    {
      "inputs": [
        {
          "internalType": "uint256",
          "name": "_bId",
          "type": "uint256"
        },
        {
          "internalType": "uint256",
          "name": "_id",
          "type": "uint256"
        },
        {
          "internalType": "bool",
          "name": "isNft",
          "type": "bool"
        }
      ],
      "name": "collectionOrNftOwnedByOwnerOrEmployee",
      "outputs": [
        {
          "internalType": "bool",
          "name": "",
          "type": "bool"
        }
      ],
      "stateMutability": "view",
      "type": "function",
      "constant": true
    }
  ],
  "bytecode": "0x60806040523480156200001157600080fd5b5060405162006115380380620061158339818101604052810190620000379190620000e0565b600160008190555081600260006101000a81548173ffffffffffffffffffffffffffffffffffffffff021916908373ffffffffffffffffffffffffffffffffffffffff16021790555080600360006101000a81548173ffffffffffffffffffffffffffffffffffffffff021916908373ffffffffffffffffffffffffffffffffffffffff16021790555050506200017a565b600081519050620000da8162000160565b92915050565b60008060408385031215620000fa57620000f96200015b565b5b60006200010a85828601620000c9565b92505060206200011d85828601620000c9565b9150509250929050565b600062000134826200013b565b9050919050565b600073ffffffffffffffffffffffffffffffffffffffff82169050919050565b600080fd5b6200016b8162000127565b81146200017757600080fd5b50565b615f8b806200018a6000396000f3fe608060405234801561001057600080fd5b50600436106101c45760003560e01c80637311dda7116100f9578063c696446e11610097578063da2aff2a11610071578063da2aff2a1461054d578063dc00148c1461056b578063ed7158c81461059b578063f9fc3248146105cb576101c4565b8063c696446e146104f9578063ce01cc6514610515578063d2b1e7bb14610531576101c4565b80639f4bca89116100d35780639f4bca891461046f578063a8bc63de1461048b578063b47cc556146104a7578063b984c6ec146104c3576101c4565b80637311dda714610405578063830f81561461042157806384ea524d1461043f576101c4565b8063397914c61161016657806341d3a5031161014057806341d3a5031461036d578063633c03661461038957806364608da2146103b95780636474263c146103d5576101c4565b8063397914c6146103055780633f262d77146103215780633f3503b814610351576101c4565b806310e713e6116101a257806310e713e6146102595780631df971251461028957806330c48e23146102a5578063380531c7146102d5576101c4565b806301b166e2146101c95780630788935e146101f957806308f8080914610229575b600080fd5b6101e360048036038101906101de91906147eb565b6105e7565b6040516101f09190615354565b60405180910390f35b610213600480360381019061020e91906147eb565b6105ff565b6040516102209190614fab565b60405180910390f35b610243600480360381019061023e91906147eb565b6106db565b6040516102509190615354565b60405180910390f35b610273600480360381019061026e91906147eb565b6106f3565b6040516102809190615354565b60405180910390f35b6102a3600480360381019061029e9190614aca565b61070b565b005b6102bf60048036038101906102ba91906146c2565b610b00565b6040516102cc9190615354565b60405180910390f35b6102ef60048036038101906102ea91906147eb565b610b18565b6040516102fc9190614fab565b60405180910390f35b61031f600480360381019061031a9190614845565b610bf4565b005b61033b600480360381019061033691906147eb565b611200565b6040516103489190615354565b60405180910390f35b61036b60048036038101906103669190614885565b611218565b005b61038760048036038101906103829190614845565b611260565b005b6103a3600480360381019061039e91906147eb565b611574565b6040516103b09190615354565b60405180910390f35b6103d360048036038101906103ce9190614aca565b61158c565b005b6103ef60048036038101906103ea9190614b0a565b611bb0565b6040516103fc9190614fcd565b60405180910390f35b61041f600480360381019061041a9190614aca565b611ec0565b005b6104296124ea565b6040516104369190615354565b60405180910390f35b610459600480360381019061045491906147eb565b6124f6565b6040516104669190614f89565b60405180910390f35b610489600480360381019061048491906147eb565b612608565b005b6104a560048036038101906104a09190614aca565b6130d8565b005b6104c160048036038101906104bc91906146c2565b613252565b005b6104dd60048036038101906104d891906147eb565b61350b565b6040516104f097969594939291906153cf565b60405180910390f35b610513600480360381019061050e9190614aca565b61368d565b005b61052f600480360381019061052a9190614885565b613933565b005b61054b600480360381019061054691906148e1565b61397b565b005b610555613b6e565b6040516105629190615354565b60405180910390f35b610585600480360381019061058091906146c2565b613b74565b6040516105929190615354565b60405180910390f35b6105b560048036038101906105b0919061471c565b613b8c565b6040516105c29190615354565b60405180910390f35b6105e560048036038101906105e09190614a2b565b613f7f565b005b60096020528060005260406000206000915090505481565b606060006005541415610647576040517f08c379a000000000000000000000000000000000000000000000000000000000815260040161063e90615254565b60405180910390fd5b6000600660008481526020019081526020016000205490506004818154811061067357610672615882565b5b90600052602060002090600a02016008018054806020026020016040519081016040528092919081815260200182805480156106ce57602002820191906000526020600020905b8154815260200190600101908083116106ba575b5050505050915050919050565b600a6020528060005260406000206000915090505481565b60066020528060005260406000206000915090505481565b60026000541415610751576040517f08c379a0000000000000000000000000000000000000000000000000000000008152600401610748906152b4565b60405180910390fd5b60026000819055506000600660008481526020019081526020016000205490506000600260009054906101000a900473ffffffffffffffffffffffffffffffffffffffff1673ffffffffffffffffffffffffffffffffffffffff1663b9971b5d846040518263ffffffff1660e01b81526004016107ce9190615354565b60206040518083038186803b1580156107e657600080fd5b505afa1580156107fa573d6000803e3d6000fd5b505050506040513d601f19601f8201168201806040525081019061081e91906146ef565b90506004828154811061083457610833615882565b5b90600052602060002090600a020160040160009054906101000a900473ffffffffffffffffffffffffffffffffffffffff1673ffffffffffffffffffffffffffffffffffffffff163373ffffffffffffffffffffffffffffffffffffffff1614806108dd575083600c60008373ffffffffffffffffffffffffffffffffffffffff1673ffffffffffffffffffffffffffffffffffffffff16815260200190815260200160002054145b61091c576040517f08c379a000000000000000000000000000000000000000000000000000000000815260040161091390615194565b60405180910390fd5b61092884846001611bb0565b610967576040517f08c379a000000000000000000000000000000000000000000000000000000000815260040161095e90615294565b60405180910390fd5b6004828154811061097b5761097a615882565b5b90600052602060002090600a02016007018390806001815401808255809150506001900390600052602060002001600090919091909150556001600483815481106109c9576109c8615882565b5b90600052602060002090600a0201600601546109e5919061560b565b600483815481106109f9576109f8615882565b5b90600052602060002090600a020160060181905550836008600085815260200190815260200160002081905550600160048381548110610a3c57610a3b615882565b5b90600052602060002090600a020160070180549050610a5b9190615661565b60076000858152602001908152602001600020819055507f9c4a7b1eb9fa1944bfcce86c86e220c9bfc05f63640b10afc39ea6ba8015b85e848460048581548110610aa957610aa8615882565b5b90600052602060002090600a020160040160009054906101000a900473ffffffffffffffffffffffffffffffffffffffff16604051610aea93929190615498565b60405180910390a1505060016000819055505050565b600b6020528060005260406000206000915090505481565b606060006005541415610b60576040517f08c379a0000000000000000000000000000000000000000000000000000000008152600401610b5790615254565b60405180910390fd5b60006006600084815260200190815260200160002054905060048181548110610b8c57610b8b615882565b5b90600052602060002090600a0201600701805480602002602001604051908101604052809291908181526020018280548015610be757602002820191906000526020600020905b815481526020019060010190808311610bd3575b5050505050915050919050565b60006006600084815260200190815260200160002054905060048181548110610c2057610c1f615882565b5b90600052602060002090600a020160040160009054906101000a900473ffffffffffffffffffffffffffffffffffffffff1673ffffffffffffffffffffffffffffffffffffffff163373ffffffffffffffffffffffffffffffffffffffff1614610cbf576040517f08c379a0000000000000000000000000000000000000000000000000000000008152600401610cb690615214565b60405180910390fd5b600c60008373ffffffffffffffffffffffffffffffffffffffff1673ffffffffffffffffffffffffffffffffffffffff168152602001908152602001600020548314610d40576040517f08c379a0000000000000000000000000000000000000000000000000000000008152600401610d3790615234565b60405180910390fd5b6000600b60008473ffffffffffffffffffffffffffffffffffffffff1673ffffffffffffffffffffffffffffffffffffffff168152602001908152602001600020549050600060048381548110610d9a57610d99615882565b5b90600052602060002090600a02016009018281548110610dbd57610dbc615882565b5b9060005260206000200160009054906101000a900473ffffffffffffffffffffffffffffffffffffffff16905060048381548110610dfe57610dfd615882565b5b90600052602060002090600a0201600901600160048581548110610e2557610e24615882565b5b90600052602060002090600a020160090180549050610e449190615661565b81548110610e5557610e54615882565b5b9060005260206000200160009054906101000a900473ffffffffffffffffffffffffffffffffffffffff1660048481548110610e9457610e93615882565b5b90600052602060002090600a02016009018381548110610eb757610eb6615882565b5b9060005260206000200160006101000a81548173ffffffffffffffffffffffffffffffffffffffff021916908373ffffffffffffffffffffffffffffffffffffffff1602179055508060048481548110610f1457610f13615882565b5b90600052602060002090600a0201600901600160048681548110610f3b57610f3a615882565b5b90600052602060002090600a020160090180549050610f5a9190615661565b81548110610f6b57610f6a615882565b5b9060005260206000200160006101000a81548173ffffffffffffffffffffffffffffffffffffffff021916908373ffffffffffffffffffffffffffffffffffffffff16021790555060048381548110610fc757610fc6615882565b5b90600052602060002090600a0201600901805480610fe857610fe7615853565b5b6001900381819060005260206000200160006101000a81549073ffffffffffffffffffffffffffffffffffffffff02191690559055600b60008573ffffffffffffffffffffffffffffffffffffffff1673ffffffffffffffffffffffffffffffffffffffff16815260200190815260200160002060009055600c60008573ffffffffffffffffffffffffffffffffffffffff1673ffffffffffffffffffffffffffffffffffffffff168152602001908152602001600020600090556000600484815481106110b9576110b8615882565b5b90600052602060002090600a020160090180549050146111795781600b6000600486815481106110ec576110eb615882565b5b90600052602060002090600a0201600901858154811061110f5761110e615882565b5b9060005260206000200160009054906101000a900473ffffffffffffffffffffffffffffffffffffffff1673ffffffffffffffffffffffffffffffffffffffff1673ffffffffffffffffffffffffffffffffffffffff168152602001908152602001600020819055505b7f360cf11b3e0e6572cc90b07a249c2e1ae9afdd699ad9315874aedaa71be331a68585600486815481106111b0576111af615882565b5b90600052602060002090600a020160040160009054906101000a900473ffffffffffffffffffffffffffffffffffffffff166040516111f193929190615398565b60405180910390a15050505050565b60076020528060005260406000206000915090505481565b60005b815181101561125b576112488383838151811061123b5761123a615882565b5b602002602001015161070b565b8080611253906157ac565b91505061121b565b505050565b6000600660008481526020019081526020016000205490506004818154811061128c5761128b615882565b5b90600052602060002090600a020160040160009054906101000a900473ffffffffffffffffffffffffffffffffffffffff1673ffffffffffffffffffffffffffffffffffffffff163373ffffffffffffffffffffffffffffffffffffffff161461132b576040517f08c379a0000000000000000000000000000000000000000000000000000000008152600401611322906150d4565b60405180910390fd5b6000600c60008473ffffffffffffffffffffffffffffffffffffffff1673ffffffffffffffffffffffffffffffffffffffff16815260200190815260200160002054146113ad576040517f08c379a00000000000000000000000000000000000000000000000000000000081526004016113a490615174565b60405180910390fd5b600481815481106113c1576113c0615882565b5b90600052602060002090600a0201600901829080600181540180825580915050600190039060005260206000200160009091909190916101000a81548173ffffffffffffffffffffffffffffffffffffffff021916908373ffffffffffffffffffffffffffffffffffffffff16021790555082600c60008473ffffffffffffffffffffffffffffffffffffffff1673ffffffffffffffffffffffffffffffffffffffff1681526020019081526020016000208190555060016004828154811061148d5761148c615882565b5b90600052602060002090600a0201600901805490506114ac9190615661565b600b60008473ffffffffffffffffffffffffffffffffffffffff1673ffffffffffffffffffffffffffffffffffffffff168152602001908152602001600020819055507f594fdd33e217ee870f0aefcf15874f82f79b5024416aed3358ccb666179448ca83836004848154811061152657611525615882565b5b90600052602060002090600a020160040160009054906101000a900473ffffffffffffffffffffffffffffffffffffffff1660405161156793929190615398565b60405180910390a1505050565b60086020528060005260406000206000915090505481565b600260005414156115d2576040517f08c379a00000000000000000000000000000000000000000000000000000000081526004016115c9906152b4565b60405180910390fd5b60026000819055506000600660008481526020019081526020016000205490506000600360009054906101000a900473ffffffffffffffffffffffffffffffffffffffff1673ffffffffffffffffffffffffffffffffffffffff1663b0ff4603846040518263ffffffff1660e01b815260040161164f9190615354565b60206040518083038186803b15801561166757600080fd5b505afa15801561167b573d6000803e3d6000fd5b505050506040513d601f19601f8201168201806040525081019061169f91906146ef565b9050600482815481106116b5576116b4615882565b5b90600052602060002090600a020160040160009054906101000a900473ffffffffffffffffffffffffffffffffffffffff1673ffffffffffffffffffffffffffffffffffffffff163373ffffffffffffffffffffffffffffffffffffffff16148061176d5750600d60009054906101000a900473ffffffffffffffffffffffffffffffffffffffff1673ffffffffffffffffffffffffffffffffffffffff163373ffffffffffffffffffffffffffffffffffffffff16145b806117a357508073ffffffffffffffffffffffffffffffffffffffff163373ffffffffffffffffffffffffffffffffffffffff16145b6117e2576040517f08c379a00000000000000000000000000000000000000000000000000000000081526004016117d990615114565b60405180910390fd5b600a6000848152602001908152602001600020548414611837576040517f08c379a000000000000000000000000000000000000000000000000000000000815260040161182e906151d4565b60405180910390fd5b60006009600085815260200190815260200160002054905060016004848154811061186557611864615882565b5b90600052602060002090600a0201600501541115611a4d5760006004848154811061189357611892615882565b5b90600052602060002090600a020160080182815481106118b6576118b5615882565b5b90600052602060002001549050600484815481106118d7576118d6615882565b5b90600052602060002090600a02016008016001600486815481106118fe576118fd615882565b5b90600052602060002090600a02016005015461191a9190615661565b8154811061192b5761192a615882565b5b90600052602060002001546004858154811061194a57611949615882565b5b90600052602060002090600a0201600801838154811061196d5761196c615882565b5b906000526020600020018190555080600485815481106119905761198f615882565b5b90600052602060002090600a02016008016001600487815481106119b7576119b6615882565b5b90600052602060002090600a0201600501546119d39190615661565b815481106119e4576119e3615882565b5b9060005260206000200181905550816009600060048781548110611a0b57611a0a615882565b5b90600052602060002090600a02016008018581548110611a2e57611a2d615882565b5b9060005260206000200154815260200190815260200160002081905550505b60048381548110611a6157611a60615882565b5b90600052602060002090600a0201600801805480611a8257611a81615853565b5b60019003818190600052602060002001600090559055600160048481548110611aae57611aad615882565b5b90600052602060002090600a020160050154611aca9190615661565b60048481548110611ade57611add615882565b5b90600052602060002090600a0201600501819055506009600085815260200190815260200160002060009055600a6000858152602001908152602001600020600090557fbd55462672a2d76693921f127922e2b1d60e216b9dd9dae59aea54621b53ffe5858560048681548110611b5857611b57615882565b5b90600052602060002090600a020160040160009054906101000a900473ffffffffffffffffffffffffffffffffffffffff16604051611b9993929190615498565b60405180910390a150505060016000819055505050565b6000808215611c6b57600260009054906101000a900473ffffffffffffffffffffffffffffffffffffffff1673ffffffffffffffffffffffffffffffffffffffff1663b9971b5d856040518263ffffffff1660e01b8152600401611c149190615354565b60206040518083038186803b158015611c2c57600080fd5b505afa158015611c40573d6000803e3d6000fd5b505050506040513d601f19601f82011682018060405250810190611c6491906146ef565b9050611d19565b600360009054906101000a900473ffffffffffffffffffffffffffffffffffffffff1673ffffffffffffffffffffffffffffffffffffffff1663b0ff4603856040518263ffffffff1660e01b8152600401611cc69190615354565b60206040518083038186803b158015611cde57600080fd5b505afa158015611cf2573d6000803e3d6000fd5b505050506040513d601f19601f82011682018060405250810190611d1691906146ef565b90505b60006005541415611d2e576000915050611eb9565b60006006600087815260200190815260200160002054905060048181548110611d5a57611d59615882565b5b90600052602060002090600a020160040160009054906101000a900473ffffffffffffffffffffffffffffffffffffffff1673ffffffffffffffffffffffffffffffffffffffff168273ffffffffffffffffffffffffffffffffffffffff161415611dca57600192505050611eb9565b60005b60048281548110611de157611de0615882565b5b90600052602060002090600a020160090180549050811015611eb15760048281548110611e1157611e10615882565b5b90600052602060002090600a02016009018181548110611e3457611e33615882565b5b9060005260206000200160009054906101000a900473ffffffffffffffffffffffffffffffffffffffff1673ffffffffffffffffffffffffffffffffffffffff168373ffffffffffffffffffffffffffffffffffffffff161415611e9e5760019350505050611eb9565b8080611ea9906157ac565b915050611dcd565b506000925050505b9392505050565b60026000541415611f06576040517f08c379a0000000000000000000000000000000000000000000000000000000008152600401611efd906152b4565b60405180910390fd5b60026000819055506000600660008481526020019081526020016000205490506000600260009054906101000a900473ffffffffffffffffffffffffffffffffffffffff1673ffffffffffffffffffffffffffffffffffffffff1663b9971b5d846040518263ffffffff1660e01b8152600401611f839190615354565b60206040518083038186803b158015611f9b57600080fd5b505afa158015611faf573d6000803e3d6000fd5b505050506040513d601f19601f82011682018060405250810190611fd391906146ef565b905060048281548110611fe957611fe8615882565b5b90600052602060002090600a020160040160009054906101000a900473ffffffffffffffffffffffffffffffffffffffff1673ffffffffffffffffffffffffffffffffffffffff163373ffffffffffffffffffffffffffffffffffffffff1614806120a15750600d60009054906101000a900473ffffffffffffffffffffffffffffffffffffffff1673ffffffffffffffffffffffffffffffffffffffff163373ffffffffffffffffffffffffffffffffffffffff16145b806120d757508073ffffffffffffffffffffffffffffffffffffffff163373ffffffffffffffffffffffffffffffffffffffff16145b612116576040517f08c379a000000000000000000000000000000000000000000000000000000000815260040161210d90615134565b60405180910390fd5b6008600084815260200190815260200160002054841461216b576040517f08c379a000000000000000000000000000000000000000000000000000000000815260040161216290615154565b60405180910390fd5b60006007600085815260200190815260200160002054905060016004848154811061219957612198615882565b5b90600052602060002090600a0201600601541115612387576000600484815481106121c7576121c6615882565b5b90600052602060002090600a020160070182815481106121ea576121e9615882565b5b906000526020600020015490506004848154811061220b5761220a615882565b5b90600052602060002090600a020160070160016004868154811061223257612231615882565b5b90600052602060002090600a0201600701805490506122519190615661565b8154811061226257612261615882565b5b90600052602060002001546004858154811061228157612280615882565b5b90600052602060002090600a020160070183815481106122a4576122a3615882565b5b906000526020600020018190555080600485815481106122c7576122c6615882565b5b90600052602060002090600a02016007016001600487815481106122ee576122ed615882565b5b90600052602060002090600a02016007018054905061230d9190615661565b8154811061231e5761231d615882565b5b906000526020600020018190555081600760006004878154811061234557612344615882565b5b90600052602060002090600a0201600701858154811061236857612367615882565b5b9060005260206000200154815260200190815260200160002081905550505b6004838154811061239b5761239a615882565b5b90600052602060002090600a02016007018054806123bc576123bb615853565b5b600190038181906000526020600020016000905590556001600484815481106123e8576123e7615882565b5b90600052602060002090600a0201600601546124049190615661565b6004848154811061241857612417615882565b5b90600052602060002090600a020160060181905550600760008581526020019081526020016000206000905560086000858152602001908152602001600020600090557f98d4a31e04e17141aa78834b378eb654b19e1b2172cb01bfccbc979277210f9e85856004868154811061249257612491615882565b5b90600052602060002090600a020160040160009054906101000a900473ffffffffffffffffffffffffffffffffffffffff166040516124d393929190615498565b60405180910390a150505060016000819055505050565b60018060000154905081565b60606000600554141561253e576040517f08c379a000000000000000000000000000000000000000000000000000000000815260040161253590615254565b60405180910390fd5b6000600660008481526020019081526020016000205490506004818154811061256a57612569615882565b5b90600052602060002090600a02016009018054806020026020016040519081016040528092919081815260200182805480156125fb57602002820191906000526020600020905b8160009054906101000a900473ffffffffffffffffffffffffffffffffffffffff1673ffffffffffffffffffffffffffffffffffffffff16815260200190600101908083116125b1575b5050505050915050919050565b600e60009054906101000a900473ffffffffffffffffffffffffffffffffffffffff1673ffffffffffffffffffffffffffffffffffffffff166329575f6a6040518163ffffffff1660e01b815260040160206040518083038186803b15801561267057600080fd5b505afa158015612684573d6000803e3d6000fd5b505050506040513d601f19601f820116820180604052508101906126a891906146ef565b73ffffffffffffffffffffffffffffffffffffffff163373ffffffffffffffffffffffffffffffffffffffff1614612715576040517f08c379a000000000000000000000000000000000000000000000000000000000815260040161270c906152f4565b60405180910390fd5b6000600660008381526020019081526020016000205490506000811415806127615750816004828154811061274d5761274c615882565b5b90600052602060002090600a020160000154145b6127a0576040517f08c379a000000000000000000000000000000000000000000000000000000000815260040161279790615334565b60405180910390fd5b6000600482815481106127b6576127b5615882565b5b90600052602060002090600a02016009018054905090506000600483815481106127e3576127e2615882565b5b90600052602060002090600a020160040160009054906101000a900473ffffffffffffffffffffffffffffffffffffffff16905060005b828110156129a35760006004858154811061283857612837615882565b5b90600052602060002090600a0201600901600183866128579190615661565b6128619190615661565b8154811061287257612871615882565b5b9060005260206000200160009054906101000a900473ffffffffffffffffffffffffffffffffffffffff169050600485815481106128b3576128b2615882565b5b90600052602060002090600a02016009018054806128d4576128d3615853565b5b6001900381819060005260206000200160006101000a81549073ffffffffffffffffffffffffffffffffffffffff02191690559055600b60008273ffffffffffffffffffffffffffffffffffffffff1673ffffffffffffffffffffffffffffffffffffffff16815260200190815260200160002060009055600c60008273ffffffffffffffffffffffffffffffffffffffff1673ffffffffffffffffffffffffffffffffffffffff1681526020019081526020016000206000905550808061299b906157ac565b91505061281a565b5060016004805490501115612fa8576000600484815481106129c8576129c7615882565b5b90600052602060002090600a020160405180610140016040529081600082015481526020016001820180546129fc90615749565b80601f0160208091040260200160405190810160405280929190818152602001828054612a2890615749565b8015612a755780601f10612a4a57610100808354040283529160200191612a75565b820191906000526020600020905b815481529060010190602001808311612a5857829003601f168201915b50505050508152602001600282018054612a8e90615749565b80601f0160208091040260200160405190810160405280929190818152602001828054612aba90615749565b8015612b075780601f10612adc57610100808354040283529160200191612b07565b820191906000526020600020905b815481529060010190602001808311612aea57829003601f168201915b50505050508152602001600382015481526020016004820160009054906101000a900473ffffffffffffffffffffffffffffffffffffffff1673ffffffffffffffffffffffffffffffffffffffff1673ffffffffffffffffffffffffffffffffffffffff168152602001600582015481526020016006820154815260200160078201805480602002602001604051908101604052809291908181526020018280548015612bd357602002820191906000526020600020905b815481526020019060010190808311612bbf575b5050505050815260200160088201805480602002602001604051908101604052809291908181526020018280548015612c2b57602002820191906000526020600020905b815481526020019060010190808311612c17575b5050505050815260200160098201805480602002602001604051908101604052809291908181526020018280548015612cb957602002820191906000526020600020905b8160009054906101000a900473ffffffffffffffffffffffffffffffffffffffff1673ffffffffffffffffffffffffffffffffffffffff1681526020019060010190808311612c6f575b505050505081525050905060046001600480549050612cd89190615661565b81548110612ce957612ce8615882565b5b90600052602060002090600a020160048581548110612d0b57612d0a615882565b5b90600052602060002090600a0201600082015481600001556001820181600101908054612d3790615749565b612d42929190614180565b506002820181600201908054612d5790615749565b612d62929190614180565b50600382015481600301556004820160009054906101000a900473ffffffffffffffffffffffffffffffffffffffff168160040160006101000a81548173ffffffffffffffffffffffffffffffffffffffff021916908373ffffffffffffffffffffffffffffffffffffffff16021790555060058201548160050155600682015481600601556007820181600701908054612dfe92919061420d565b506008820181600801908054612e1592919061420d565b506009820181600901908054612e2c92919061425f565b509050508060046001600480549050612e459190615661565b81548110612e5657612e55615882565b5b90600052602060002090600a0201600082015181600001556020820151816001019080519060200190612e8a9291906142b1565b506040820151816002019080519060200190612ea79291906142b1565b506060820151816003015560808201518160040160006101000a81548173ffffffffffffffffffffffffffffffffffffffff021916908373ffffffffffffffffffffffffffffffffffffffff16021790555060a0820151816005015560c0820151816006015560e0820151816007019080519060200190612f29929190614337565b50610100820151816008019080519060200190612f47929190614337565b50610120820151816009019080519060200190612f65929190614384565b50905050836006600060048781548110612f8257612f81615882565b5b90600052602060002090600a020160000154815260200190815260200160002081905550505b60066000858152602001908152602001600020600090556004805480612fd157612fd0615853565b5b60019003818190600052602060002090600a0201600080820160009055600182016000612ffe919061440e565b60028201600061300e919061440e565b60038201600090556004820160006101000a81549073ffffffffffffffffffffffffffffffffffffffff02191690556005820160009055600682016000905560078201600061305d919061444e565b60088201600061306d919061444e565b60098201600061307d919061446f565b50509055600560008154809291906130949061571f565b91905055507f1cb8aa3ca92302a65c6f632c6a035719008427cd62e94e28a6b3fab0ace1f33584826040516130ca92919061536f565b60405180910390a150505050565b6000600660008481526020019081526020016000205490506004818154811061310457613103615882565b5b90600052602060002090600a020160040160009054906101000a900473ffffffffffffffffffffffffffffffffffffffff1673ffffffffffffffffffffffffffffffffffffffff163373ffffffffffffffffffffffffffffffffffffffff16146131a3576040517f08c379a000000000000000000000000000000000000000000000000000000000815260040161319a906151b4565b60405180910390fd5b81600482815481106131b8576131b7615882565b5b90600052602060002090600a0201600301819055507f246e9f782d7419723b78e9f62a1c7ec3b8d24aab5605341a925e27bf74c7896483836004848154811061320457613203615882565b5b90600052602060002090600a020160040160009054906101000a900473ffffffffffffffffffffffffffffffffffffffff1660405161324593929190615498565b60405180910390a1505050565b60026000541415613298576040517f08c379a000000000000000000000000000000000000000000000000000000000815260040161328f906152b4565b60405180910390fd5b6002600081905550600073ffffffffffffffffffffffffffffffffffffffff16600d60009054906101000a900473ffffffffffffffffffffffffffffffffffffffff1673ffffffffffffffffffffffffffffffffffffffff161461345c57600e60009054906101000a900473ffffffffffffffffffffffffffffffffffffffff1673ffffffffffffffffffffffffffffffffffffffff166329575f6a6040518163ffffffff1660e01b815260040160206040518083038186803b15801561335e57600080fd5b505afa158015613372573d6000803e3d6000fd5b505050506040513d601f19601f8201168201806040525081019061339691906146ef565b73ffffffffffffffffffffffffffffffffffffffff163373ffffffffffffffffffffffffffffffffffffffff16148061341c5750600d60009054906101000a900473ffffffffffffffffffffffffffffffffffffffff1673ffffffffffffffffffffffffffffffffffffffff163373ffffffffffffffffffffffffffffffffffffffff16145b61345b576040517f08c379a0000000000000000000000000000000000000000000000000000000008152600401613452906151f4565b60405180910390fd5b5b80600d60006101000a81548173ffffffffffffffffffffffffffffffffffffffff021916908373ffffffffffffffffffffffffffffffffffffffff160217905550600d60009054906101000a900473ffffffffffffffffffffffffffffffffffffffff16600e60006101000a81548173ffffffffffffffffffffffffffffffffffffffff021916908373ffffffffffffffffffffffffffffffffffffffff160217905550600160008190555050565b6004818154811061351b57600080fd5b90600052602060002090600a020160009150905080600001549080600101805461354490615749565b80601f016020809104026020016040519081016040528092919081815260200182805461357090615749565b80156135bd5780601f10613592576101008083540402835291602001916135bd565b820191906000526020600020905b8154815290600101906020018083116135a057829003601f168201915b5050505050908060020180546135d290615749565b80601f01602080910402602001604051908101604052809291908181526020018280546135fe90615749565b801561364b5780601f106136205761010080835404028352916020019161364b565b820191906000526020600020905b81548152906001019060200180831161362e57829003601f168201915b5050505050908060030154908060040160009054906101000a900473ffffffffffffffffffffffffffffffffffffffff16908060050154908060060154905087565b600060066000848152602001908152602001600020549050600481815481106136b9576136b8615882565b5b90600052602060002090600a020160040160009054906101000a900473ffffffffffffffffffffffffffffffffffffffff1673ffffffffffffffffffffffffffffffffffffffff163373ffffffffffffffffffffffffffffffffffffffff1614613758576040517f08c379a000000000000000000000000000000000000000000000000000000000815260040161374f906152d4565b60405180910390fd5b61376483836000611bb0565b6137a3576040517f08c379a000000000000000000000000000000000000000000000000000000000815260040161379a90615274565b60405180910390fd5b600481815481106137b7576137b6615882565b5b90600052602060002090600a020160080182908060018154018082558091505060019003906000526020600020016000909190919091505560016004828154811061380557613804615882565b5b90600052602060002090600a020160050154613821919061560b565b6004828154811061383557613834615882565b5b90600052602060002090600a02016005018190555082600a60008481526020019081526020016000208190555060016004828154811061387857613877615882565b5b90600052602060002090600a0201600801805490506138979190615661565b60096000848152602001908152602001600020819055507f48cc45faa1194129383e9c6da7ac24f044471e7bfec36defd5c013eb56c1730b8383600484815481106138e5576138e4615882565b5b90600052602060002090600a020160040160009054906101000a900473ffffffffffffffffffffffffffffffffffffffff1660405161392693929190615498565b60405180910390a1505050565b60005b8151811015613976576139638383838151811061395657613955615882565b5b602002602001015161368d565b808061396e906157ac565b915050613936565b505050565b600260005414156139c1576040517f08c379a00000000000000000000000000000000000000000000000000000000081526004016139b8906152b4565b60405180910390fd5b6002600081905550600060066000898152602001908152602001600020549050600481815481106139f5576139f4615882565b5b90600052602060002090600a020160040160009054906101000a900473ffffffffffffffffffffffffffffffffffffffff1673ffffffffffffffffffffffffffffffffffffffff163373ffffffffffffffffffffffffffffffffffffffff1614613a94576040517f08c379a0000000000000000000000000000000000000000000000000000000008152600401613a8b906150f4565b60405180910390fd5b6000600360009054906101000a900473ffffffffffffffffffffffffffffffffffffffff1673ffffffffffffffffffffffffffffffffffffffff1663d2d8de28898989898989336040518863ffffffff1660e01b8152600401613afd9796959493929190614fe8565b602060405180830381600087803b158015613b1757600080fd5b505af1158015613b2b573d6000803e3d6000fd5b505050506040513d601f19601f82011682018060405250810190613b4f9190614818565b9050613b5b898261368d565b5050600160008190555050505050505050565b60055481565b600c6020528060005260406000206000915090505481565b6000600e60009054906101000a900473ffffffffffffffffffffffffffffffffffffffff1673ffffffffffffffffffffffffffffffffffffffff166329575f6a6040518163ffffffff1660e01b815260040160206040518083038186803b158015613bf657600080fd5b505afa158015613c0a573d6000803e3d6000fd5b505050506040513d601f19601f82011682018060405250810190613c2e91906146ef565b73ffffffffffffffffffffffffffffffffffffffff163373ffffffffffffffffffffffffffffffffffffffff1614613c9b576040517f08c379a0000000000000000000000000000000000000000000000000000000008152600401613c92906152f4565b60405180910390fd5b613ca5600161415c565b60606000604051806101400160405280613cbf6001614172565b81526020018981526020018881526020018781526020018673ffffffffffffffffffffffffffffffffffffffff1681526020016000815260200160008152602001838152602001600067ffffffffffffffff811115613d2157613d206158b1565b5b604051908082528060200260200182016040528015613d4f5781602001602082028036833780820191505090505b50815260200185815250905060048190806001815401808255809150506001900390600052602060002090600a0201600090919091909150600082015181600001556020820151816001019080519060200190613dad9291906142b1565b506040820151816002019080519060200190613dca9291906142b1565b506060820151816003015560808201518160040160006101000a81548173ffffffffffffffffffffffffffffffffffffffff021916908373ffffffffffffffffffffffffffffffffffffffff16021790555060a0820151816005015560c0820151816006015560e0820151816007019080519060200190613e4c929190614337565b50610100820151816008019080519060200190613e6a929190614337565b50610120820151816009019080519060200190613e88929190614384565b5050506001600480549050613e9d9190615661565b60066000613eab6001614172565b81526020019081526020016000208190555060005b8451811015613f0957613ef6613ed66001614172565b868381518110613ee957613ee8615882565b5b6020026020010151611260565b8080613f01906157ac565b915050613ec0565b5060056000815480929190613f1d906157ac565b91905055507f4c10057cafed8c5c24b3d9d40ea131f21d44530fd182282f0dc9a83558127069613f4d6001614172565b898888604051613f60949392919061544c565b60405180910390a1613f726001614172565b9250505095945050505050565b60006006600086815260200190815260200160002054905060048181548110613fab57613faa615882565b5b90600052602060002090600a020160040160009054906101000a900473ffffffffffffffffffffffffffffffffffffffff1673ffffffffffffffffffffffffffffffffffffffff163373ffffffffffffffffffffffffffffffffffffffff161480614054575084600c60003373ffffffffffffffffffffffffffffffffffffffff1673ffffffffffffffffffffffffffffffffffffffff16815260200190815260200160002054145b614093576040517f08c379a000000000000000000000000000000000000000000000000000000000815260040161408a90615314565b60405180910390fd5b6000600260009054906101000a900473ffffffffffffffffffffffffffffffffffffffff1673ffffffffffffffffffffffffffffffffffffffff16630a780b61868686336040518563ffffffff1660e01b81526004016140f69493929190615081565b602060405180830381600087803b15801561411057600080fd5b505af1158015614124573d6000803e3d6000fd5b505050506040513d601f19601f820116820180604052508101906141489190614818565b9050614154868261070b565b505050505050565b6001816000016000828254019250508190555050565b600081600001549050919050565b82805461418c90615749565b90600052602060002090601f0160209004810192826141ae57600085556141fc565b82601f106141bf57805485556141fc565b828001600101855582156141fc57600052602060002091601f016020900482015b828111156141fb5782548255916001019190600101906141e0565b5b5090506142099190614490565b5090565b82805482825590600052602060002090810192821561424e5760005260206000209182015b8281111561424d578254825591600101919060010190614232565b5b50905061425b9190614490565b5090565b8280548282559060005260206000209081019282156142a05760005260206000209182015b8281111561429f578254825591600101919060010190614284565b5b5090506142ad9190614490565b5090565b8280546142bd90615749565b90600052602060002090601f0160209004810192826142df5760008555614326565b82601f106142f857805160ff1916838001178555614326565b82800160010185558215614326579182015b8281111561432557825182559160200191906001019061430a565b5b5090506143339190614490565b5090565b828054828255906000526020600020908101928215614373579160200282015b82811115614372578251825591602001919060010190614357565b5b5090506143809190614490565b5090565b8280548282559060005260206000209081019282156143fd579160200282015b828111156143fc5782518260006101000a81548173ffffffffffffffffffffffffffffffffffffffff021916908373ffffffffffffffffffffffffffffffffffffffff160217905550916020019190600101906143a4565b5b50905061440a9190614490565b5090565b50805461441a90615749565b6000825580601f1061442c575061444b565b601f01602090049060005260206000209081019061444a9190614490565b5b50565b508054600082559060005260206000209081019061446c9190614490565b50565b508054600082559060005260206000209081019061448d9190614490565b50565b5b808211156144a9576000816000905550600101614491565b5090565b60006144c06144bb846154f4565b6154cf565b905080838252602082019050828560208602820111156144e3576144e26158e5565b5b60005b8581101561451357816144f988826145cf565b8452602084019350602083019250506001810190506144e6565b5050509392505050565b600061453061452b84615520565b6154cf565b90508083825260208201905082856020860282011115614553576145526158e5565b5b60005b8581101561458357816145698882614698565b845260208401935060208301925050600181019050614556565b5050509392505050565b60006145a061459b8461554c565b6154cf565b9050828152602081018484840111156145bc576145bb6158ea565b5b6145c78482856156dd565b509392505050565b6000813590506145de81615f10565b92915050565b6000815190506145f381615f10565b92915050565b600082601f83011261460e5761460d6158e0565b5b813561461e8482602086016144ad565b91505092915050565b600082601f83011261463c5761463b6158e0565b5b813561464c84826020860161451d565b91505092915050565b60008135905061466481615f27565b92915050565b600082601f83011261467f5761467e6158e0565b5b813561468f84826020860161458d565b91505092915050565b6000813590506146a781615f3e565b92915050565b6000815190506146bc81615f3e565b92915050565b6000602082840312156146d8576146d76158f4565b5b60006146e6848285016145cf565b91505092915050565b600060208284031215614705576147046158f4565b5b6000614713848285016145e4565b91505092915050565b600080600080600060a08688031215614738576147376158f4565b5b600086013567ffffffffffffffff811115614756576147556158ef565b5b6147628882890161466a565b955050602086013567ffffffffffffffff811115614783576147826158ef565b5b61478f8882890161466a565b94505060406147a088828901614698565b93505060606147b1888289016145cf565b925050608086013567ffffffffffffffff8111156147d2576147d16158ef565b5b6147de888289016145f9565b9150509295509295909350565b600060208284031215614801576148006158f4565b5b600061480f84828501614698565b91505092915050565b60006020828403121561482e5761482d6158f4565b5b600061483c848285016146ad565b91505092915050565b6000806040838503121561485c5761485b6158f4565b5b600061486a85828601614698565b925050602061487b858286016145cf565b9150509250929050565b6000806040838503121561489c5761489b6158f4565b5b60006148aa85828601614698565b925050602083013567ffffffffffffffff8111156148cb576148ca6158ef565b5b6148d785828601614627565b9150509250929050565b600080600080600080600060e0888a031215614900576148ff6158f4565b5b600061490e8a828b01614698565b975050602088013567ffffffffffffffff81111561492f5761492e6158ef565b5b61493b8a828b0161466a565b965050604088013567ffffffffffffffff81111561495c5761495b6158ef565b5b6149688a828b0161466a565b955050606088013567ffffffffffffffff811115614989576149886158ef565b5b6149958a828b0161466a565b945050608088013567ffffffffffffffff8111156149b6576149b56158ef565b5b6149c28a828b0161466a565b93505060a088013567ffffffffffffffff8111156149e3576149e26158ef565b5b6149ef8a828b01614627565b92505060c088013567ffffffffffffffff811115614a1057614a0f6158ef565b5b614a1c8a828b0161466a565b91505092959891949750929550565b60008060008060808587031215614a4557614a446158f4565b5b6000614a5387828801614698565b945050602085013567ffffffffffffffff811115614a7457614a736158ef565b5b614a808782880161466a565b9350506040614a9187828801614698565b925050606085013567ffffffffffffffff811115614ab257614ab16158ef565b5b614abe8782880161466a565b91505092959194509250565b60008060408385031215614ae157614ae06158f4565b5b6000614aef85828601614698565b9250506020614b0085828601614698565b9150509250929050565b600080600060608486031215614b2357614b226158f4565b5b6000614b3186828701614698565b9350506020614b4286828701614698565b9250506040614b5386828701614655565b9150509250925092565b6000614b698383614b8d565b60208301905092915050565b6000614b818383614f6b565b60208301905092915050565b614b9681615695565b82525050565b614ba581615695565b82525050565b6000614bb68261559d565b614bc081856155d8565b9350614bcb8361557d565b8060005b83811015614bfc578151614be38882614b5d565b9750614bee836155be565b925050600181019050614bcf565b5085935050505092915050565b6000614c14826155a8565b614c1e81856155e9565b9350614c298361558d565b8060005b83811015614c5a578151614c418882614b75565b9750614c4c836155cb565b925050600181019050614c2d565b5085935050505092915050565b614c70816156a7565b82525050565b6000614c81826155b3565b614c8b81856155fa565b9350614c9b8185602086016156ec565b614ca4816158f9565b840191505092915050565b6000614cbc602f836155fa565b9150614cc78261590a565b604082019050919050565b6000614cdf6033836155fa565b9150614cea82615959565b604082019050919050565b6000614d026033836155fa565b9150614d0d826159a8565b604082019050919050565b6000614d25602d836155fa565b9150614d30826159f7565b604082019050919050565b6000614d48602a836155fa565b9150614d5382615a46565b604082019050919050565b6000614d6b6032836155fa565b9150614d7682615a95565b604082019050919050565b6000614d8e6039836155fa565b9150614d9982615ae4565b604082019050919050565b6000614db16026836155fa565b9150614dbc82615b33565b604082019050919050565b6000614dd46030836155fa565b9150614ddf82615b82565b604082019050919050565b6000614df76031836155fa565b9150614e0282615bd1565b604082019050919050565b6000614e1a6034836155fa565b9150614e2582615c20565b604082019050919050565b6000614e3d6028836155fa565b9150614e4882615c6f565b604082019050919050565b6000614e606014836155fa565b9150614e6b82615cbe565b602082019050919050565b6000614e836041836155fa565b9150614e8e82615ce7565b606082019050919050565b6000614ea6603a836155fa565b9150614eb182615d5c565b604082019050919050565b6000614ec9601f836155fa565b9150614ed482615dab565b602082019050919050565b6000614eec6030836155fa565b9150614ef782615dd4565b604082019050919050565b6000614f0f6049836155fa565b9150614f1a82615e23565b606082019050919050565b6000614f326039836155fa565b9150614f3d82615e98565b604082019050919050565b6000614f556016836155fa565b9150614f6082615ee7565b602082019050919050565b614f74816156d3565b82525050565b614f83816156d3565b82525050565b60006020820190508181036000830152614fa38184614bab565b905092915050565b60006020820190508181036000830152614fc58184614c09565b905092915050565b6000602082019050614fe26000830184614c67565b92915050565b600060e0820190508181036000830152615002818a614c76565b905081810360208301526150168189614c76565b9050818103604083015261502a8188614c76565b9050818103606083015261503e8187614c76565b905081810360808301526150528186614c09565b905081810360a08301526150668185614c76565b905061507560c0830184614b9c565b98975050505050505050565b6000608082019050818103600083015261509b8187614c76565b90506150aa6020830186614f7a565b81810360408301526150bc8185614c76565b90506150cb6060830184614b9c565b95945050505050565b600060208201905081810360008301526150ed81614caf565b9050919050565b6000602082019050818103600083015261510d81614cd2565b9050919050565b6000602082019050818103600083015261512d81614cf5565b9050919050565b6000602082019050818103600083015261514d81614d18565b9050919050565b6000602082019050818103600083015261516d81614d3b565b9050919050565b6000602082019050818103600083015261518d81614d5e565b9050919050565b600060208201905081810360008301526151ad81614d81565b9050919050565b600060208201905081810360008301526151cd81614da4565b9050919050565b600060208201905081810360008301526151ed81614dc7565b9050919050565b6000602082019050818103600083015261520d81614dea565b9050919050565b6000602082019050818103600083015261522d81614e0d565b9050919050565b6000602082019050818103600083015261524d81614e30565b9050919050565b6000602082019050818103600083015261526d81614e53565b9050919050565b6000602082019050818103600083015261528d81614e76565b9050919050565b600060208201905081810360008301526152ad81614e99565b9050919050565b600060208201905081810360008301526152cd81614ebc565b9050919050565b600060208201905081810360008301526152ed81614edf565b9050919050565b6000602082019050818103600083015261530d81614f02565b9050919050565b6000602082019050818103600083015261532d81614f25565b9050919050565b6000602082019050818103600083015261534d81614f48565b9050919050565b60006020820190506153696000830184614f7a565b92915050565b60006040820190506153846000830185614f7a565b6153916020830184614b9c565b9392505050565b60006060820190506153ad6000830186614f7a565b6153ba6020830185614b9c565b6153c76040830184614b9c565b949350505050565b600060e0820190506153e4600083018a614f7a565b81810360208301526153f68189614c76565b9050818103604083015261540a8188614c76565b90506154196060830187614f7a565b6154266080830186614b9c565b61543360a0830185614f7a565b61544060c0830184614f7a565b98975050505050505050565b60006080820190506154616000830187614f7a565b81810360208301526154738186614c76565b90506154826040830185614f7a565b61548f6060830184614b9c565b95945050505050565b60006060820190506154ad6000830186614f7a565b6154ba6020830185614f7a565b6154c76040830184614b9c565b949350505050565b60006154d96154ea565b90506154e5828261577b565b919050565b6000604051905090565b600067ffffffffffffffff82111561550f5761550e6158b1565b5b602082029050602081019050919050565b600067ffffffffffffffff82111561553b5761553a6158b1565b5b602082029050602081019050919050565b600067ffffffffffffffff821115615567576155666158b1565b5b615570826158f9565b9050602081019050919050565b6000819050602082019050919050565b6000819050602082019050919050565b600081519050919050565b600081519050919050565b600081519050919050565b6000602082019050919050565b6000602082019050919050565b600082825260208201905092915050565b600082825260208201905092915050565b600082825260208201905092915050565b6000615616826156d3565b9150615621836156d3565b9250827fffffffffffffffffffffffffffffffffffffffffffffffffffffffffffffffff03821115615656576156556157f5565b5b828201905092915050565b600061566c826156d3565b9150615677836156d3565b92508282101561568a576156896157f5565b5b828203905092915050565b60006156a0826156b3565b9050919050565b60008115159050919050565b600073ffffffffffffffffffffffffffffffffffffffff82169050919050565b6000819050919050565b82818337600083830152505050565b60005b8381101561570a5780820151818401526020810190506156ef565b83811115615719576000848401525b50505050565b600061572a826156d3565b9150600082141561573e5761573d6157f5565b5b600182039050919050565b6000600282049050600182168061576157607f821691505b6020821081141561577557615774615824565b5b50919050565b615784826158f9565b810181811067ffffffffffffffff821117156157a3576157a26158b1565b5b80604052505050565b60006157b7826156d3565b91507fffffffffffffffffffffffffffffffffffffffffffffffffffffffffffffffff8214156157ea576157e96157f5565b5b600182019050919050565b7f4e487b7100000000000000000000000000000000000000000000000000000000600052601160045260246000fd5b7f4e487b7100000000000000000000000000000000000000000000000000000000600052602260045260246000fd5b7f4e487b7100000000000000000000000000000000000000000000000000000000600052603160045260246000fd5b7f4e487b7100000000000000000000000000000000000000000000000000000000600052603260045260246000fd5b7f4e487b7100000000000000000000000000000000000000000000000000000000600052604160045260246000fd5b600080fd5b600080fd5b600080fd5b600080fd5b600080fd5b6000601f19601f8301169050919050565b7f4f6e6c792061646d696e2063616e2061646420616e20656d706c6f796565206960008201527f6e2074686520627573696e6573732e0000000000000000000000000000000000602082015250565b7f4f6e6c792061646d696e2063616e20637265617465206120636f6c6c6563746960008201527f6f6e20696e2074686520627573696e6573732e00000000000000000000000000602082015250565b7f4f6e6c792061646d696e2063616e2072656d6f7665206120636f6c6c6563746960008201527f6f6e2066726f6d206120627573696e6573732e00000000000000000000000000602082015250565b7f4f6e6c792061646d696e2063616e2072656d6f766520616e206e66742066726f60008201527f6d206120627573696e6573732e00000000000000000000000000000000000000602082015250565b7f54686973204e465420646f65736e27742062656c6f6e677320746f207468697360008201527f20627573696e6573732e00000000000000000000000000000000000000000000602082015250565b7f54686973206164647265737320697320616c726561647920616e20656d706c6f60008201527f79656520696e206120627573696e6573732e0000000000000000000000000000602082015250565b7f4f6e6c792061646d696e206f7220616e20656d706c6f7965652063616e20616460008201527f6420616e206e667420746f2074686520627573696e6573732e00000000000000602082015250565b7f4f6e6c792061646d696e2063616e20757064617465207468652066656520706560008201527f7263656e742e0000000000000000000000000000000000000000000000000000602082015250565b7f5468697320636f6c6c656374696f6e20646f65736e27742062656c6f6e67207460008201527f6f207468697320627573696e6573732e00000000000000000000000000000000602082015250565b7f4f6e6c792073757065722061646d696e2063616e2073657420746865206d617260008201527f6b6574706c61636520616464726573732e000000000000000000000000000000602082015250565b7f4f6e6c792061646d696e2063616e2072656d6f766520616e20656d706c6f796560008201527f652066726f6d2074686520627573696e6573732e000000000000000000000000602082015250565b7f456d706c6f79656520646f65736e277420657869737420696e2074686973206260008201527f7573696e6573732e000000000000000000000000000000000000000000000000602082015250565b7f496e76616c696420627573696e6573732049442e000000000000000000000000600082015250565b7f596f752063616e20616464206f6e6c7920636f6c6c656374696f6e73206f776e60008201527f6564206279207468652061646d696e206f722074686520656d706c6f7965657360208201527f2e00000000000000000000000000000000000000000000000000000000000000604082015250565b7f596f752063616e20616464206f6e6c79206e667473206f776e6564206279207460008201527f68652061646d696e206f722074686520656d706c6f796565732e000000000000602082015250565b7f5265656e7472616e637947756172643a207265656e7472616e742063616c6c00600082015250565b7f4f6e6c792061646d696e2063616e20616464206120636f6c6c656374696f6e2060008201527f746f2074686520627573696e6573732e00000000000000000000000000000000602082015250565b7f427573696e65737365732063616e206f6e6c792062652063726561746564206f60008201527f722072656d6f76656420627920746865206d61726b6574706c6163652073757060208201527f65722061646d696e2e0000000000000000000000000000000000000000000000604082015250565b7f4f6e6c792061646d696e206f7220656d706c6f7965652063616e20637265617460008201527f6520616e206e667420746f2074686520627573696e6573732e00000000000000602082015250565b7f427573696e65737320646f65736e277420657869737400000000000000000000600082015250565b615f1981615695565b8114615f2457600080fd5b50565b615f30816156a7565b8114615f3b57600080fd5b50565b615f47816156d3565b8114615f5257600080fd5b5056fea2646970667358221220c452fc32d504ba1cadc4e2f85886f25da6ad20006b21761b39f6b3b0bbb0ede964736f6c63430008070033",
  "immutableReferences": {},
  "source": "//SPDX-License-Identifier: Unlicensed\r\n\r\npragma solidity ^0.8.4;\r\n\r\nimport './Definitions.sol';\r\nimport './Collections.sol';\r\nimport './NFT.sol';\r\nimport './Marketplace.sol';\r\nimport '@openzeppelin/contracts/security/ReentrancyGuard.sol';\r\n\r\n/**\r\nThis contract stores the details of all the businesses, that are defined by the\r\nDefinitions smart contract, generates ids for new businesses and maintains which \r\ncollection/nft is owned by which business. It supports the admin to add/remove \r\ncollections/nfts and manipulating the same.\r\n\r\n@author : Hritik Raheja\r\n*/\r\n\r\ncontract Businesses is ReentrancyGuard{\r\n\r\n    /**\r\n    1. _businessIdGenerator - allots a business Id to every newly created business.\r\n    2. nftContractInstance - is an instance of the NFT contract, i.e., used to call\r\n    the methods of the NFT contract.\r\n    3. collectionsContractInstance - is an instance of the Collections contract, i.e.,\r\n    used to call the methods of the Collections contract.\r\n    4. businesses - is array that stores the details of all businesses.\r\n    5. businessCount - is the current count of businesses in the contract.\r\n    6. businessIdToIndex - stores that which business is stored at which index in the\r\n    businesses array.\r\n    7. nftIdToIndex - stores which nft is stored at which index in its corresponding business.\r\n    8. nftIdToBusinessId - stores which nft is stored in which business.\r\n    9. collectionIdToIndex - stores which collection is stored at which index\r\n    in its corresponding business.\r\n    10. collectionIdToBusinessId - stores which collection is stored in which business.\r\n    11. employeesAddressToIndex - stores which employee is stored at which index in the \r\n    employees array defined in the Business struct in the Definitions smart contract.\r\n    12. employeeAddressToBusinessId - stores which employee belongs to which business.\r\n    13. marketPlaceContractAddress - The address of the deployed marketplace contract.\r\n    14. marketplaceContractInstance - is an instance of the Marketplace contract, i.e., used to\r\n    fetch the superadmin address.\r\n    */\r\n    using Counters for Counters.Counter;\r\n    Counters.Counter public _businessIdGenerator;\r\n    NFT nftContractInstance;\r\n    Collections collectionsContractInstance;\r\n    Definitions.Business[] public businesses;\r\n    uint256 public businessCount;\r\n    mapping(uint256 => uint256) public businessIdToIndex;\r\n    mapping(uint256 => uint256) public nftIdToIndex;\r\n    mapping(uint256 => uint256) public nftIdToBusinessId;\r\n    mapping(uint256 => uint256) public collectionIdToIndex;\r\n    mapping(uint256 => uint256) public collectionIdToBusinessId;\r\n    mapping(address => uint256) public employeeAddressToIndex;\r\n    mapping(address => uint256) public employeeAddressToBusinessId;\r\n    address marketplaceContractAddress;\r\n    Marketplace marketplaceContractInstance;\r\n\r\n    event businessCreated(uint businessId, string businessName, uint feeePercent, address adminAddress);\r\n    event businessRemoved(uint businessId, address adminAddress);\r\n    event employeeAddedToBusiness(uint bId, address employeeAddress, address adminAddress);\r\n    event employeeRemovedFromBusiness(uint bId, address employeeAddress, address adminAddress);  \r\n    event collectionAddedToBusiness(uint bId, uint collectionId, address adminAddress);\r\n    event nftAddedToBusiness(uint bId, uint nftId, address adminAddress);\r\n    event collectionRemovedFromBusiness(uint bId, uint collectionId, address adminAddress);\r\n    event nftRemovedFromBusiness(uint bId, uint nftId, address adminAddress);\r\n    event businessFeeUpdated(uint bId, uint newFeePercent, address adminAddress);\r\n\r\n\r\n    /**\r\n    This modifier specifies that only super admin can add/delete a  business.\r\n    */\r\n    modifier onlySuperAdmin(){\r\n        require(msg.sender == marketplaceContractInstance.superAdmin(), \r\n        \"Businesses can only be created or removed by the marketplace super admin.\");\r\n        _;\r\n    }\r\n\r\n    /**\r\n    This method sets the marketplace contract address for super admin validations.\r\n    This method is called for the first time when the marketplace contract is created, and \r\n    can be called again but only by the super admin itself.\r\n    @param _marketplaceContractAddress - The address of the deployed marketplace contract. \r\n    */\r\n    function setMarketplaceAddress(address _marketplaceContractAddress) public nonReentrant{\r\n        if(marketplaceContractAddress != address(0)){\r\n            require(msg.sender == marketplaceContractInstance.superAdmin() || \r\n            msg.sender == marketplaceContractAddress, \r\n            \"Only super admin can set the marketplace address.\");\r\n        } \r\n        marketplaceContractAddress = _marketplaceContractAddress;\r\n        marketplaceContractInstance = Marketplace(marketplaceContractAddress);\r\n    }\r\n\r\n    /**\r\n    The deployed NFT and Collections smart contract's addresses are provided as parameters\r\n    in the constructor in order to create the instances of the contracts.\r\n    */\r\n    constructor(address _nftContractAddress, address _collectionsContractAddress){\r\n        nftContractInstance = NFT(_nftContractAddress);\r\n        collectionsContractInstance = Collections(_collectionsContractAddress);\r\n    }\r\n\r\n    /**\r\n    This method creates a business, increments the businessCount, generates a new and unique\r\n    business Id, adds the business to the businesses array and maintains the mapping of \r\n    business Id to its corresponding index in the businesses array.\r\n    @param _bName - The name of the business to be created.\r\n    @param _bLogoUri - The logo uri of the business to be created.\r\n    @param _feePercent - The fee percentage charged by the business to be created.\r\n    @param _adminAddress - The address of the business admin.\r\n    @param _employees - An array consisting of addresses of all employees in the business.\r\n    @return This method returns the id of the newly created business.\r\n    */\r\n    function addBusiness(string memory _bName, string memory _bLogoUri,\r\n    uint256 _feePercent, address _adminAddress, address[] memory _employees) public onlySuperAdmin returns(uint256){\r\n        _businessIdGenerator.increment();\r\n        uint256[] memory _emptyArray;\r\n        Definitions.Business memory _newBusiness = Definitions.Business(_businessIdGenerator.current(),\r\n     _bName, _bLogoUri, _feePercent, _adminAddress, 0, 0, _emptyArray,\r\n        new uint256[](0),_employees);\r\n        businesses.push(_newBusiness);\r\n        businessIdToIndex[_businessIdGenerator.current()] = businesses.length - 1;\r\n        for(uint256 _i = 0; _i < _employees.length; _i++){\r\n           addEmployee(_businessIdGenerator.current(), _employees[_i]);\r\n        }\r\n        businessCount++;\r\n        emit businessCreated(_businessIdGenerator.current(), _bName, _feePercent, _adminAddress);\r\n        return _businessIdGenerator.current();\r\n    }\r\n\r\n    /**\r\n    This method removes a business from the marketplace, i.e., it removes the business\r\n    from the businesses array, decrements the businessCount and removes the businessIdToindex \r\n    mapping for the particular business Id.\r\n    @param _businessId - The id of the business to be removed.\r\n    */\r\n    function removeBusiness(uint256 _businessId) public onlySuperAdmin{\r\n        uint256 _index  = businessIdToIndex[_businessId];\r\n        require(_index != 0 || businesses[_index].businessId == _businessId, \"Business doesn't exist\");\r\n        uint256 _employeeCount = businesses[_index].employees.length;\r\n        address admin = businesses[_index].adminAddress;\r\n        for(uint256 _i = 0; _i < _employeeCount; _i++){\r\n            address _employeeAddress = businesses[_index].employees[_employeeCount - _i - 1];\r\n            businesses[_index].employees.pop();\r\n            delete employeeAddressToIndex[_employeeAddress];\r\n            delete employeeAddressToBusinessId[_employeeAddress];\r\n        }\r\n        if(businesses.length > 1){\r\n            Definitions.Business memory _temp = businesses[_index];\r\n            businesses[_index] = businesses[businesses.length - 1]; \r\n            businesses[businesses.length - 1] = _temp;\r\n            businessIdToIndex[businesses[_index].businessId] = _index;\r\n        }\r\n        delete businessIdToIndex[_businessId];\r\n        businesses.pop();\r\n        businessCount--;\r\n        emit businessRemoved(_businessId, admin);\r\n    }\r\n\r\n    /**\r\n    This method adds an already listed collection to a business.\r\n    @param _businessId - The id of the business in which the collection is to be added.\r\n    @param _collectionId - The id of the collection which is to be added.\r\n    */\r\n    function addCollectionToBusiness(uint256 _businessId, uint256 _collectionId) public{\r\n        uint256 _index = businessIdToIndex[_businessId];\r\n        require(msg.sender == businesses[_index].adminAddress, \"Only admin can add a collection to the business.\");\r\n        require(collectionOrNftOwnedByOwnerOrEmployee(_businessId, _collectionId, false), \"You can add only collections owned by the admin or the employees.\");\r\n        businesses[_index].collectionIds.push(_collectionId);\r\n        businesses[_index].collectionCount = businesses[_index].collectionCount + 1;\r\n        collectionIdToBusinessId[_collectionId] = _businessId;\r\n        collectionIdToIndex[_collectionId] = businesses[_index].collectionIds.length - 1;\r\n        emit collectionAddedToBusiness(_businessId, _collectionId, businesses[_index].adminAddress);\r\n    }\r\n\r\n    /**\r\n    This methods adds a number of already listed collections to a business.\r\n    @param _businessId - The id of the business in which the collections are to be added.\r\n    @param _collectionIds - An array of ids of all collections which are to be added.\r\n    */\r\n    function addMultipleCollectionsToBusiness(uint256 _businessId, uint256[] memory _collectionIds) public{\r\n        for(uint256 _i = 0; _i < _collectionIds.length; _i++){\r\n            addCollectionToBusiness(_businessId, _collectionIds[_i]);\r\n        }\r\n    }\r\n\r\n    /**\r\n    This methods creates a new collection and adds it to a business.\r\n    @param _businessId - The id of the business in which the collection is to be created.\r\n    @param _collectionName - The name of the collection which is to be created in the business.\r\n    @param _collectionCoverImageUri - The uri of the collection's cover image.\r\n    @param _collectionDescription - The description of the collection which is to be created.\r\n    @param _collectionOwnerName - The name of the collection's owner.\r\n    @param _tokenIds - An array containing ids of all nfts that are present in the collection.\r\n    @param _category - The category of the collection to be created.\r\n    */\r\n    function createCollectionInBusiness(uint256 _businessId, string memory _collectionName, \r\n        string memory _collectionCoverImageUri, string memory _collectionDescription, \r\n        string memory _collectionOwnerName, uint256[] memory _tokenIds, string memory _category) public nonReentrant{\r\n        uint256 _index = businessIdToIndex[_businessId];\r\n        require(msg.sender == businesses[_index].adminAddress, \"Only admin can create a collection in the business.\");\r\n        uint256 _newCollectionId = collectionsContractInstance.createCollection(_collectionName,\r\n        _collectionCoverImageUri, _collectionDescription, _collectionOwnerName, \r\n        _tokenIds, _category, msg.sender);\r\n        addCollectionToBusiness(_businessId, _newCollectionId);\r\n    }\r\n\r\n    /**\r\n    This method adds an already listed NFT to a business.\r\n    @param _businessId - The id of the business in which the nft is to be added.\r\n    @param _nftId - The id of the nft which is to be added.\r\n    */\r\n    function addNftToBusiness(uint256 _businessId, uint256 _nftId) public nonReentrant{\r\n        uint256 _index = businessIdToIndex[_businessId];\r\n        address ownerAddress = nftContractInstance.getOwnerByNftId(_nftId);\r\n        require(msg.sender == businesses[_index].adminAddress || employeeAddressToBusinessId[ownerAddress] == _businessId, \"Only admin or an employee can add an nft to the business.\");\r\n        require(collectionOrNftOwnedByOwnerOrEmployee(_businessId, _nftId, true), \"You can add only nfts owned by the admin or the employees.\");\r\n        businesses[_index].nftIds.push(_nftId);\r\n        businesses[_index].singleNftCount = businesses[_index].singleNftCount + 1;\r\n        nftIdToBusinessId[_nftId] = _businessId;\r\n        nftIdToIndex[_nftId] = businesses[_index].nftIds.length - 1;\r\n        emit nftAddedToBusiness(_businessId, _nftId, businesses[_index].adminAddress);\r\n    }\r\n\r\n    /**\r\n    This methods adds a number of already listed nfts to a business.\r\n    @param _businessId - The id of the business in which the nfts are to be added.\r\n    @param _nftIds - An array of ids of all nfts which are to be added.\r\n    */\r\n    function addMultipleNftsToBusiness(uint256 _businessId, uint256[] memory _nftIds) public{\r\n        for(uint256 _i = 0; _i < _nftIds.length; _i++){\r\n            addNftToBusiness(_businessId, _nftIds[_i]);\r\n        }\r\n    }\r\n\r\n    /**\r\n    This methods creates a new nft and adds it to a business.\r\n    @param _businessId - The id of the business in which the nft is to be added.\r\n    @param _tokenUri - The token uri of the nft that is to be minted and added to the business.\r\n    @param _price -  The price of the nft that is to be minted and added to the business.\r\n    @param _category - The category of the nft that is to be minted and added to the business.\r\n    */\r\n    function createNftInBusiness(uint256 _businessId ,string memory _tokenUri, uint256 _price,\r\n        string memory _category) public{\r\n            uint256 _index = businessIdToIndex[_businessId];\r\n            require(msg.sender == businesses[_index].adminAddress || employeeAddressToBusinessId[msg.sender] == _businessId, \"Only admin or employee can create an nft to the business.\");\r\n            uint256 _newNftId = nftContractInstance.createNft(_tokenUri,\r\n            _price, _category, msg.sender);\r\n            addNftToBusiness(_businessId, _newNftId);\r\n    }\r\n\r\n    /**\r\n    This method removes a collection from the business.\r\n    @param _businessId - The id of the business from which the collection is to be removed.\r\n    @param _collectionId - The id of the collection which is to be removed.\r\n    */\r\n    function removeCollectionFromBusiness(uint256 _businessId, uint256 _collectionId) public nonReentrant{\r\n        uint256 _index = businessIdToIndex[_businessId];\r\n        address collectionOwner = collectionsContractInstance.getOwnerByCollectionId(_collectionId);\r\n        require(msg.sender == businesses[_index].adminAddress || msg.sender == marketplaceContractAddress || msg.sender == collectionOwner, \"Only admin can remove a collection from a business.\");\r\n        require(_businessId == collectionIdToBusinessId[_collectionId], \"This collection doesn't belong to this business.\");\r\n        uint256 _collectionIndex = collectionIdToIndex[_collectionId];\r\n        if(businesses[_index].collectionCount > 1){\r\n            uint256 _temp = businesses[_index].collectionIds[_collectionIndex];\r\n            businesses[_index].collectionIds[_collectionIndex] = businesses[_index].collectionIds[businesses[_index].collectionCount - 1];\r\n            businesses[_index].collectionIds[businesses[_index].collectionCount - 1] = _temp;\r\n            collectionIdToIndex[businesses[_index].collectionIds[_collectionIndex]] = _collectionIndex;\r\n        }\r\n        businesses[_index].collectionIds.pop();\r\n        businesses[_index].collectionCount = businesses[_index].collectionCount - 1;\r\n        delete collectionIdToIndex[_collectionId];\r\n        delete collectionIdToBusinessId[_collectionId];\r\n        emit collectionRemovedFromBusiness(_businessId, _collectionId, businesses[_index].adminAddress);\r\n    }\r\n\r\n    /**\r\n    This method removes a nft from the business.\r\n    @param _businessId - The id of the business from which the nft is to be removed.\r\n    @param _nftId - The tokenId of the nft which is to be removed.\r\n    */\r\n    function removeNftFromBusiness(uint256 _businessId, uint256 _nftId) public nonReentrant{\r\n        uint256 _index = businessIdToIndex[_businessId];\r\n        address nftOwner = nftContractInstance.getOwnerByNftId(_nftId);\r\n        require(msg.sender == businesses[_index].adminAddress || msg.sender == marketplaceContractAddress || msg.sender == nftOwner, \"Only admin can remove an nft from a business.\");\r\n        require(_businessId == nftIdToBusinessId[_nftId], \"This NFT doesn't belongs to this business.\");\r\n        uint256 _nftIndex = nftIdToIndex[_nftId];\r\n        if(businesses[_index].singleNftCount > 1){\r\n            uint256 _temp = businesses[_index].nftIds[_nftIndex];\r\n            businesses[_index].nftIds[_nftIndex] = businesses[_index].nftIds[businesses[_index].nftIds.length - 1];\r\n            businesses[_index].nftIds[businesses[_index].nftIds.length - 1] = _temp;\r\n            nftIdToIndex[businesses[_index].nftIds[_nftIndex]] = _nftIndex;\r\n        }\r\n        businesses[_index].nftIds.pop();\r\n        businesses[_index].singleNftCount = businesses[_index].singleNftCount - 1;\r\n        delete nftIdToIndex[_nftId];\r\n        delete nftIdToBusinessId[_nftId];\r\n        emit nftRemovedFromBusiness(_businessId, _nftId, businesses[_index].adminAddress);\r\n    }\r\n\r\n    /**\r\n    This methods updates the feePercent of the business by the provided fee percent.\r\n    @param _businessId - The id of the business whose fee percentage is to be updated.\r\n    @param _newFee - The updated fee percent.\r\n    */\r\n    function updateFeePercent(uint256 _businessId, uint256 _newFee) public{\r\n        uint256 _index = businessIdToIndex[_businessId];\r\n        require(msg.sender == businesses[_index].adminAddress, \"Only admin can update the fee percent.\");\r\n        businesses[_index].feePercent = _newFee; \r\n        emit businessFeeUpdated(_businessId, _newFee, businesses[_index].adminAddress);\r\n    }\r\n\r\n    /**\r\n    This method adds an employee to a business.\r\n    @param _businessId - The id of the business in which an employee is to be added.\r\n    @param _newEmployee - The address of the new eployee.\r\n    */\r\n    function addEmployee(uint256 _businessId, address _newEmployee) public {\r\n        uint256 _index = businessIdToIndex[_businessId];\r\n        require(msg.sender == businesses[_index].adminAddress, \"Only admin can add an employee in the business.\");\r\n        require(employeeAddressToBusinessId[_newEmployee] == 0, \"This address is already an employee in a business.\");\r\n        businesses[_index].employees.push(_newEmployee);\r\n        employeeAddressToBusinessId[_newEmployee] = _businessId;\r\n        employeeAddressToIndex[_newEmployee] = businesses[_index].employees.length - 1;\r\n        emit employeeAddedToBusiness(_businessId, _newEmployee, businesses[_index].adminAddress);\r\n    }\r\n\r\n    /**\r\n    This methods removes an employeee from a business.\r\n    @param _businessId - The id of the business from which employee is to be removed.\r\n    @param _employeeAddress - The address of the employee which is to be removed.\r\n    */\r\n    function removeEmployee(uint256 _businessId, address _employeeAddress) public {\r\n        uint256 _index = businessIdToIndex[_businessId];\r\n        require(msg.sender == businesses[_index].adminAddress, \"Only admin can remove an employee from the business.\");\r\n        require(_businessId == employeeAddressToBusinessId[_employeeAddress], \"Employee doesn't exist in this business.\");\r\n        uint256 _employeeIndex = employeeAddressToIndex[_employeeAddress];\r\n        address _temp = businesses[_index].employees[_employeeIndex];\r\n        businesses[_index].employees[_employeeIndex] = businesses[_index].employees[businesses[_index].employees.length - 1];\r\n        businesses[_index].employees[businesses[_index].employees.length - 1] = _temp;\r\n        businesses[_index].employees.pop();\r\n        delete employeeAddressToIndex[_employeeAddress];\r\n        delete employeeAddressToBusinessId[_employeeAddress];\r\n        if(businesses[_index].employees.length != 0){\r\n            employeeAddressToIndex[businesses[_index].employees[_employeeIndex]] = _employeeIndex;\r\n        }\r\n        emit employeeRemovedFromBusiness(_businessId, _employeeAddress, businesses[_index].adminAddress);\r\n    }\r\n\r\n    /**\r\n    This method fetches the collections owned by a business.\r\n    @param _businessId - The id of the business whose collections are to be fetched.\r\n    @return - An array containing ids of all collections owned by the business.\r\n    */\r\n    function getCollectionsInBusiness(uint256 _businessId) public view returns(uint256[] memory){\r\n        require(businessCount != 0, \"Invalid business ID.\");\r\n        uint256 _index = businessIdToIndex[_businessId];\r\n        return businesses[_index].collectionIds;\r\n    }\r\n\r\n    /**\r\n    This method fetches the nfts owned by a business.\r\n    @param _businessId - The id of the business whose nfts are to be fetched.\r\n    @return - An array containing ids of all single nfts owned by the business.\r\n    */\r\n    function getNftsInBusiness(uint256 _businessId) public view returns(uint256[] memory){\r\n        require(businessCount != 0, \"Invalid business ID.\");\r\n        uint256 _index = businessIdToIndex[_businessId];\r\n        return businesses[_index].nftIds;\r\n    }\r\n\r\n    /**\r\n    This method fetches all the employee addresses that are working in a business.\r\n    @param _businessId - The id of the business from which employee addresses are to be fetched.\r\n    @return - An array containing addresses of all employees in the business.\r\n    */\r\n    function getEmployeesinBusiness(uint256 _businessId) public view returns(address[] memory){\r\n        require(businessCount != 0, \"Invalid business ID.\");\r\n        uint256 _index = businessIdToIndex[_businessId];\r\n        return businesses[_index].employees;\r\n    }\r\n\r\n    /**\r\n    This method checks whether a collection or an nft is owned by the admin or any of the employees or not.\r\n    @param _bId - The id of the business to be checked.\r\n    @param _id - The id of the collection or NFT to checked.\r\n    @param isNft - The id is an nft or a collection. True values signifies nft and false signifies collection.\r\n    @return - Whether the id belongs to the business admin or an employee or not.\r\n    */\r\n    function collectionOrNftOwnedByOwnerOrEmployee(uint256 _bId, uint256 _id, bool isNft) public view returns(bool){\r\n        address _owner;\r\n        if(isNft){\r\n            _owner = nftContractInstance.getOwnerByNftId(_id);\r\n        } else {\r\n            _owner = collectionsContractInstance.getOwnerByCollectionId(_id);\r\n        }\r\n        if(businessCount == 0){\r\n            return false;\r\n        }\r\n        uint256 _index = businessIdToIndex[_bId];\r\n        if(_owner == businesses[_index].adminAddress){\r\n            return true;\r\n        }\r\n        for(uint256 _i = 0; _i < businesses[_index].employees.length; _i++){\r\n            if(_owner == businesses[_index].employees[_i]){\r\n                return true;\r\n            }\r\n        }\r\n        return false;\r\n    }\r\n}",
  "sourcePath": "C:\\Users\\91805\\Desktop\\apynif\\src\\contracts\\Businesses.sol",
  "compiler": {
    "name": "solc",
    "version": "0.8.7+commit.e28d00a7.Emscripten.clang"
  },
  "schemaVersion": "3.4.8",
  "updatedAt": "2022-07-24T10:24:13.770Z",
  "networkType": "ethereum",
  "devdoc": {
    "author": ": Hritik Raheja",
    "kind": "dev",
    "methods": {
      "addBusiness(string,string,uint256,address,address[])": {
        "params": {
          "_adminAddress": "- The address of the business admin.",
          "_bLogoUri": "- The logo uri of the business to be created.",
          "_bName": "- The name of the business to be created.",
          "_employees": "- An array consisting of addresses of all employees in the business.",
          "_feePercent": "- The fee percentage charged by the business to be created."
        },
        "returns": {
          "_0": "This method returns the id of the newly created business."
        }
      },
      "addCollectionToBusiness(uint256,uint256)": {
        "params": {
          "_businessId": "- The id of the business in which the collection is to be added.",
          "_collectionId": "- The id of the collection which is to be added."
        }
      },
      "addEmployee(uint256,address)": {
        "params": {
          "_businessId": "- The id of the business in which an employee is to be added.",
          "_newEmployee": "- The address of the new eployee."
        }
      },
      "addMultipleCollectionsToBusiness(uint256,uint256[])": {
        "params": {
          "_businessId": "- The id of the business in which the collections are to be added.",
          "_collectionIds": "- An array of ids of all collections which are to be added."
        }
      },
      "addMultipleNftsToBusiness(uint256,uint256[])": {
        "params": {
          "_businessId": "- The id of the business in which the nfts are to be added.",
          "_nftIds": "- An array of ids of all nfts which are to be added."
        }
      },
      "addNftToBusiness(uint256,uint256)": {
        "params": {
          "_businessId": "- The id of the business in which the nft is to be added.",
          "_nftId": "- The id of the nft which is to be added."
        }
      },
      "collectionOrNftOwnedByOwnerOrEmployee(uint256,uint256,bool)": {
        "params": {
          "_bId": "- The id of the business to be checked.",
          "_id": "- The id of the collection or NFT to checked.",
          "isNft": "- The id is an nft or a collection. True values signifies nft and false signifies collection."
        },
        "returns": {
          "_0": "- Whether the id belongs to the business admin or an employee or not."
        }
      },
      "createCollectionInBusiness(uint256,string,string,string,string,uint256[],string)": {
        "params": {
          "_businessId": "- The id of the business in which the collection is to be created.",
          "_category": "- The category of the collection to be created.",
          "_collectionCoverImageUri": "- The uri of the collection's cover image.",
          "_collectionDescription": "- The description of the collection which is to be created.",
          "_collectionName": "- The name of the collection which is to be created in the business.",
          "_collectionOwnerName": "- The name of the collection's owner.",
          "_tokenIds": "- An array containing ids of all nfts that are present in the collection."
        }
      },
      "createNftInBusiness(uint256,string,uint256,string)": {
        "params": {
          "_businessId": "- The id of the business in which the nft is to be added.",
          "_category": "- The category of the nft that is to be minted and added to the business.",
          "_price": "-  The price of the nft that is to be minted and added to the business.",
          "_tokenUri": "- The token uri of the nft that is to be minted and added to the business."
        }
      },
      "getCollectionsInBusiness(uint256)": {
        "params": {
          "_businessId": "- The id of the business whose collections are to be fetched."
        },
        "returns": {
          "_0": "- An array containing ids of all collections owned by the business."
        }
      },
      "getEmployeesinBusiness(uint256)": {
        "params": {
          "_businessId": "- The id of the business from which employee addresses are to be fetched."
        },
        "returns": {
          "_0": "- An array containing addresses of all employees in the business."
        }
      },
      "getNftsInBusiness(uint256)": {
        "params": {
          "_businessId": "- The id of the business whose nfts are to be fetched."
        },
        "returns": {
          "_0": "- An array containing ids of all single nfts owned by the business."
        }
      },
      "removeBusiness(uint256)": {
        "params": {
          "_businessId": "- The id of the business to be removed."
        }
      },
      "removeCollectionFromBusiness(uint256,uint256)": {
        "params": {
          "_businessId": "- The id of the business from which the collection is to be removed.",
          "_collectionId": "- The id of the collection which is to be removed."
        }
      },
      "removeEmployee(uint256,address)": {
        "params": {
          "_businessId": "- The id of the business from which employee is to be removed.",
          "_employeeAddress": "- The address of the employee which is to be removed."
        }
      },
      "removeNftFromBusiness(uint256,uint256)": {
        "params": {
          "_businessId": "- The id of the business from which the nft is to be removed.",
          "_nftId": "- The tokenId of the nft which is to be removed."
        }
      },
      "setMarketplaceAddress(address)": {
        "params": {
          "_marketplaceContractAddress": "- The address of the deployed marketplace contract. "
        }
      },
      "updateFeePercent(uint256,uint256)": {
        "params": {
          "_businessId": "- The id of the business whose fee percentage is to be updated.",
          "_newFee": "- The updated fee percent."
        }
      }
    },
    "version": 1
  },
  "userdoc": {
    "kind": "user",
    "methods": {
      "addBusiness(string,string,uint256,address,address[])": {
        "notice": "This method creates a business, increments the businessCount, generates a new and unique business Id, adds the business to the businesses array and maintains the mapping of  business Id to its corresponding index in the businesses array."
      },
      "addCollectionToBusiness(uint256,uint256)": {
        "notice": "This method adds an already listed collection to a business."
      },
      "addEmployee(uint256,address)": {
        "notice": "This method adds an employee to a business."
      },
      "addMultipleCollectionsToBusiness(uint256,uint256[])": {
        "notice": "This methods adds a number of already listed collections to a business."
      },
      "addMultipleNftsToBusiness(uint256,uint256[])": {
        "notice": "This methods adds a number of already listed nfts to a business."
      },
      "addNftToBusiness(uint256,uint256)": {
        "notice": "This method adds an already listed NFT to a business."
      },
      "collectionOrNftOwnedByOwnerOrEmployee(uint256,uint256,bool)": {
        "notice": "This method checks whether a collection or an nft is owned by the admin or any of the employees or not."
      },
      "constructor": {
        "notice": "The deployed NFT and Collections smart contract's addresses are provided as parameters in the constructor in order to create the instances of the contracts."
      },
      "createCollectionInBusiness(uint256,string,string,string,string,uint256[],string)": {
        "notice": "This methods creates a new collection and adds it to a business."
      },
      "createNftInBusiness(uint256,string,uint256,string)": {
        "notice": "This methods creates a new nft and adds it to a business."
      },
      "getCollectionsInBusiness(uint256)": {
        "notice": "This method fetches the collections owned by a business."
      },
      "getEmployeesinBusiness(uint256)": {
        "notice": "This method fetches all the employee addresses that are working in a business."
      },
      "getNftsInBusiness(uint256)": {
        "notice": "This method fetches the nfts owned by a business."
      },
      "removeBusiness(uint256)": {
        "notice": "This method removes a business from the marketplace, i.e., it removes the business from the businesses array, decrements the businessCount and removes the businessIdToindex  mapping for the particular business Id."
      },
      "removeCollectionFromBusiness(uint256,uint256)": {
        "notice": "This method removes a collection from the business."
      },
      "removeEmployee(uint256,address)": {
        "notice": "This methods removes an employeee from a business."
      },
      "removeNftFromBusiness(uint256,uint256)": {
        "notice": "This method removes a nft from the business."
      },
      "setMarketplaceAddress(address)": {
        "notice": "This method sets the marketplace contract address for super admin validations. This method is called for the first time when the marketplace contract is created, and  can be called again but only by the super admin itself."
      },
      "updateFeePercent(uint256,uint256)": {
        "notice": "This methods updates the feePercent of the business by the provided fee percent."
      }
    },
    "notice": "This contract stores the details of all the businesses, that are defined by the Definitions smart contract, generates ids for new businesses and maintains which  collection/nft is owned by which business. It supports the admin to add/remove  collections/nfts and manipulating the same.",
    "version": 1
  }
}