{
  "contractName": "Collections",
  "abi": [
    {
      "inputs": [
        {
          "internalType": "address",
          "name": "_nftContractAddress",
          "type": "address"
        }
      ],
      "stateMutability": "nonpayable",
      "type": "constructor"
    },
    {
      "anonymous": false,
      "inputs": [
        {
          "indexed": false,
          "internalType": "uint256",
          "name": "collectionId",
          "type": "uint256"
        },
        {
          "indexed": false,
          "internalType": "string",
          "name": "collectionName",
          "type": "string"
        },
        {
          "indexed": false,
          "internalType": "string",
          "name": "collectionDesc",
          "type": "string"
        },
        {
          "indexed": false,
          "internalType": "string",
          "name": "category",
          "type": "string"
        },
        {
          "indexed": false,
          "internalType": "string",
          "name": "ownerName",
          "type": "string"
        },
        {
          "indexed": false,
          "internalType": "address",
          "name": "ownerAddress",
          "type": "address"
        }
      ],
      "name": "collectionCreated",
      "type": "event"
    },
    {
      "anonymous": false,
      "inputs": [
        {
          "indexed": false,
          "internalType": "uint256",
          "name": "collectionId",
          "type": "uint256"
        },
        {
          "indexed": false,
          "internalType": "address",
          "name": "ownerAddress",
          "type": "address"
        }
      ],
      "name": "collectionDeleted",
      "type": "event"
    },
    {
      "anonymous": false,
      "inputs": [
        {
          "indexed": false,
          "internalType": "uint256",
          "name": "collectionId",
          "type": "uint256"
        },
        {
          "indexed": false,
          "internalType": "address",
          "name": "ownerAddress",
          "type": "address"
        }
      ],
      "name": "collectionListed",
      "type": "event"
    },
    {
      "anonymous": false,
      "inputs": [
        {
          "indexed": false,
          "internalType": "uint256",
          "name": "collectionId",
          "type": "uint256"
        },
        {
          "indexed": false,
          "internalType": "address",
          "name": "ownerAddress",
          "type": "address"
        }
      ],
      "name": "collectionUnlisted",
      "type": "event"
    },
    {
      "anonymous": false,
      "inputs": [
        {
          "indexed": false,
          "internalType": "uint256",
          "name": "collectionId",
          "type": "uint256"
        },
        {
          "indexed": false,
          "internalType": "uint256",
          "name": "nftId",
          "type": "uint256"
        },
        {
          "indexed": false,
          "internalType": "address",
          "name": "ownerAddress",
          "type": "address"
        }
      ],
      "name": "nftAddedToCollection",
      "type": "event"
    },
    {
      "anonymous": false,
      "inputs": [
        {
          "indexed": false,
          "internalType": "uint256",
          "name": "collectionId",
          "type": "uint256"
        },
        {
          "indexed": false,
          "internalType": "uint256",
          "name": "nftId",
          "type": "uint256"
        },
        {
          "indexed": false,
          "internalType": "address",
          "name": "ownerAddress",
          "type": "address"
        }
      ],
      "name": "nftRemovedFromCollection",
      "type": "event"
    },
    {
      "inputs": [],
      "name": "_collectionIdGenerator",
      "outputs": [
        {
          "internalType": "uint256",
          "name": "_value",
          "type": "uint256"
        }
      ],
      "stateMutability": "view",
      "type": "function",
      "constant": true
    },
    {
      "inputs": [
        {
          "internalType": "uint256",
          "name": "",
          "type": "uint256"
        }
      ],
      "name": "allCollections",
      "outputs": [
        {
          "internalType": "uint256",
          "name": "collectionId",
          "type": "uint256"
        },
        {
          "internalType": "string",
          "name": "collectionName",
          "type": "string"
        },
        {
          "internalType": "string",
          "name": "collectionCoverImageUri",
          "type": "string"
        },
        {
          "internalType": "string",
          "name": "collectionDescription",
          "type": "string"
        },
        {
          "internalType": "string",
          "name": "collectionOwnerName",
          "type": "string"
        },
        {
          "internalType": "address payable",
          "name": "collectionOwnerAddress",
          "type": "address"
        },
        {
          "internalType": "uint256",
          "name": "nftCount",
          "type": "uint256"
        },
        {
          "internalType": "bool",
          "name": "isListed",
          "type": "bool"
        },
        {
          "internalType": "string",
          "name": "category",
          "type": "string"
        }
      ],
      "stateMutability": "view",
      "type": "function",
      "constant": true
    },
    {
      "inputs": [],
      "name": "collectionCount",
      "outputs": [
        {
          "internalType": "uint256",
          "name": "",
          "type": "uint256"
        }
      ],
      "stateMutability": "view",
      "type": "function",
      "constant": true
    },
    {
      "inputs": [
        {
          "internalType": "uint256",
          "name": "",
          "type": "uint256"
        }
      ],
      "name": "idToIndex",
      "outputs": [
        {
          "internalType": "uint256",
          "name": "",
          "type": "uint256"
        }
      ],
      "stateMutability": "view",
      "type": "function",
      "constant": true
    },
    {
      "inputs": [
        {
          "internalType": "uint256",
          "name": "",
          "type": "uint256"
        }
      ],
      "name": "nftIdToCollectionId",
      "outputs": [
        {
          "internalType": "uint256",
          "name": "",
          "type": "uint256"
        }
      ],
      "stateMutability": "view",
      "type": "function",
      "constant": true
    },
    {
      "inputs": [
        {
          "internalType": "address",
          "name": "_contractAddress",
          "type": "address"
        }
      ],
      "name": "setMarketplaceContractAddress",
      "outputs": [],
      "stateMutability": "nonpayable",
      "type": "function"
    },
    {
      "inputs": [
        {
          "internalType": "string",
          "name": "_collectionName",
          "type": "string"
        },
        {
          "internalType": "string",
          "name": "_collectionCoverImageUri",
          "type": "string"
        },
        {
          "internalType": "string",
          "name": "_collectionDescription",
          "type": "string"
        },
        {
          "internalType": "string",
          "name": "_collectionOwnerName",
          "type": "string"
        },
        {
          "internalType": "uint256[]",
          "name": "_tokenIds",
          "type": "uint256[]"
        },
        {
          "internalType": "string",
          "name": "_category",
          "type": "string"
        }
      ],
      "name": "createCollection",
      "outputs": [
        {
          "internalType": "uint256",
          "name": "",
          "type": "uint256"
        }
      ],
      "stateMutability": "nonpayable",
      "type": "function"
    },
    {
      "inputs": [
        {
          "internalType": "string",
          "name": "_collectionName",
          "type": "string"
        },
        {
          "internalType": "string",
          "name": "_collectionCoverImageUri",
          "type": "string"
        },
        {
          "internalType": "string",
          "name": "_collectionDescription",
          "type": "string"
        },
        {
          "internalType": "string",
          "name": "_collectionOwnerName",
          "type": "string"
        },
        {
          "internalType": "uint256[]",
          "name": "_tokenIds",
          "type": "uint256[]"
        },
        {
          "internalType": "string",
          "name": "_category",
          "type": "string"
        },
        {
          "internalType": "address",
          "name": "_sender",
          "type": "address"
        }
      ],
      "name": "createCollection",
      "outputs": [
        {
          "internalType": "uint256",
          "name": "",
          "type": "uint256"
        }
      ],
      "stateMutability": "nonpayable",
      "type": "function"
    },
    {
      "inputs": [
        {
          "internalType": "uint256",
          "name": "_collectionId",
          "type": "uint256"
        }
      ],
      "name": "getNftIdsByCollectionId",
      "outputs": [
        {
          "internalType": "uint256[]",
          "name": "",
          "type": "uint256[]"
        }
      ],
      "stateMutability": "view",
      "type": "function",
      "constant": true
    },
    {
      "inputs": [
        {
          "internalType": "uint256",
          "name": "_collectionId",
          "type": "uint256"
        }
      ],
      "name": "deleteCollection",
      "outputs": [],
      "stateMutability": "nonpayable",
      "type": "function"
    },
    {
      "inputs": [
        {
          "internalType": "address",
          "name": "_sender",
          "type": "address"
        },
        {
          "internalType": "uint256",
          "name": "_collectionId",
          "type": "uint256"
        }
      ],
      "name": "listCollection",
      "outputs": [],
      "stateMutability": "nonpayable",
      "type": "function"
    },
    {
      "inputs": [
        {
          "internalType": "address",
          "name": "_sender",
          "type": "address"
        },
        {
          "internalType": "uint256",
          "name": "_collectionId",
          "type": "uint256"
        }
      ],
      "name": "unlistCollection",
      "outputs": [],
      "stateMutability": "nonpayable",
      "type": "function"
    },
    {
      "inputs": [
        {
          "internalType": "uint256",
          "name": "_collectionId",
          "type": "uint256"
        },
        {
          "internalType": "uint256",
          "name": "_listedNftId",
          "type": "uint256"
        }
      ],
      "name": "addNftToCollection",
      "outputs": [],
      "stateMutability": "nonpayable",
      "type": "function"
    },
    {
      "inputs": [
        {
          "internalType": "uint256",
          "name": "_collectionId",
          "type": "uint256"
        },
        {
          "internalType": "uint256[]",
          "name": "_listedNftIds",
          "type": "uint256[]"
        }
      ],
      "name": "addMultipleNftsToCollection",
      "outputs": [],
      "stateMutability": "nonpayable",
      "type": "function"
    },
    {
      "inputs": [
        {
          "internalType": "uint256",
          "name": "_collectionId",
          "type": "uint256"
        },
        {
          "internalType": "uint256",
          "name": "_nftId",
          "type": "uint256"
        }
      ],
      "name": "removeNftFromCollection",
      "outputs": [],
      "stateMutability": "nonpayable",
      "type": "function"
    },
    {
      "inputs": [
        {
          "internalType": "address",
          "name": "_owner",
          "type": "address"
        }
      ],
      "name": "getAllCollectionsByOwnerAddress",
      "outputs": [
        {
          "internalType": "uint256[]",
          "name": "",
          "type": "uint256[]"
        }
      ],
      "stateMutability": "view",
      "type": "function",
      "constant": true
    },
    {
      "inputs": [
        {
          "internalType": "uint256",
          "name": "_collId",
          "type": "uint256"
        }
      ],
      "name": "getOwnerByCollectionId",
      "outputs": [
        {
          "internalType": "address",
          "name": "",
          "type": "address"
        }
      ],
      "stateMutability": "view",
      "type": "function",
      "constant": true
    }
  ],
  "bytecode": "0x60806040523480156200001157600080fd5b5060405162003ee538038062003ee583398181016040528101906200003791906200009e565b600160008190555080600660006101000a81548173ffffffffffffffffffffffffffffffffffffffff021916908373ffffffffffffffffffffffffffffffffffffffff1602179055505062000123565b600081519050620000988162000109565b92915050565b600060208284031215620000b757620000b662000104565b5b6000620000c78482850162000087565b91505092915050565b6000620000dd82620000e4565b9050919050565b600073ffffffffffffffffffffffffffffffffffffffff82169050919050565b600080fd5b6200011481620000d0565b81146200012057600080fd5b50565b613db280620001336000396000f3fe608060405234801561001057600080fd5b506004361061010b5760003560e01c8063a42c587a116100a2578063dc2d0f6811610071578063dc2d0f68146102e4578063e238c3f214610300578063e7bc92cc14610330578063fa6a470e14610360578063faa719b51461037c5761010b565b8063a42c587a1461024a578063b0ff460314610266578063d2d8de2814610296578063d57f966b146102c65761010b565b806384d05523116100de57806384d05523146101c457806386594324146101e05780638f6fe35b146101fc578063a04ea2191461021a5761010b565b8063167ef4951461011057806325b34460146101485780633df6db72146101785780634ad32030146101a8575b600080fd5b61012a60048036038101906101259190612f0e565b610398565b60405161013f99989796959493929190613565565b60405180910390f35b610162600480360381019061015d9190612c8f565b6106cb565b60405161016f9190613427565b60405180910390f35b610192600480360381019061018d9190612f0e565b610948565b60405161019f9190613427565b60405180910390f35b6101c260048036038101906101bd9190612bc8565b610960565b005b6101de60048036038101906101d99190612f97565b610bf7565b005b6101fa60048036038101906101f59190612f3b565b611148565b005b610204611190565b6040516102119190613427565b60405180910390f35b610234600480360381019061022f9190612f0e565b61119c565b6040516102419190613427565b60405180910390f35b610264600480360381019061025f9190612f0e565b6111b4565b005b610280600480360381019061027b9190612f0e565b611b32565b60405161028d9190613261565b60405180910390f35b6102b060048036038101906102ab9190612dc4565b611b99565b6040516102bd9190613427565b60405180910390f35b6102ce611e11565b6040516102db9190613427565b60405180910390f35b6102fe60048036038101906102f99190612c22565b611e17565b005b61031a60048036038101906103159190612f0e565b611fd1565b60405161032791906132a5565b60405180910390f35b61034a60048036038101906103459190612bc8565b6120da565b60405161035791906132a5565b60405180910390f35b61037a60048036038101906103759190612f97565b6121d9565b005b61039660048036038101906103919190612c22565b6125e5565b005b600381815481106103a857600080fd5b90600052602060002090600a02016000915090508060000154908060010180546103d1906138a9565b80601f01602080910402602001604051908101604052809291908181526020018280546103fd906138a9565b801561044a5780601f1061041f5761010080835404028352916020019161044a565b820191906000526020600020905b81548152906001019060200180831161042d57829003601f168201915b50505050509080600201805461045f906138a9565b80601f016020809104026020016040519081016040528092919081815260200182805461048b906138a9565b80156104d85780601f106104ad576101008083540402835291602001916104d8565b820191906000526020600020905b8154815290600101906020018083116104bb57829003601f168201915b5050505050908060030180546104ed906138a9565b80601f0160208091040260200160405190810160405280929190818152602001828054610519906138a9565b80156105665780601f1061053b57610100808354040283529160200191610566565b820191906000526020600020905b81548152906001019060200180831161054957829003601f168201915b50505050509080600401805461057b906138a9565b80601f01602080910402602001604051908101604052809291908181526020018280546105a7906138a9565b80156105f45780601f106105c9576101008083540402835291602001916105f4565b820191906000526020600020905b8154815290600101906020018083116105d757829003601f168201915b5050505050908060050160009054906101000a900473ffffffffffffffffffffffffffffffffffffffff16908060060154908060080160009054906101000a900460ff1690806009018054610648906138a9565b80601f0160208091040260200160405190810160405280929190818152602001828054610674906138a9565b80156106c15780601f10610696576101008083540402835291602001916106c1565b820191906000526020600020905b8154815290600101906020018083116106a457829003601f168201915b5050505050905089565b60006106d76001612812565b600033905060036040518061014001604052806106f46001612828565b81526020018a81526020018981526020018881526020018781526020018373ffffffffffffffffffffffffffffffffffffffff168152602001865181526020018681526020016001151581526020018581525090806001815401808255809150506001900390600052602060002090600a0201600090919091909150600082015181600001556020820151816001019080519060200190610796929190612836565b5060408201518160020190805190602001906107b3929190612836565b5060608201518160030190805190602001906107d0929190612836565b5060808201518160040190805190602001906107ed929190612836565b5060a08201518160050160006101000a81548173ffffffffffffffffffffffffffffffffffffffff021916908373ffffffffffffffffffffffffffffffffffffffff16021790555060c0820151816006015560e082015181600701908051906020019061085b9291906128bc565b506101008201518160080160006101000a81548160ff02191690831515021790555061012082015181600901908051906020019061089a929190612836565b505050600260008154809291906108b09061390c565b919050555060016003805490506108c79190613779565b600460006108d56001612828565b8152602001908152602001600020819055507fe918163128464812870f64665b7de6f01bd10106639776c05ad45153a7c58cd06109126001612828565b8988868986604051610929969594939291906134e8565b60405180910390a161093b6001612828565b9150509695505050505050565b60046020528060005260406000206000915090505481565b600260005414156109a6576040517f08c379a000000000000000000000000000000000000000000000000000000000815260040161099d90613407565b60405180910390fd5b6002600081905550600073ffffffffffffffffffffffffffffffffffffffff16600760009054906101000a900473ffffffffffffffffffffffffffffffffffffffff1673ffffffffffffffffffffffffffffffffffffffff1614610b6a57600860009054906101000a900473ffffffffffffffffffffffffffffffffffffffff1673ffffffffffffffffffffffffffffffffffffffff166329575f6a6040518163ffffffff1660e01b815260040160206040518083038186803b158015610a6c57600080fd5b505afa158015610a80573d6000803e3d6000fd5b505050506040513d601f19601f82011682018060405250810190610aa49190612bf5565b73ffffffffffffffffffffffffffffffffffffffff163373ffffffffffffffffffffffffffffffffffffffff161480610b2a5750600760009054906101000a900473ffffffffffffffffffffffffffffffffffffffff1673ffffffffffffffffffffffffffffffffffffffff163373ffffffffffffffffffffffffffffffffffffffff16145b610b69576040517f08c379a0000000000000000000000000000000000000000000000000000000008152600401610b6090613367565b60405180910390fd5b5b80600760006101000a81548173ffffffffffffffffffffffffffffffffffffffff021916908373ffffffffffffffffffffffffffffffffffffffff16021790555080600860006101000a81548173ffffffffffffffffffffffffffffffffffffffff021916908373ffffffffffffffffffffffffffffffffffffffff160217905550600160008190555050565b600060046000848152602001908152602001600020549050600081141580610c4357508260038281548110610c2f57610c2e6139e2565b5b90600052602060002090600a020160000154145b610c82576040517f08c379a0000000000000000000000000000000000000000000000000000000008152600401610c7990613307565b60405180910390fd5b60038181548110610c9657610c956139e2565b5b90600052602060002090600a020160050160009054906101000a900473ffffffffffffffffffffffffffffffffffffffff1673ffffffffffffffffffffffffffffffffffffffff163373ffffffffffffffffffffffffffffffffffffffff1614610d35576040517f08c379a0000000000000000000000000000000000000000000000000000000008152600401610d2c906133e7565b60405180910390fd5b6000806000905060005b60038481548110610d5357610d526139e2565b5b90600052602060002090600a020160060154811015610dd4578460038581548110610d8157610d806139e2565b5b90600052602060002090600a02016007018281548110610da457610da36139e2565b5b90600052602060002001541415610dc15780925060019150610dd4565b8080610dcc9061390c565b915050610d3f565b5080610e15576040517f08c379a0000000000000000000000000000000000000000000000000000000008152600401610e0c906133c7565b60405180910390fd5b600160038481548110610e2b57610e2a6139e2565b5b90600052602060002090600a0201600601541115610fba57600060038481548110610e5957610e586139e2565b5b90600052602060002090600a02016007018381548110610e7c57610e7b6139e2565b5b9060005260206000200154905060038481548110610e9d57610e9c6139e2565b5b90600052602060002090600a0201600701600160038681548110610ec457610ec36139e2565b5b90600052602060002090600a020160060154610ee09190613779565b81548110610ef157610ef06139e2565b5b906000526020600020015460038581548110610f1057610f0f6139e2565b5b90600052602060002090600a02016007018481548110610f3357610f326139e2565b5b90600052602060002001819055508060038581548110610f5657610f556139e2565b5b90600052602060002090600a0201600701600160038781548110610f7d57610f7c6139e2565b5b90600052602060002090600a020160060154610f999190613779565b81548110610faa57610fa96139e2565b5b9060005260206000200181905550505b60038381548110610fce57610fcd6139e2565b5b90600052602060002090600a0201600701805480610fef57610fee6139b3565b5b6001900381819060005260206000200160009055905560016003848154811061101b5761101a6139e2565b5b90600052602060002090600a0201600601546110379190613779565b6003848154811061104b5761104a6139e2565b5b90600052602060002090600a020160060181905550600660009054906101000a900473ffffffffffffffffffffffffffffffffffffffff1673ffffffffffffffffffffffffffffffffffffffff16639d7a84b733866040518363ffffffff1660e01b81526004016110bd92919061327c565b600060405180830381600087803b1580156110d757600080fd5b505af11580156110eb573d6000803e3d6000fd5b5050505060056000858152602001908152602001600020600090557fefc939b525d407c9556092a75ee1f9759b21d5d5bc1fa99bff0bb16afaa359af85853360405161113993929190613615565b60405180910390a15050505050565b60005b815181101561118b576111788383838151811061116b5761116a6139e2565b5b60200260200101516121d9565b80806111839061390c565b91505061114b565b505050565b60018060000154905081565b60056020528060005260406000206000915090505481565b6000600460008381526020019081526020016000205490506000600382815481106111e2576111e16139e2565b5b90600052602060002090600a02016006015414611234576040517f08c379a000000000000000000000000000000000000000000000000000000000815260040161122b90613347565b60405180910390fd5b60008114158061126857508160038281548110611254576112536139e2565b5b90600052602060002090600a020160000154145b6112a7576040517f08c379a000000000000000000000000000000000000000000000000000000000815260040161129e90613307565b60405180910390fd5b600160038054905011156119f0576000600382815481106112cb576112ca6139e2565b5b90600052602060002090600a020160405180610140016040529081600082015481526020016001820180546112ff906138a9565b80601f016020809104026020016040519081016040528092919081815260200182805461132b906138a9565b80156113785780601f1061134d57610100808354040283529160200191611378565b820191906000526020600020905b81548152906001019060200180831161135b57829003601f168201915b50505050508152602001600282018054611391906138a9565b80601f01602080910402602001604051908101604052809291908181526020018280546113bd906138a9565b801561140a5780601f106113df5761010080835404028352916020019161140a565b820191906000526020600020905b8154815290600101906020018083116113ed57829003601f168201915b50505050508152602001600382018054611423906138a9565b80601f016020809104026020016040519081016040528092919081815260200182805461144f906138a9565b801561149c5780601f106114715761010080835404028352916020019161149c565b820191906000526020600020905b81548152906001019060200180831161147f57829003601f168201915b505050505081526020016004820180546114b5906138a9565b80601f01602080910402602001604051908101604052809291908181526020018280546114e1906138a9565b801561152e5780601f106115035761010080835404028352916020019161152e565b820191906000526020600020905b81548152906001019060200180831161151157829003601f168201915b505050505081526020016005820160009054906101000a900473ffffffffffffffffffffffffffffffffffffffff1673ffffffffffffffffffffffffffffffffffffffff1673ffffffffffffffffffffffffffffffffffffffff16815260200160068201548152602001600782018054806020026020016040519081016040528092919081815260200182805480156115e657602002820191906000526020600020905b8154815260200190600101908083116115d2575b505050505081526020016008820160009054906101000a900460ff1615151515815260200160098201805461161a906138a9565b80601f0160208091040260200160405190810160405280929190818152602001828054611646906138a9565b80156116935780601f1061166857610100808354040283529160200191611693565b820191906000526020600020905b81548152906001019060200180831161167657829003601f168201915b5050505050815250509050600360016002546116af9190613779565b815481106116c0576116bf6139e2565b5b90600052602060002090600a0201600383815481106116e2576116e16139e2565b5b90600052602060002090600a020160008201548160000155600182018160010190805461170e906138a9565b611719929190612909565b50600282018160020190805461172e906138a9565b611739929190612909565b50600382018160030190805461174e906138a9565b611759929190612909565b50600482018160040190805461176e906138a9565b611779929190612909565b506005820160009054906101000a900473ffffffffffffffffffffffffffffffffffffffff168160050160006101000a81548173ffffffffffffffffffffffffffffffffffffffff021916908373ffffffffffffffffffffffffffffffffffffffff160217905550600682015481600601556007820181600701908054611801929190612996565b506008820160009054906101000a900460ff168160080160006101000a81548160ff0219169083151502179055506009820181600901908054611843906138a9565b61184e929190612909565b5090505080600360016002546118649190613779565b81548110611875576118746139e2565b5b90600052602060002090600a02016000820151816000015560208201518160010190805190602001906118a9929190612836565b5060408201518160020190805190602001906118c6929190612836565b5060608201518160030190805190602001906118e3929190612836565b506080820151816004019080519060200190611900929190612836565b5060a08201518160050160006101000a81548173ffffffffffffffffffffffffffffffffffffffff021916908373ffffffffffffffffffffffffffffffffffffffff16021790555060c0820151816006015560e082015181600701908051906020019061196e9291906128bc565b506101008201518160080160006101000a81548160ff0219169083151502179055506101208201518160090190805190602001906119ad929190612836565b509050508160046000600385815481106119ca576119c96139e2565b5b90600052602060002090600a020160000154815260200190815260200160002081905550505b6003805480611a0257611a016139b3565b5b60019003818190600052602060002090600a0201600080820160009055600182016000611a2f91906129e8565b600282016000611a3f91906129e8565b600382016000611a4f91906129e8565b600482016000611a5f91906129e8565b6005820160006101000a81549073ffffffffffffffffffffffffffffffffffffffff02191690556006820160009055600782016000611a9e9190612a28565b6008820160006101000a81549060ff0219169055600982016000611ac291906129e8565b5050905560026000815480929190611ad99061387f565b919050555060046000838152602001908152602001600020600090557f79058bfc47bfc4d042e8e67ffdfe679ef37be6a5acdb48148481cb8f8fdc2bd28233604051611b26929190613442565b60405180910390a15050565b6000806004600084815260200190815260200160002054905060038181548110611b5f57611b5e6139e2565b5b90600052602060002090600a020160050160009054906101000a900473ffffffffffffffffffffffffffffffffffffffff16915050919050565b6000611ba56001612812565b6003604051806101400160405280611bbd6001612828565b81526020018a81526020018981526020018881526020018781526020018473ffffffffffffffffffffffffffffffffffffffff168152602001865181526020018681526020016001151581526020018581525090806001815401808255809150506001900390600052602060002090600a0201600090919091909150600082015181600001556020820151816001019080519060200190611c5f929190612836565b506040820151816002019080519060200190611c7c929190612836565b506060820151816003019080519060200190611c99929190612836565b506080820151816004019080519060200190611cb6929190612836565b5060a08201518160050160006101000a81548173ffffffffffffffffffffffffffffffffffffffff021916908373ffffffffffffffffffffffffffffffffffffffff16021790555060c0820151816006015560e0820151816007019080519060200190611d249291906128bc565b506101008201518160080160006101000a81548160ff021916908315150217905550610120820151816009019080519060200190611d63929190612836565b50505060026000815480929190611d799061390c565b91905055506001600380549050611d909190613779565b60046000611d9e6001612828565b8152602001908152602001600020819055507fe918163128464812870f64665b7de6f01bd10106639776c05ad45153a7c58cd0611ddb6001612828565b8988868987604051611df29695949392919061346b565b60405180910390a1611e046001612828565b9050979650505050505050565b60025481565b600060046000838152602001908152602001600020549050600081141580611e6357508160038281548110611e4f57611e4e6139e2565b5b90600052602060002090600a020160000154145b611ea2576040517f08c379a0000000000000000000000000000000000000000000000000000000008152600401611e9990613307565b60405180910390fd5b60038181548110611eb657611eb56139e2565b5b90600052602060002090600a020160050160009054906101000a900473ffffffffffffffffffffffffffffffffffffffff1673ffffffffffffffffffffffffffffffffffffffff168373ffffffffffffffffffffffffffffffffffffffff1614611f55576040517f08c379a0000000000000000000000000000000000000000000000000000000008152600401611f4c906132c7565b60405180910390fd5b600060038281548110611f6b57611f6a6139e2565b5b90600052602060002090600a020160080160006101000a81548160ff0219169083151502179055507fc74bcb85eb78ceda1410ce6ce18b6abf344fad9c37584502e45ff5e3e7b3c6758284604051611fc4929190613442565b60405180910390a1505050565b606060006004600084815260200190815260200160002054905060008114158061201f5750826003828154811061200b5761200a6139e2565b5b90600052602060002090600a020160000154145b61205e576040517f08c379a0000000000000000000000000000000000000000000000000000000008152600401612055906132e7565b60405180910390fd5b60038181548110612072576120716139e2565b5b90600052602060002090600a02016007018054806020026020016040519081016040528092919081815260200182805480156120cd57602002820191906000526020600020905b8154815260200190600101908083116120b9575b5050505050915050919050565b6060806000805b6003805490508110156121ce578473ffffffffffffffffffffffffffffffffffffffff1660038281548110612119576121186139e2565b5b90600052602060002090600a020160050160009054906101000a900473ffffffffffffffffffffffffffffffffffffffff1673ffffffffffffffffffffffffffffffffffffffff1614156121bb576003818154811061217b5761217a6139e2565b5b90600052602060002090600a0201600001548383815181106121a05761219f6139e2565b5b60200260200101818152505081806121b79061390c565b9250505b80806121c69061390c565b9150506120e1565b508192505050919050565b6002600054141561221f576040517f08c379a000000000000000000000000000000000000000000000000000000000815260040161221690613407565b60405180910390fd5b60026000819055506000600460008481526020019081526020016000205490506000811415806122735750826003828154811061225f5761225e6139e2565b5b90600052602060002090600a020160000154145b6122b2576040517f08c379a00000000000000000000000000000000000000000000000000000000081526004016122a990613307565b60405180910390fd5b600381815481106122c6576122c56139e2565b5b90600052602060002090600a020160050160009054906101000a900473ffffffffffffffffffffffffffffffffffffffff1673ffffffffffffffffffffffffffffffffffffffff163373ffffffffffffffffffffffffffffffffffffffff1614612365576040517f08c379a000000000000000000000000000000000000000000000000000000000815260040161235c906133e7565b60405180910390fd5b600660009054906101000a900473ffffffffffffffffffffffffffffffffffffffff1673ffffffffffffffffffffffffffffffffffffffff16632376fada836040518263ffffffff1660e01b81526004016123c09190613427565b60206040518083038186803b1580156123d857600080fd5b505afa1580156123ec573d6000803e3d6000fd5b505050506040513d601f19601f820116820180604052508101906124109190612c62565b61244f576040517f08c379a0000000000000000000000000000000000000000000000000000000008152600401612446906133a7565b60405180910390fd5b600660009054906101000a900473ffffffffffffffffffffffffffffffffffffffff1673ffffffffffffffffffffffffffffffffffffffff1663b841b9dc33846040518363ffffffff1660e01b81526004016124ac92919061327c565b600060405180830381600087803b1580156124c657600080fd5b505af11580156124da573d6000803e3d6000fd5b50505050600381815481106124f2576124f16139e2565b5b90600052602060002090600a02016007018290806001815401808255809150506001900390600052602060002001600090919091909150556001600382815481106125405761253f6139e2565b5b90600052602060002090600a02016006015461255c9190613723565b600382815481106125705761256f6139e2565b5b90600052602060002090600a0201600601819055508260056000848152602001908152602001600020819055507f8a380170ddd94454cf7f08907ac08deea0972cb91c89022d29cfa1c5382cf8cc8383336040516125d093929190613615565b60405180910390a15060016000819055505050565b6000600460008381526020019081526020016000205490506000811415806126315750816003828154811061261d5761261c6139e2565b5b90600052602060002090600a020160000154145b612670576040517f08c379a000000000000000000000000000000000000000000000000000000000815260040161266790613307565b60405180910390fd5b60038181548110612684576126836139e2565b5b90600052602060002090600a020160050160009054906101000a900473ffffffffffffffffffffffffffffffffffffffff1673ffffffffffffffffffffffffffffffffffffffff168373ffffffffffffffffffffffffffffffffffffffff1614612723576040517f08c379a000000000000000000000000000000000000000000000000000000000815260040161271a90613387565b60405180910390fd5b60038181548110612737576127366139e2565b5b90600052602060002090600a020160080160009054906101000a900460ff1615612796576040517f08c379a000000000000000000000000000000000000000000000000000000000815260040161278d90613327565b60405180910390fd5b6001600382815481106127ac576127ab6139e2565b5b90600052602060002090600a020160080160006101000a81548160ff0219169083151502179055507f025a4eee0031e58be275e5af4bee523d341ce9efe4f18dc7b26d609800f0e9b38284604051612805929190613442565b60405180910390a1505050565b6001816000016000828254019250508190555050565b600081600001549050919050565b828054612842906138a9565b90600052602060002090601f01602090048101928261286457600085556128ab565b82601f1061287d57805160ff19168380011785556128ab565b828001600101855582156128ab579182015b828111156128aa57825182559160200191906001019061288f565b5b5090506128b89190612a49565b5090565b8280548282559060005260206000209081019282156128f8579160200282015b828111156128f75782518255916020019190600101906128dc565b5b5090506129059190612a49565b5090565b828054612915906138a9565b90600052602060002090601f0160209004810192826129375760008555612985565b82601f106129485780548555612985565b8280016001018555821561298557600052602060002091601f016020900482015b82811115612984578254825591600101919060010190612969565b5b5090506129929190612a49565b5090565b8280548282559060005260206000209081019282156129d75760005260206000209182015b828111156129d65782548255916001019190600101906129bb565b5b5090506129e49190612a49565b5090565b5080546129f4906138a9565b6000825580601f10612a065750612a25565b601f016020900490600052602060002090810190612a249190612a49565b5b50565b5080546000825590600052602060002090810190612a469190612a49565b50565b5b80821115612a62576000816000905550600101612a4a565b5090565b6000612a79612a7484613671565b61364c565b90508083825260208201905082856020860282011115612a9c57612a9b613a45565b5b60005b85811015612acc5781612ab28882612bb3565b845260208401935060208301925050600181019050612a9f565b5050509392505050565b6000612ae9612ae48461369d565b61364c565b905082815260208101848484011115612b0557612b04613a4a565b5b612b1084828561383d565b509392505050565b600081359050612b2781613d37565b92915050565b600081519050612b3c81613d37565b92915050565b600082601f830112612b5757612b56613a40565b5b8135612b67848260208601612a66565b91505092915050565b600081519050612b7f81613d4e565b92915050565b600082601f830112612b9a57612b99613a40565b5b8135612baa848260208601612ad6565b91505092915050565b600081359050612bc281613d65565b92915050565b600060208284031215612bde57612bdd613a54565b5b6000612bec84828501612b18565b91505092915050565b600060208284031215612c0b57612c0a613a54565b5b6000612c1984828501612b2d565b91505092915050565b60008060408385031215612c3957612c38613a54565b5b6000612c4785828601612b18565b9250506020612c5885828601612bb3565b9150509250929050565b600060208284031215612c7857612c77613a54565b5b6000612c8684828501612b70565b91505092915050565b60008060008060008060c08789031215612cac57612cab613a54565b5b600087013567ffffffffffffffff811115612cca57612cc9613a4f565b5b612cd689828a01612b85565b965050602087013567ffffffffffffffff811115612cf757612cf6613a4f565b5b612d0389828a01612b85565b955050604087013567ffffffffffffffff811115612d2457612d23613a4f565b5b612d3089828a01612b85565b945050606087013567ffffffffffffffff811115612d5157612d50613a4f565b5b612d5d89828a01612b85565b935050608087013567ffffffffffffffff811115612d7e57612d7d613a4f565b5b612d8a89828a01612b42565b92505060a087013567ffffffffffffffff811115612dab57612daa613a4f565b5b612db789828a01612b85565b9150509295509295509295565b600080600080600080600060e0888a031215612de357612de2613a54565b5b600088013567ffffffffffffffff811115612e0157612e00613a4f565b5b612e0d8a828b01612b85565b975050602088013567ffffffffffffffff811115612e2e57612e2d613a4f565b5b612e3a8a828b01612b85565b965050604088013567ffffffffffffffff811115612e5b57612e5a613a4f565b5b612e678a828b01612b85565b955050606088013567ffffffffffffffff811115612e8857612e87613a4f565b5b612e948a828b01612b85565b945050608088013567ffffffffffffffff811115612eb557612eb4613a4f565b5b612ec18a828b01612b42565b93505060a088013567ffffffffffffffff811115612ee257612ee1613a4f565b5b612eee8a828b01612b85565b92505060c0612eff8a828b01612b18565b91505092959891949750929550565b600060208284031215612f2457612f23613a54565b5b6000612f3284828501612bb3565b91505092915050565b60008060408385031215612f5257612f51613a54565b5b6000612f6085828601612bb3565b925050602083013567ffffffffffffffff811115612f8157612f80613a4f565b5b612f8d85828601612b42565b9150509250929050565b60008060408385031215612fae57612fad613a54565b5b6000612fbc85828601612bb3565b9250506020612fcd85828601612bb3565b9150509250929050565b6000612fe38383613243565b60208301905092915050565b612ff881613807565b82525050565b613007816137bf565b82525050565b613016816137ad565b82525050565b6000613027826136de565b6130318185613701565b935061303c836136ce565b8060005b8381101561306d5781516130548882612fd7565b975061305f836136f4565b925050600181019050613040565b5085935050505092915050565b613083816137d1565b82525050565b6000613094826136e9565b61309e8185613712565b93506130ae81856020860161384c565b6130b781613a59565b840191505092915050565b60006130cf602383613712565b91506130da82613a6a565b604082019050919050565b60006130f2601a83613712565b91506130fd82613ab9565b602082019050919050565b6000613115601983613712565b915061312082613ae2565b602082019050919050565b6000613138601d83613712565b915061314382613b0b565b602082019050919050565b600061315b602a83613712565b915061316682613b34565b604082019050919050565b600061317e603183613712565b915061318982613b83565b604082019050919050565b60006131a1602183613712565b91506131ac82613bd2565b604082019050919050565b60006131c4602f83613712565b91506131cf82613c21565b604082019050919050565b60006131e7602983613712565b91506131f282613c70565b604082019050919050565b600061320a602883613712565b915061321582613cbf565b604082019050919050565b600061322d601f83613712565b915061323882613d0e565b602082019050919050565b61324c816137fd565b82525050565b61325b816137fd565b82525050565b6000602082019050613276600083018461300d565b92915050565b6000604082019050613291600083018561300d565b61329e6020830184613252565b9392505050565b600060208201905081810360008301526132bf818461301c565b905092915050565b600060208201905081810360008301526132e0816130c2565b9050919050565b60006020820190508181036000830152613300816130e5565b9050919050565b6000602082019050818103600083015261332081613108565b9050919050565b600060208201905081810360008301526133408161312b565b9050919050565b600060208201905081810360008301526133608161314e565b9050919050565b6000602082019050818103600083015261338081613171565b9050919050565b600060208201905081810360008301526133a081613194565b9050919050565b600060208201905081810360008301526133c0816131b7565b9050919050565b600060208201905081810360008301526133e0816131da565b9050919050565b60006020820190508181036000830152613400816131fd565b9050919050565b6000602082019050818103600083015261342081613220565b9050919050565b600060208201905061343c6000830184613252565b92915050565b60006040820190506134576000830185613252565b613464602083018461300d565b9392505050565b600060c0820190506134806000830189613252565b81810360208301526134928188613089565b905081810360408301526134a68187613089565b905081810360608301526134ba8186613089565b905081810360808301526134ce8185613089565b90506134dd60a083018461300d565b979650505050505050565b600060c0820190506134fd6000830189613252565b818103602083015261350f8188613089565b905081810360408301526135238187613089565b905081810360608301526135378186613089565b9050818103608083015261354b8185613089565b905061355a60a0830184612fef565b979650505050505050565b60006101208201905061357b600083018c613252565b818103602083015261358d818b613089565b905081810360408301526135a1818a613089565b905081810360608301526135b58189613089565b905081810360808301526135c98188613089565b90506135d860a0830187612ffe565b6135e560c0830186613252565b6135f260e083018561307a565b8181036101008301526136058184613089565b90509a9950505050505050505050565b600060608201905061362a6000830186613252565b6136376020830185613252565b613644604083018461300d565b949350505050565b6000613656613667565b905061366282826138db565b919050565b6000604051905090565b600067ffffffffffffffff82111561368c5761368b613a11565b5b602082029050602081019050919050565b600067ffffffffffffffff8211156136b8576136b7613a11565b5b6136c182613a59565b9050602081019050919050565b6000819050602082019050919050565b600081519050919050565b600081519050919050565b6000602082019050919050565b600082825260208201905092915050565b600082825260208201905092915050565b600061372e826137fd565b9150613739836137fd565b9250827fffffffffffffffffffffffffffffffffffffffffffffffffffffffffffffffff0382111561376e5761376d613955565b5b828201905092915050565b6000613784826137fd565b915061378f836137fd565b9250828210156137a2576137a1613955565b5b828203905092915050565b60006137b8826137dd565b9050919050565b60006137ca826137dd565b9050919050565b60008115159050919050565b600073ffffffffffffffffffffffffffffffffffffffff82169050919050565b6000819050919050565b600061381282613819565b9050919050565b60006138248261382b565b9050919050565b6000613836826137dd565b9050919050565b82818337600083830152505050565b60005b8381101561386a57808201518184015260208101905061384f565b83811115613879576000848401525b50505050565b600061388a826137fd565b9150600082141561389e5761389d613955565b5b600182039050919050565b600060028204905060018216806138c157607f821691505b602082108114156138d5576138d4613984565b5b50919050565b6138e482613a59565b810181811067ffffffffffffffff8211171561390357613902613a11565b5b80604052505050565b6000613917826137fd565b91507fffffffffffffffffffffffffffffffffffffffffffffffffffffffffffffffff82141561394a57613949613955565b5b600182019050919050565b7f4e487b7100000000000000000000000000000000000000000000000000000000600052601160045260246000fd5b7f4e487b7100000000000000000000000000000000000000000000000000000000600052602260045260246000fd5b7f4e487b7100000000000000000000000000000000000000000000000000000000600052603160045260246000fd5b7f4e487b7100000000000000000000000000000000000000000000000000000000600052603260045260246000fd5b7f4e487b7100000000000000000000000000000000000000000000000000000000600052604160045260246000fd5b600080fd5b600080fd5b600080fd5b600080fd5b600080fd5b6000601f19601f8301169050919050565b7f4f6e6c79206f776e65722063616e20756e6c697374206120636f6c6c6563746960008201527f6f6e2e0000000000000000000000000000000000000000000000000000000000602082015250565b7f436f6c6c65637469696f6e20646f65736e27742065786973742e000000000000600082015250565b7f436f6c6c656374696f6e20646f65736e27742065786973742e00000000000000600082015250565b7f436f6c6c656374696f6e20697320616c7265616479206c69737465642e000000600082015250565b7f436f6c6c656374696f6e2069736e277420656d7074792c2063616e6e6f74206260008201527f652064656c657465642e00000000000000000000000000000000000000000000602082015250565b7f4f6e6c792073757065722061646d696e2063616e2073657420746865206d617260008201527f6b6574706c61636520616464726573732e000000000000000000000000000000602082015250565b7f4f6e6c79206f776e65722063616e206c697374206120636f6c6c656374696f6e60008201527f2e00000000000000000000000000000000000000000000000000000000000000602082015250565b7f556e6c6973746564206e6674732063616e6e6e6f74206265206164646564207460008201527f6f206120636f6c6c656374696f6e2e0000000000000000000000000000000000602082015250565b7f4e6674496420646f65736e27742062656c6f6e677320746f207468697320636f60008201527f6c6c656374696f6e2e0000000000000000000000000000000000000000000000602082015250565b7f4f6e6c79206f776e65722063616e20616464206e66747320746f206120636f6c60008201527f6c656374696f6e2e000000000000000000000000000000000000000000000000602082015250565b7f5265656e7472616e637947756172643a207265656e7472616e742063616c6c00600082015250565b613d40816137ad565b8114613d4b57600080fd5b50565b613d57816137d1565b8114613d6257600080fd5b50565b613d6e816137fd565b8114613d7957600080fd5b5056fea26469706673582212207adbbac64da4e67944f3fc3baefbfe06ae6b3d81fba30995586ca6e6193e9f7164736f6c63430008070033",
  "immutableReferences": {},
  "source": "//SPDX-License-Identifier: Unlicensed\r\n\r\npragma solidity ^0.8.4;\r\n\r\nimport './NFT.sol';\r\nimport './Definitions.sol';\r\nimport './Marketplace.sol';\r\nimport \"@openzeppelin/contracts/utils/Counters.sol\";\r\nimport '@openzeppelin/contracts/security/ReentrancyGuard.sol';\r\n\r\n/**\r\nThis contract stores the details of collections defined by the Definitions smart contract, which \r\nincludes collection id, name, description, owner's name, owner's address, number of nfts, category, etc\r\n\r\n@author : Hritik Raheja\r\n*/\r\n\r\ncontract Collections is ReentrancyGuard{\r\n\r\n    /**\r\n    1. _collectionIdGenerator allots a new collection Id to every newly created collection.\r\n    2. collectionCount maintains the count of the total number of collection.\r\n    3. allCollections array contains the details of all the collections.\r\n    4. idToIndex mapping maps the every collection id to its corresponding index \r\n    in the allCollections array.\r\n    5. nftContractInstance is the instance of the deployed NFT contract, required \r\n    to call the methods of the same.\r\n    */\r\n    using Counters for Counters.Counter;\r\n    Counters.Counter public _collectionIdGenerator;\r\n    uint256 public collectionCount;\r\n    Definitions.Collection[] public allCollections;\r\n    mapping(uint256 => uint256) public idToIndex;\r\n    mapping(uint256 => uint256) public nftIdToCollectionId;\r\n    NFT nftContractInstance;\r\n    address marketplaceContractAddress;\r\n    Marketplace marketplaceContractInstance;\r\n\r\n    event collectionCreated(uint collectionId, string collectionName, string collectionDesc,\r\n    string category, string ownerName, address ownerAddress);\r\n    event collectionDeleted(uint collectionId, address ownerAddress);\r\n    event collectionListed(uint collectionId, address ownerAddress);\r\n    event collectionUnlisted(uint collectionId, address ownerAddress);\r\n    event nftAddedToCollection(uint collectionId, uint nftId, address ownerAddress);\r\n    event nftRemovedFromCollection(uint collectionId, uint nftId, address ownerAddress);\r\n\r\n    /**\r\n    The deployed NFT contract's address is provided as a parameter in the constructor, \r\n    in order to create an instance.\r\n    */\r\n    constructor(address _nftContractAddress) {\r\n        nftContractInstance = NFT(_nftContractAddress);\r\n    }\r\n\r\n    /**\r\n    This method sets the marketplace contract address for super admin validations.\r\n    This method is called for the first time when the marketplace contract is created, and \r\n    can be called again but only by the super admin itself.\r\n    @param _contractAddress - The address of the deployed marketplace contract. \r\n    */\r\n    function setMarketplaceContractAddress(address _contractAddress) public nonReentrant{\r\n        if(marketplaceContractAddress != address(0)){\r\n            require(msg.sender == marketplaceContractInstance.superAdmin() || \r\n            msg.sender == marketplaceContractAddress, \r\n            \"Only super admin can set the marketplace address.\");\r\n        }\r\n        marketplaceContractAddress = _contractAddress;\r\n        marketplaceContractInstance = Marketplace(_contractAddress); \r\n    }\r\n\r\n    /**\r\n    This method creates a collection, increments the collectionCount accordingly, generates a new collectionID for it, \r\n    and adds it to the allCollections array.\r\n    @param _collectionName - The name of the collection to be created.\r\n    @param _collectionCoverImageUri - The cover image uri of the collection to be created.\r\n    @param _collectionDescription - The description of the collection to be created.\r\n    @param _collectionOwnerName - The official name of the collection's owner, to be created.\r\n    @param _tokenIds - The tokenIds of the listed single NFTs to be added in the collection.\r\n    @param _category - The category of the collection to be created.\r\n    @return - The collection Id of the newly created collection. \r\n    */\r\n    function createCollection(string memory _collectionName, string memory _collectionCoverImageUri,\r\n        string memory _collectionDescription, string memory _collectionOwnerName,\r\n        uint256[] memory _tokenIds, string memory _category) public returns(uint256){\r\n            _collectionIdGenerator.increment();\r\n            address payable _a = payable(msg.sender);\r\n            allCollections.push(Definitions.Collection(_collectionIdGenerator.current(), \r\n            _collectionName, _collectionCoverImageUri, _collectionDescription, _collectionOwnerName,\r\n             _a, _tokenIds.length, _tokenIds, true, _category));\r\n            collectionCount++;\r\n            idToIndex[_collectionIdGenerator.current()] = allCollections.length - 1;\r\n            emit collectionCreated(_collectionIdGenerator.current(), _collectionName, _collectionDescription,\r\n            _category, _collectionOwnerName, _a);\r\n            return (_collectionIdGenerator.current());\r\n    }\r\n\r\n\r\n    /**\r\n    This method creates a collection, increments the collectionCount accordingly, generates a new collectionID for it, \r\n    and adds it to the allCollections array.\r\n    @param _collectionName - The name of the collection to be created.\r\n    @param _collectionCoverImageUri - The cover image uri of the collection to be created.\r\n    @param _collectionDescription - The description of the collection to be created.\r\n    @param _collectionOwnerName - The official name of the collection's owner, to be created.\r\n    @param _tokenIds - The tokenIds of the listed single NFTs to be added in the collection.\r\n    @param _category - The category of the collection to be created.\r\n    @param _sender - The seller of the collection to be created.\r\n    @return - The collection Id of the newly created collection. \r\n    */\r\n    function createCollection(string memory _collectionName, string memory _collectionCoverImageUri,\r\n        string memory _collectionDescription, string memory _collectionOwnerName,\r\n        uint256[] memory _tokenIds, string memory _category, address _sender) public returns(uint256){\r\n            _collectionIdGenerator.increment();\r\n            allCollections.push(Definitions.Collection(_collectionIdGenerator.current(), \r\n            _collectionName, _collectionCoverImageUri, _collectionDescription, _collectionOwnerName, \r\n            payable(_sender), _tokenIds.length, _tokenIds, true, _category));\r\n            collectionCount++;\r\n            idToIndex[_collectionIdGenerator.current()] = allCollections.length - 1;\r\n            emit collectionCreated(_collectionIdGenerator.current(), _collectionName, _collectionDescription,\r\n            _category, _collectionOwnerName, _sender);\r\n            return (_collectionIdGenerator.current());\r\n    }\r\n\r\n    /**\r\n    This method returns an array containing the tokenIds of all the NFTs \r\n    that are present in the collection.\r\n    @param _collectionId - The id of the collection whose tokenIds are to be fetched.\r\n    @return - A uint256 array containing the tokenIds of all the NFTs.\r\n    */\r\n    function getNftIdsByCollectionId(uint256 _collectionId) public view returns(uint256[] memory){\r\n        uint256 _index = idToIndex[_collectionId];\r\n        require(_index != 0 || allCollections[_index].collectionId == _collectionId, \"Collectiion doesn't exist.\");\r\n        return allCollections[_index].nftIds;\r\n    }\r\n\r\n    /**\r\n    This method deletes a collection, decrements the collectionCount and \r\n    removes it from the idToIndex mapping.\r\n    @param _collectionId - The id of the collection to be deleted.\r\n    */\r\n    function deleteCollection(uint256 _collectionId) public {\r\n        uint256 _index = idToIndex[_collectionId];\r\n        require(allCollections[_index].nftCount == 0, \"Collection isn't empty, cannot be deleted.\");\r\n        require(_index != 0 || allCollections[_index].collectionId == _collectionId, \"Collection doesn't exist.\");\r\n        //require(allCollections[_index].collectionOwnerAddress == msg.sender, \"Only owner can delete a collection.\");\r\n        if(allCollections.length > 1){\r\n            Definitions.Collection memory _temp = allCollections[_index];\r\n            allCollections[_index] = allCollections[collectionCount-1];\r\n            allCollections[collectionCount - 1] = _temp;\r\n            idToIndex[allCollections[_index].collectionId] = _index;\r\n        }\r\n        allCollections.pop();\r\n        collectionCount--;\r\n        delete idToIndex[_collectionId];\r\n        emit collectionDeleted(_collectionId, msg.sender);\r\n    }\r\n\r\n    /**\r\n    This method sets the isListed field of the collection to be true, i.e. it lists the \r\n    collection to the marketplace.\r\n    @param _sender - The caller of the function.\r\n    @param _collectionId - The id of the collection to be listed to the marketplace.\r\n    */\r\n    function listCollection(address _sender, uint256 _collectionId) public{\r\n        uint256 _index = idToIndex[_collectionId];\r\n        require(_index != 0 || allCollections[_index].collectionId == _collectionId, \"Collection doesn't exist.\");\r\n        require(_sender == allCollections[_index].collectionOwnerAddress, \"Only owner can list a collection.\");\r\n        require(!allCollections[_index].isListed, \"Collection is already listed.\");\r\n        allCollections[_index].isListed = true;\r\n        emit collectionListed(_collectionId, _sender);\r\n    }\r\n\r\n    /**\r\n    This method sets the isListed field of the collection to be false, i.e. it unlists the \r\n    collection from the marketplace.\r\n    @param _sender - The caller of the function.\r\n    @param _collectionId - The id of the collection to be unlisted from the marketplace.\r\n    */\r\n    function unlistCollection(address _sender, uint256 _collectionId) public{\r\n        uint256 _index = idToIndex[_collectionId];\r\n        require(_index != 0 || allCollections[_index].collectionId == _collectionId, \"Collection doesn't exist.\");\r\n        require(_sender == allCollections[_index].collectionOwnerAddress, \"Only owner can unlist a collection.\");\r\n        allCollections[_index].isListed = false;\r\n        emit collectionUnlisted(_collectionId, _sender);\r\n    }\r\n\r\n    /**\r\n    This method adds an nft into the collection, i.e. it adds the tokenId of the NFT\r\n    to the nftIds array of the collection and increments the nftCount.\r\n    @param _collectionId - The id of the collection in which NFT is to be added.\r\n    @param _listedNftId - The id of the listed NFT which is to be added to the collection.\r\n    */\r\n    function addNftToCollection(uint256 _collectionId, uint256 _listedNftId) public nonReentrant{\r\n        uint256 _index = idToIndex[_collectionId];\r\n        require(_index != 0 || allCollections[_index].collectionId == _collectionId, \"Collection doesn't exist.\");\r\n        require(msg.sender == allCollections[_index].collectionOwnerAddress, \"Only owner can add nfts to a collection.\");\r\n        require(nftContractInstance.isListedSingleNftorNot(_listedNftId), \"Unlisted nfts cannnot be added to a collection.\");\r\n        nftContractInstance.removeNftFromSingleNftsArray(msg.sender, _listedNftId);\r\n        allCollections[_index].nftIds.push(_listedNftId);\r\n        allCollections[_index].nftCount = allCollections[_index].nftCount + 1;\r\n        nftIdToCollectionId[_listedNftId] = _collectionId;\r\n        emit nftAddedToCollection(_collectionId, _listedNftId, msg.sender);\r\n    }\r\n    \r\n    /**\r\n    This method adds multiple NFTs into the collection, i.e. it adds the tokenIds of the NFTs\r\n    to the nftIds array of the collection and updates the nftCount accordingly.\r\n    @param _collectionId - The id of the collection in which NFTs are to be added.\r\n    @param _listedNftIds - A uint256 array containing the tokenIds of all NFTs that\r\n    are to be added to the collection.\r\n    */\r\n    function addMultipleNftsToCollection(uint256 _collectionId, uint256[] memory _listedNftIds) public{\r\n        for(uint256 _i = 0; _i < _listedNftIds.length; _i++){\r\n            addNftToCollection(_collectionId, _listedNftIds[_i]);\r\n        }\r\n    }\r\n\r\n    /**\r\n    This method removes the provided nft from the collection, i.e. it finds the index\r\n    at which the nft is stored, removes it and decrements the value of nftCount.\r\n    @param _collectionId - The id of the collection from which NFT is to be removed.\r\n    @param _nftId - The id of the nft to be removed from the collecition.\r\n    */\r\n    function removeNftFromCollection(uint256 _collectionId, uint256 _nftId) public{\r\n        uint256 _index = idToIndex[_collectionId];\r\n        require(_index != 0 || allCollections[_index].collectionId == _collectionId, \"Collection doesn't exist.\");\r\n        require(msg.sender == allCollections[_index].collectionOwnerAddress, \"Only owner can add nfts to a collection.\");\r\n        uint256 _nftIndex;\r\n        bool _nftFound = false;\r\n        for(uint _i = 0; _i < allCollections[_index].nftCount; _i++){\r\n            if(allCollections[_index].nftIds[_i] == _nftId){\r\n                _nftIndex = _i;\r\n                _nftFound = true;\r\n                break;\r\n            }\r\n        }\r\n        require(_nftFound, \"NftId doesn't belongs to this collection.\");\r\n        if(allCollections[_index].nftCount > 1){\r\n            uint256 _temp = allCollections[_index].nftIds[_nftIndex];\r\n            allCollections[_index].nftIds[_nftIndex] = allCollections[_index].nftIds[allCollections[_index].nftCount - 1];\r\n            allCollections[_index].nftIds[allCollections[_index].nftCount - 1] = _temp;\r\n        }\r\n        allCollections[_index].nftIds.pop();\r\n        allCollections[_index].nftCount = allCollections[_index].nftCount - 1;\r\n        nftContractInstance.addNftToSingleNftsArray(msg.sender, _nftId);\r\n        delete nftIdToCollectionId[_nftId];\r\n        emit nftRemovedFromCollection(_collectionId, _nftId, msg.sender);\r\n    }\r\n\r\n    /**\r\n    This method returns a list of all the collections owned by the provided address.\r\n    @param _owner - The address of the owner whose collections are to be fetched.\r\n    */\r\n    function getAllCollectionsByOwnerAddress(address _owner) public view returns(uint256[] memory){\r\n        uint256[] memory result;\r\n        uint _j = 0;\r\n        for(uint _i = 0; _i < allCollections.length; _i++){\r\n            if(allCollections[_i].collectionOwnerAddress == _owner){\r\n                result[_j] = allCollections[_i].collectionId;\r\n                _j++;\r\n            }\r\n        }\r\n        return result;\r\n    }\r\n\r\n    /**\r\n    This method returns the address of the respective collection.\r\n    @param _collId - The id of the collection whose owner's address is to be fetched.\r\n    @return - The collection owner's address.\r\n    */\r\n    function getOwnerByCollectionId(uint256 _collId) public view returns (address){\r\n        uint256 _index = idToIndex[_collId];\r\n        return allCollections[_index].collectionOwnerAddress;\r\n    }\r\n}",
  "sourcePath": "C:\\Users\\91805\\Desktop\\apynif\\src\\contracts\\Collections.sol",
  "compiler": {
    "name": "solc",
    "version": "0.8.7+commit.e28d00a7.Emscripten.clang"
  },
  "schemaVersion": "3.4.8",
  "updatedAt": "2022-07-24T10:34:39.253Z",
  "networkType": "ethereum",
  "devdoc": {
    "author": ": Hritik Raheja",
    "kind": "dev",
    "methods": {
      "addMultipleNftsToCollection(uint256,uint256[])": {
        "params": {
          "_collectionId": "- The id of the collection in which NFTs are to be added.",
          "_listedNftIds": "- A uint256 array containing the tokenIds of all NFTs that are to be added to the collection."
        }
      },
      "addNftToCollection(uint256,uint256)": {
        "params": {
          "_collectionId": "- The id of the collection in which NFT is to be added.",
          "_listedNftId": "- The id of the listed NFT which is to be added to the collection."
        }
      },
      "createCollection(string,string,string,string,uint256[],string)": {
        "params": {
          "_category": "- The category of the collection to be created.",
          "_collectionCoverImageUri": "- The cover image uri of the collection to be created.",
          "_collectionDescription": "- The description of the collection to be created.",
          "_collectionName": "- The name of the collection to be created.",
          "_collectionOwnerName": "- The official name of the collection's owner, to be created.",
          "_tokenIds": "- The tokenIds of the listed single NFTs to be added in the collection."
        },
        "returns": {
          "_0": "- The collection Id of the newly created collection. "
        }
      },
      "createCollection(string,string,string,string,uint256[],string,address)": {
        "params": {
          "_category": "- The category of the collection to be created.",
          "_collectionCoverImageUri": "- The cover image uri of the collection to be created.",
          "_collectionDescription": "- The description of the collection to be created.",
          "_collectionName": "- The name of the collection to be created.",
          "_collectionOwnerName": "- The official name of the collection's owner, to be created.",
          "_sender": "- The seller of the collection to be created.",
          "_tokenIds": "- The tokenIds of the listed single NFTs to be added in the collection."
        },
        "returns": {
          "_0": "- The collection Id of the newly created collection. "
        }
      },
      "deleteCollection(uint256)": {
        "params": {
          "_collectionId": "- The id of the collection to be deleted."
        }
      },
      "getAllCollectionsByOwnerAddress(address)": {
        "params": {
          "_owner": "- The address of the owner whose collections are to be fetched."
        }
      },
      "getNftIdsByCollectionId(uint256)": {
        "params": {
          "_collectionId": "- The id of the collection whose tokenIds are to be fetched."
        },
        "returns": {
          "_0": "- A uint256 array containing the tokenIds of all the NFTs."
        }
      },
      "getOwnerByCollectionId(uint256)": {
        "params": {
          "_collId": "- The id of the collection whose owner's address is to be fetched."
        },
        "returns": {
          "_0": "- The collection owner's address."
        }
      },
      "listCollection(address,uint256)": {
        "params": {
          "_collectionId": "- The id of the collection to be listed to the marketplace.",
          "_sender": "- The caller of the function."
        }
      },
      "removeNftFromCollection(uint256,uint256)": {
        "params": {
          "_collectionId": "- The id of the collection from which NFT is to be removed.",
          "_nftId": "- The id of the nft to be removed from the collecition."
        }
      },
      "setMarketplaceContractAddress(address)": {
        "params": {
          "_contractAddress": "- The address of the deployed marketplace contract. "
        }
      },
      "unlistCollection(address,uint256)": {
        "params": {
          "_collectionId": "- The id of the collection to be unlisted from the marketplace.",
          "_sender": "- The caller of the function."
        }
      }
    },
    "version": 1
  },
  "userdoc": {
    "kind": "user",
    "methods": {
      "addMultipleNftsToCollection(uint256,uint256[])": {
        "notice": "This method adds multiple NFTs into the collection, i.e. it adds the tokenIds of the NFTs to the nftIds array of the collection and updates the nftCount accordingly."
      },
      "addNftToCollection(uint256,uint256)": {
        "notice": "This method adds an nft into the collection, i.e. it adds the tokenId of the NFT to the nftIds array of the collection and increments the nftCount."
      },
      "constructor": {
        "notice": "The deployed NFT contract's address is provided as a parameter in the constructor,  in order to create an instance."
      },
      "createCollection(string,string,string,string,uint256[],string)": {
        "notice": "This method creates a collection, increments the collectionCount accordingly, generates a new collectionID for it,  and adds it to the allCollections array."
      },
      "createCollection(string,string,string,string,uint256[],string,address)": {
        "notice": "This method creates a collection, increments the collectionCount accordingly, generates a new collectionID for it,  and adds it to the allCollections array."
      },
      "deleteCollection(uint256)": {
        "notice": "This method deletes a collection, decrements the collectionCount and  removes it from the idToIndex mapping."
      },
      "getAllCollectionsByOwnerAddress(address)": {
        "notice": "This method returns a list of all the collections owned by the provided address."
      },
      "getNftIdsByCollectionId(uint256)": {
        "notice": "This method returns an array containing the tokenIds of all the NFTs  that are present in the collection."
      },
      "getOwnerByCollectionId(uint256)": {
        "notice": "This method returns the address of the respective collection."
      },
      "listCollection(address,uint256)": {
        "notice": "This method sets the isListed field of the collection to be true, i.e. it lists the  collection to the marketplace."
      },
      "removeNftFromCollection(uint256,uint256)": {
        "notice": "This method removes the provided nft from the collection, i.e. it finds the index at which the nft is stored, removes it and decrements the value of nftCount."
      },
      "setMarketplaceContractAddress(address)": {
        "notice": "This method sets the marketplace contract address for super admin validations. This method is called for the first time when the marketplace contract is created, and  can be called again but only by the super admin itself."
      },
      "unlistCollection(address,uint256)": {
        "notice": "This method sets the isListed field of the collection to be false, i.e. it unlists the  collection from the marketplace."
      }
    },
    "notice": "This contract stores the details of collections defined by the Definitions smart contract, which  includes collection id, name, description, owner's name, owner's address, number of nfts, category, etc",
    "version": 1
  }
}