{
  "contractName": "Marketplace",
  "abi": [
    {
      "inputs": [
        {
          "internalType": "address",
          "name": "_superAdmin",
          "type": "address"
        },
        {
          "internalType": "address payable",
          "name": "_feeAccount",
          "type": "address"
        },
        {
          "internalType": "uint256",
          "name": "_fee",
          "type": "uint256"
        },
        {
          "internalType": "address",
          "name": "nftContractAddress",
          "type": "address"
        },
        {
          "internalType": "address",
          "name": "collectionsContractAddress",
          "type": "address"
        },
        {
          "internalType": "address",
          "name": "businessesContractAddress",
          "type": "address"
        }
      ],
      "stateMutability": "nonpayable",
      "type": "constructor"
    },
    {
      "anonymous": false,
      "inputs": [
        {
          "indexed": false,
          "internalType": "address",
          "name": "operator",
          "type": "address"
        },
        {
          "indexed": false,
          "internalType": "address",
          "name": "from",
          "type": "address"
        },
        {
          "indexed": false,
          "internalType": "uint256",
          "name": "nftId",
          "type": "uint256"
        },
        {
          "indexed": false,
          "internalType": "bytes",
          "name": "v",
          "type": "bytes"
        }
      ],
      "name": "itemListed",
      "type": "event"
    },
    {
      "inputs": [],
      "name": "marketplaceFeePercent",
      "outputs": [
        {
          "internalType": "uint256",
          "name": "",
          "type": "uint256"
        }
      ],
      "stateMutability": "view",
      "type": "function"
    },
    {
      "inputs": [
        {
          "internalType": "uint256",
          "name": "",
          "type": "uint256"
        }
      ],
      "name": "onGoingAuctions",
      "outputs": [
        {
          "internalType": "uint256",
          "name": "nftId",
          "type": "uint256"
        },
        {
          "internalType": "address",
          "name": "highestBidder",
          "type": "address"
        },
        {
          "internalType": "uint256",
          "name": "highestBid",
          "type": "uint256"
        },
        {
          "internalType": "uint256",
          "name": "bid_end_time",
          "type": "uint256"
        }
      ],
      "stateMutability": "view",
      "type": "function"
    },
    {
      "inputs": [],
      "name": "superAdmin",
      "outputs": [
        {
          "internalType": "address",
          "name": "",
          "type": "address"
        }
      ],
      "stateMutability": "view",
      "type": "function"
    },
    {
      "inputs": [
        {
          "internalType": "address",
          "name": "operator",
          "type": "address"
        },
        {
          "internalType": "address",
          "name": "from",
          "type": "address"
        },
        {
          "internalType": "uint256",
          "name": "tokenId",
          "type": "uint256"
        },
        {
          "internalType": "bytes",
          "name": "data",
          "type": "bytes"
        }
      ],
      "name": "onERC721Received",
      "outputs": [
        {
          "internalType": "bytes4",
          "name": "",
          "type": "bytes4"
        }
      ],
      "stateMutability": "nonpayable",
      "type": "function"
    },
    {
      "inputs": [
        {
          "internalType": "address",
          "name": "_newFeeAccount",
          "type": "address"
        }
      ],
      "name": "updateFeeAccount",
      "outputs": [],
      "stateMutability": "nonpayable",
      "type": "function"
    },
    {
      "inputs": [
        {
          "internalType": "address",
          "name": "_newSuperAdmin",
          "type": "address"
        }
      ],
      "name": "changeSuperAdmin",
      "outputs": [],
      "stateMutability": "nonpayable",
      "type": "function"
    },
    {
      "inputs": [
        {
          "internalType": "uint256",
          "name": "_newFee",
          "type": "uint256"
        }
      ],
      "name": "changeFeePercent",
      "outputs": [],
      "stateMutability": "nonpayable",
      "type": "function"
    },
    {
      "inputs": [
        {
          "internalType": "uint256",
          "name": "_nftId",
          "type": "uint256"
        }
      ],
      "name": "buyNftAndChangeOwner",
      "outputs": [],
      "stateMutability": "payable",
      "type": "function"
    },
    {
      "inputs": [
        {
          "internalType": "uint256",
          "name": "_nftId",
          "type": "uint256"
        }
      ],
      "name": "claimNftAndTransferOwnershipAfterAuction",
      "outputs": [],
      "stateMutability": "payable",
      "type": "function"
    },
    {
      "inputs": [],
      "name": "getBalance",
      "outputs": [
        {
          "internalType": "uint256",
          "name": "",
          "type": "uint256"
        }
      ],
      "stateMutability": "view",
      "type": "function"
    },
    {
      "inputs": [
        {
          "internalType": "uint256",
          "name": "_nftId",
          "type": "uint256"
        },
        {
          "internalType": "address",
          "name": "seller",
          "type": "address"
        }
      ],
      "name": "transferNftBackToOwner",
      "outputs": [],
      "stateMutability": "nonpayable",
      "type": "function"
    },
    {
      "inputs": [
        {
          "internalType": "uint256",
          "name": "_nftId",
          "type": "uint256"
        },
        {
          "internalType": "uint256",
          "name": "basePrice",
          "type": "uint256"
        },
        {
          "internalType": "uint256",
          "name": "biddingTimeInSec",
          "type": "uint256"
        }
      ],
      "name": "putAnNftOnAuction",
      "outputs": [],
      "stateMutability": "nonpayable",
      "type": "function"
    },
    {
      "inputs": [
        {
          "internalType": "uint256",
          "name": "_nftId",
          "type": "uint256"
        }
      ],
      "name": "withdrawAnNftFromAuction",
      "outputs": [],
      "stateMutability": "nonpayable",
      "type": "function"
    },
    {
      "inputs": [
        {
          "internalType": "uint256",
          "name": "_nftId",
          "type": "uint256"
        },
        {
          "internalType": "uint256",
          "name": "_timeToBeAddedInSeconds",
          "type": "uint256"
        }
      ],
      "name": "extendAuction",
      "outputs": [],
      "stateMutability": "nonpayable",
      "type": "function"
    },
    {
      "inputs": [
        {
          "internalType": "uint256",
          "name": "_nftId",
          "type": "uint256"
        },
        {
          "internalType": "uint256",
          "name": "_bid",
          "type": "uint256"
        }
      ],
      "name": "placeBid",
      "outputs": [],
      "stateMutability": "nonpayable",
      "type": "function"
    },
    {
      "inputs": [
        {
          "internalType": "uint256",
          "name": "_nftId",
          "type": "uint256"
        }
      ],
      "name": "getNftAuctionDetails",
      "outputs": [
        {
          "components": [
            {
              "internalType": "uint256",
              "name": "nftId",
              "type": "uint256"
            },
            {
              "internalType": "address",
              "name": "highestBidder",
              "type": "address"
            },
            {
              "internalType": "uint256",
              "name": "highestBid",
              "type": "uint256"
            },
            {
              "internalType": "uint256",
              "name": "bid_end_time",
              "type": "uint256"
            }
          ],
          "internalType": "struct Definitions.NftOnAuction",
          "name": "",
          "type": "tuple"
        }
      ],
      "stateMutability": "view",
      "type": "function"
    },
    {
      "inputs": [],
      "name": "getNftsInAuction",
      "outputs": [
        {
          "internalType": "uint256[]",
          "name": "",
          "type": "uint256[]"
        }
      ],
      "stateMutability": "view",
      "type": "function"
    },
    {
      "inputs": [
        {
          "internalType": "uint256",
          "name": "_nftId",
          "type": "uint256"
        }
      ],
      "name": "getTimeLeftInAuctionCompletion",
      "outputs": [
        {
          "internalType": "uint256",
          "name": "",
          "type": "uint256"
        }
      ],
      "stateMutability": "view",
      "type": "function"
    }
  ],
  "bytecode": "0x60806040523480156200001157600080fd5b506040516200445b3803806200445b83398181016040528101906200003791906200038f565b600160008190555085600160006101000a81548173ffffffffffffffffffffffffffffffffffffffff021916908373ffffffffffffffffffffffffffffffffffffffff16021790555084600260006101000a81548173ffffffffffffffffffffffffffffffffffffffff021916908373ffffffffffffffffffffffffffffffffffffffff1602179055508360038190555082600460006101000a81548173ffffffffffffffffffffffffffffffffffffffff021916908373ffffffffffffffffffffffffffffffffffffffff16021790555081600560006101000a81548173ffffffffffffffffffffffffffffffffffffffff021916908373ffffffffffffffffffffffffffffffffffffffff16021790555080600660006101000a81548173ffffffffffffffffffffffffffffffffffffffff021916908373ffffffffffffffffffffffffffffffffffffffff160217905550600660009054906101000a900473ffffffffffffffffffffffffffffffffffffffff1673ffffffffffffffffffffffffffffffffffffffff1663b47cc556306040518263ffffffff1660e01b8152600401620001e891906200043c565b600060405180830381600087803b1580156200020357600080fd5b505af115801562000218573d6000803e3d6000fd5b50505050600460009054906101000a900473ffffffffffffffffffffffffffffffffffffffff1673ffffffffffffffffffffffffffffffffffffffff16634ad32030306040518263ffffffff1660e01b81526004016200027991906200043c565b600060405180830381600087803b1580156200029457600080fd5b505af1158015620002a9573d6000803e3d6000fd5b50505050600560009054906101000a900473ffffffffffffffffffffffffffffffffffffffff1673ffffffffffffffffffffffffffffffffffffffff16634ad32030306040518263ffffffff1660e01b81526004016200030a91906200043c565b600060405180830381600087803b1580156200032557600080fd5b505af11580156200033a573d6000803e3d6000fd5b50505050505050505050620004fe565b6000815190506200035b81620004b0565b92915050565b6000815190506200037281620004ca565b92915050565b6000815190506200038981620004e4565b92915050565b60008060008060008060c08789031215620003af57620003ae620004ab565b5b6000620003bf89828a016200034a565b9650506020620003d289828a0162000361565b9550506040620003e589828a0162000378565b9450506060620003f889828a016200034a565b93505060806200040b89828a016200034a565b92505060a06200041e89828a016200034a565b9150509295509295509295565b620004368162000459565b82525050565b60006020820190506200045360008301846200042b565b92915050565b6000620004668262000481565b9050919050565b60006200047a8262000481565b9050919050565b600073ffffffffffffffffffffffffffffffffffffffff82169050919050565b6000819050919050565b600080fd5b620004bb8162000459565b8114620004c757600080fd5b50565b620004d5816200046d565b8114620004e157600080fd5b50565b620004ef81620004a1565b8114620004fb57600080fd5b50565b613f4d806200050e6000396000f3fe6080604052600436106101095760003560e01c806341858c4b116100955780639c858c95116100645780639c858c951461034e5780639c8e0cfd1461038b578063b9ed8d54146103b4578063bd0dcdb6146103df578063fff13ee71461040857610109565b806341858c4b146102a3578063465b0a97146102cc57806357c90de5146102e857806370ca1fc61461031157610109565b806329575f6a116100dc57806329575f6a146101c857806333ef259f146101f357806334eddf3e1461023357806335b6a6121461025c57806338d73b0d1461027857610109565b806312065fe01461010e578063150b7a021461013957806318c25da814610176578063237f39521461019f575b600080fd5b34801561011a57600080fd5b50610123610431565b60405161013091906135d1565b60405180910390f35b34801561014557600080fd5b50610160600480360381019061015b9190612d31565b610472565b60405161016d919061339b565b60405180910390f35b34801561018257600080fd5b5061019d60048036038101906101989190612edc565b6104c6565b005b3480156101ab57600080fd5b506101c660048036038101906101c19190612e9c565b6107fd565b005b3480156101d457600080fd5b506101dd610a49565b6040516101ea91906132a2565b60405180910390f35b3480156101ff57600080fd5b5061021a60048036038101906102159190612e02565b610a6f565b60405161022a9493929190613615565b60405180910390f35b34801561023f57600080fd5b5061025a60048036038101906102559190612e02565b610abf565b005b61027660048036038101906102719190612e02565b610b59565b005b34801561028457600080fd5b5061028d6112c1565b60405161029a91906135d1565b60405180910390f35b3480156102af57600080fd5b506102ca60048036038101906102c59190612cd7565b6112c7565b005b6102e660048036038101906102e19190612e02565b61139b565b005b3480156102f457600080fd5b5061030f600480360381019061030a9190612e9c565b611e18565b005b34801561031d57600080fd5b5061033860048036038101906103339190612e02565b6121ef565b60405161034591906135d1565b60405180910390f35b34801561035a57600080fd5b5061037560048036038101906103709190612e02565b6122d1565b60405161038291906135b6565b60405180910390f35b34801561039757600080fd5b506103b260048036038101906103ad9190612e5c565b612403565b005b3480156103c057600080fd5b506103c96125b6565b6040516103d69190613379565b60405180910390f35b3480156103eb57600080fd5b5061040660048036038101906104019190612e02565b61260e565b005b34801561041457600080fd5b5061042f600480360381019061042a9190612cd7565b612952565b005b6000600260009054906101000a900473ffffffffffffffffffffffffffffffffffffffff1673ffffffffffffffffffffffffffffffffffffffff1631905090565b60007fb4e38df7406d695e67cba1b755573c737ace564d075c171889799d6b96283f1986868686866040516104ab9594939291906132f4565b60405180910390a163150b7a0260e01b905095945050505050565b6002600054141561050c576040517f08c379a000000000000000000000000000000000000000000000000000000000815260040161050390613536565b60405180910390fd5b60026000819055506000600460009054906101000a900473ffffffffffffffffffffffffffffffffffffffff1673ffffffffffffffffffffffffffffffffffffffff166308214112856040518263ffffffff1660e01b815260040161057191906135d1565b60006040518083038186803b15801561058957600080fd5b505afa15801561059d573d6000803e3d6000fd5b505050506040513d6000823e3d601f19601f820116820180604052508101906105c69190612db9565b905080600001516040015173ffffffffffffffffffffffffffffffffffffffff163373ffffffffffffffffffffffffffffffffffffffff161461063e576040517f08c379a0000000000000000000000000000000000000000000000000000000008152600401610635906134d6565b60405180910390fd5b806000015160800151610686576040517f08c379a000000000000000000000000000000000000000000000000000000000815260040161067d90613436565b60405180910390fd5b60006007600086815260200190815260200160002060030154146106df576040517f08c379a00000000000000000000000000000000000000000000000000000000081526004016106d690613556565b60405180910390fd5b6040518060800160405280858152602001600073ffffffffffffffffffffffffffffffffffffffff168152602001848152602001834261071f9190613734565b815250600760008681526020019081526020016000206000820151816000015560208201518160010160006101000a81548173ffffffffffffffffffffffffffffffffffffffff021916908373ffffffffffffffffffffffffffffffffffffffff1602179055506040820151816002015560608201518160030155905050600884908060018154018082558091505060019003906000526020600020016000909190919091505560016008805490506107d89190613815565b6009600086815260200190815260200160002081905550506001600081905550505050565b60026000541415610843576040517f08c379a000000000000000000000000000000000000000000000000000000000815260040161083a90613536565b60405180910390fd5b6002600081905550600060088054905014158061087457506000600960008481526020019081526020016000205414155b8061089d57508160086000815481106108905761088f6139bd565b5b9060005260206000200154145b6108dc576040517f08c379a00000000000000000000000000000000000000000000000000000000081526004016108d3906133b6565b60405180910390fd5b600460009054906101000a900473ffffffffffffffffffffffffffffffffffffffff1673ffffffffffffffffffffffffffffffffffffffff166308214112836040518263ffffffff1660e01b815260040161093791906135d1565b60006040518083038186803b15801561094f57600080fd5b505afa158015610963573d6000803e3d6000fd5b505050506040513d6000823e3d601f19601f8201168201806040525081019061098c9190612db9565b600001516040015173ffffffffffffffffffffffffffffffffffffffff163373ffffffffffffffffffffffffffffffffffffffff1614610a01576040517f08c379a00000000000000000000000000000000000000000000000000000000081526004016109f890613516565b60405180910390fd5b806007600084815260200190815260200160002060030154610a239190613734565b600760008481526020019081526020016000206003018190555060016000819055505050565b600160009054906101000a900473ffffffffffffffffffffffffffffffffffffffff1681565b60076020528060005260406000206000915090508060000154908060010160009054906101000a900473ffffffffffffffffffffffffffffffffffffffff16908060020154908060030154905084565b600160009054906101000a900473ffffffffffffffffffffffffffffffffffffffff1673ffffffffffffffffffffffffffffffffffffffff163373ffffffffffffffffffffffffffffffffffffffff1614610b4f576040517f08c379a0000000000000000000000000000000000000000000000000000000008152600401610b4690613496565b60405180910390fd5b8060038190555050565b6000600660009054906101000a900473ffffffffffffffffffffffffffffffffffffffff1673ffffffffffffffffffffffffffffffffffffffff1663633c0366836040518263ffffffff1660e01b8152600401610bb691906135d1565b60206040518083038186803b158015610bce57600080fd5b505afa158015610be2573d6000803e3d6000fd5b505050506040513d601f19601f82011682018060405250810190610c069190612e2f565b90506000600560009054906101000a900473ffffffffffffffffffffffffffffffffffffffff1673ffffffffffffffffffffffffffffffffffffffff1663a04ea219846040518263ffffffff1660e01b8152600401610c6591906135d1565b60206040518083038186803b158015610c7d57600080fd5b505afa158015610c91573d6000803e3d6000fd5b505050506040513d601f19601f82011682018060405250810190610cb59190612e2f565b90506000600460009054906101000a900473ffffffffffffffffffffffffffffffffffffffff1673ffffffffffffffffffffffffffffffffffffffff166308214112856040518263ffffffff1660e01b8152600401610d1491906135d1565b60006040518083038186803b158015610d2c57600080fd5b505afa158015610d40573d6000803e3d6000fd5b505050506040513d6000823e3d601f19601f82011682018060405250810190610d699190612db9565b90506000816000015160200151905060008260000151604001519050813414610dc7576040517f08c379a0000000000000000000000000000000000000000000000000000000008152600401610dbe90613456565b60405180910390fd5b6000606483600354610dd991906137bb565b610de3919061378a565b90506000600260009054906101000a900473ffffffffffffffffffffffffffffffffffffffff1673ffffffffffffffffffffffffffffffffffffffff166108fc839081150290604051600060405180830381858888f19350505050158015610e4f573d6000803e3d6000fd5b50600087146110a257606484600660009054906101000a900473ffffffffffffffffffffffffffffffffffffffff1673ffffffffffffffffffffffffffffffffffffffff166313ca6ee68a6040518263ffffffff1660e01b8152600401610eb691906135d1565b60206040518083038186803b158015610ece57600080fd5b505afa158015610ee2573d6000803e3d6000fd5b505050506040513d601f19601f82011682018060405250810190610f069190612e2f565b610f1091906137bb565b610f1a919061378a565b90506000600660009054906101000a900473ffffffffffffffffffffffffffffffffffffffff1673ffffffffffffffffffffffffffffffffffffffff1662374bf1896040518263ffffffff1660e01b8152600401610f7891906135d1565b60206040518083038186803b158015610f9057600080fd5b505afa158015610fa4573d6000803e3d6000fd5b505050506040513d601f19601f82011682018060405250810190610fc89190612d04565b90508073ffffffffffffffffffffffffffffffffffffffff166108fc839081150290604051600060405180830381858888f19350505050158015611010573d6000803e3d6000fd5b50600660009054906101000a900473ffffffffffffffffffffffffffffffffffffffff1673ffffffffffffffffffffffffffffffffffffffff16637311dda7898b6040518363ffffffff1660e01b815260040161106e92919061365a565b600060405180830381600087803b15801561108857600080fd5b505af115801561109c573d6000803e3d6000fd5b50505050505b6000861461113a57600560009054906101000a900473ffffffffffffffffffffffffffffffffffffffff1673ffffffffffffffffffffffffffffffffffffffff166384d05523878a6040518363ffffffff1660e01b815260040161110792919061365a565b600060405180830381600087803b15801561112157600080fd5b505af1158015611135573d6000803e3d6000fd5b505050505b8273ffffffffffffffffffffffffffffffffffffffff166108fc8284876111619190613815565b61116b9190613815565b9081150290604051600060405180830381858888f19350505050158015611196573d6000803e3d6000fd5b50600460009054906101000a900473ffffffffffffffffffffffffffffffffffffffff1673ffffffffffffffffffffffffffffffffffffffff166342842e0e30338b6040518463ffffffff1660e01b81526004016111f6939291906132bd565b600060405180830381600087803b15801561121057600080fd5b505af1158015611224573d6000803e3d6000fd5b50505050600460009054906101000a900473ffffffffffffffffffffffffffffffffffffffff1673ffffffffffffffffffffffffffffffffffffffff16630ef4122a89336040518363ffffffff1660e01b81526004016112859291906135ec565b600060405180830381600087803b15801561129f57600080fd5b505af11580156112b3573d6000803e3d6000fd5b505050505050505050505050565b60035481565b600160009054906101000a900473ffffffffffffffffffffffffffffffffffffffff1673ffffffffffffffffffffffffffffffffffffffff163373ffffffffffffffffffffffffffffffffffffffff1614611357576040517f08c379a000000000000000000000000000000000000000000000000000000000815260040161134e90613496565b60405180910390fd5b80600160006101000a81548173ffffffffffffffffffffffffffffffffffffffff021916908373ffffffffffffffffffffffffffffffffffffffff16021790555050565b600060076000838152602001908152602001600020604051806080016040529081600082015481526020016001820160009054906101000a900473ffffffffffffffffffffffffffffffffffffffff1673ffffffffffffffffffffffffffffffffffffffff1673ffffffffffffffffffffffffffffffffffffffff16815260200160028201548152602001600382015481525050905080606001514211611477576040517f08c379a000000000000000000000000000000000000000000000000000000000815260040161146e90613596565b60405180910390fd5b806020015173ffffffffffffffffffffffffffffffffffffffff163373ffffffffffffffffffffffffffffffffffffffff16146114e9576040517f08c379a00000000000000000000000000000000000000000000000000000000081526004016114e0906134b6565b60405180910390fd5b6000600660009054906101000a900473ffffffffffffffffffffffffffffffffffffffff1673ffffffffffffffffffffffffffffffffffffffff1663633c0366846040518263ffffffff1660e01b815260040161154691906135d1565b60206040518083038186803b15801561155e57600080fd5b505afa158015611572573d6000803e3d6000fd5b505050506040513d601f19601f820116820180604052508101906115969190612e2f565b90506000600560009054906101000a900473ffffffffffffffffffffffffffffffffffffffff1673ffffffffffffffffffffffffffffffffffffffff1663a04ea219856040518263ffffffff1660e01b81526004016115f591906135d1565b60206040518083038186803b15801561160d57600080fd5b505afa158015611621573d6000803e3d6000fd5b505050506040513d601f19601f820116820180604052508101906116459190612e2f565b90506000600460009054906101000a900473ffffffffffffffffffffffffffffffffffffffff1673ffffffffffffffffffffffffffffffffffffffff166308214112866040518263ffffffff1660e01b81526004016116a491906135d1565b60006040518083038186803b1580156116bc57600080fd5b505afa1580156116d0573d6000803e3d6000fd5b505050506040513d6000823e3d601f19601f820116820180604052508101906116f99190612db9565b905060008460400151905060008260000151604001519050813414611753576040517f08c379a000000000000000000000000000000000000000000000000000000000815260040161174a90613456565b60405180910390fd5b600060648360035461176591906137bb565b61176f919061378a565b90506000600260009054906101000a900473ffffffffffffffffffffffffffffffffffffffff1673ffffffffffffffffffffffffffffffffffffffff166108fc839081150290604051600060405180830381858888f193505050501580156117db573d6000803e3d6000fd5b5060008714611a2e57606484600660009054906101000a900473ffffffffffffffffffffffffffffffffffffffff1673ffffffffffffffffffffffffffffffffffffffff166313ca6ee68a6040518263ffffffff1660e01b815260040161184291906135d1565b60206040518083038186803b15801561185a57600080fd5b505afa15801561186e573d6000803e3d6000fd5b505050506040513d601f19601f820116820180604052508101906118929190612e2f565b61189c91906137bb565b6118a6919061378a565b90506000600660009054906101000a900473ffffffffffffffffffffffffffffffffffffffff1673ffffffffffffffffffffffffffffffffffffffff1662374bf1896040518263ffffffff1660e01b815260040161190491906135d1565b60206040518083038186803b15801561191c57600080fd5b505afa158015611930573d6000803e3d6000fd5b505050506040513d601f19601f820116820180604052508101906119549190612d04565b90508073ffffffffffffffffffffffffffffffffffffffff166108fc839081150290604051600060405180830381858888f1935050505015801561199c573d6000803e3d6000fd5b50600660009054906101000a900473ffffffffffffffffffffffffffffffffffffffff1673ffffffffffffffffffffffffffffffffffffffff16637311dda7898c6040518363ffffffff1660e01b81526004016119fa92919061365a565b600060405180830381600087803b158015611a1457600080fd5b505af1158015611a28573d6000803e3d6000fd5b50505050505b60008614611ac657600560009054906101000a900473ffffffffffffffffffffffffffffffffffffffff1673ffffffffffffffffffffffffffffffffffffffff166384d05523878b6040518363ffffffff1660e01b8152600401611a9392919061365a565b600060405180830381600087803b158015611aad57600080fd5b505af1158015611ac1573d6000803e3d6000fd5b505050505b8273ffffffffffffffffffffffffffffffffffffffff166108fc828487611aed9190613815565b611af79190613815565b9081150290604051600060405180830381858888f19350505050158015611b22573d6000803e3d6000fd5b50600460009054906101000a900473ffffffffffffffffffffffffffffffffffffffff1673ffffffffffffffffffffffffffffffffffffffff1663e57d6fb7848b876040518463ffffffff1660e01b8152600401611b8293929190613342565b600060405180830381600087803b158015611b9c57600080fd5b505af1158015611bb0573d6000803e3d6000fd5b50505050600460009054906101000a900473ffffffffffffffffffffffffffffffffffffffff1673ffffffffffffffffffffffffffffffffffffffff166342842e0e308a602001518c6040518463ffffffff1660e01b8152600401611c17939291906132bd565b600060405180830381600087803b158015611c3157600080fd5b505af1158015611c45573d6000803e3d6000fd5b50505050600460009054906101000a900473ffffffffffffffffffffffffffffffffffffffff1673ffffffffffffffffffffffffffffffffffffffff16630ef4122a8a336040518363ffffffff1660e01b8152600401611ca69291906135ec565b600060405180830381600087803b158015611cc057600080fd5b505af1158015611cd4573d6000803e3d6000fd5b50505050600760008a81526020019081526020016000206000808201600090556001820160006101000a81549073ffffffffffffffffffffffffffffffffffffffff02191690556002820160009055600382016000905550506000600960008b815260200190815260200160002054905060086001600880549050611d599190613815565b81548110611d6a57611d696139bd565b5b906000526020600020015460088281548110611d8957611d886139bd565b5b9060005260206000200181905550806009600060088481548110611db057611daf6139bd565b5b90600052602060002001548152602001908152602001600020819055506008805480611ddf57611dde61398e565b5b60019003818190600052602060002001600090559055600960008b81526020019081526020016000206000905550505050505050505050565b60026000541415611e5e576040517f08c379a0000000000000000000000000000000000000000000000000000000008152600401611e5590613536565b60405180910390fd5b60026000819055506000600880549050141580611e8f57506000600960008481526020019081526020016000205414155b80611eb85750816008600081548110611eab57611eaa6139bd565b5b9060005260206000200154145b611ef7576040517f08c379a0000000000000000000000000000000000000000000000000000000008152600401611eee906133b6565b60405180910390fd5b600460009054906101000a900473ffffffffffffffffffffffffffffffffffffffff1673ffffffffffffffffffffffffffffffffffffffff166308214112836040518263ffffffff1660e01b8152600401611f5291906135d1565b60006040518083038186803b158015611f6a57600080fd5b505afa158015611f7e573d6000803e3d6000fd5b505050506040513d6000823e3d601f19601f82011682018060405250810190611fa79190612db9565b600001516040015173ffffffffffffffffffffffffffffffffffffffff163373ffffffffffffffffffffffffffffffffffffffff16141561201d576040517f08c379a0000000000000000000000000000000000000000000000000000000008152600401612014906134f6565b60405180910390fd5b6007600083815260200190815260200160002060010160009054906101000a900473ffffffffffffffffffffffffffffffffffffffff1673ffffffffffffffffffffffffffffffffffffffff163373ffffffffffffffffffffffffffffffffffffffff1614156120c2576040517f08c379a00000000000000000000000000000000000000000000000000000000081526004016120b9906133f6565b60405180910390fd5b6007600083815260200190815260200160002060020154811161211a576040517f08c379a000000000000000000000000000000000000000000000000000000000815260040161211190613576565b60405180910390fd5b6007600083815260200190815260200160002060030154421115612173576040517f08c379a000000000000000000000000000000000000000000000000000000000815260040161216a90613416565b60405180910390fd5b336007600084815260200190815260200160002060010160006101000a81548173ffffffffffffffffffffffffffffffffffffffff021916908373ffffffffffffffffffffffffffffffffffffffff16021790555080600760008481526020019081526020016000206002018190555060016000819055505050565b60008060088054905014158061221957506000600960008481526020019081526020016000205414155b806122425750816008600081548110612235576122346139bd565b5b9060005260206000200154145b612281576040517f08c379a0000000000000000000000000000000000000000000000000000000008152600401612278906133b6565b60405180910390fd5b600760008381526020019081526020016000206003015442106122a757600090506122cc565b4260076000848152602001908152602001600020600301546122c99190613815565b90505b919050565b6122d9612a26565b600060088054905014158061230257506000600960008481526020019081526020016000205414155b8061232b575081600860008154811061231e5761231d6139bd565b5b9060005260206000200154145b61236a576040517f08c379a0000000000000000000000000000000000000000000000000000000008152600401612361906133b6565b60405180910390fd5b60076000838152602001908152602001600020604051806080016040529081600082015481526020016001820160009054906101000a900473ffffffffffffffffffffffffffffffffffffffff1673ffffffffffffffffffffffffffffffffffffffff1673ffffffffffffffffffffffffffffffffffffffff168152602001600282015481526020016003820154815250509050919050565b6000600460009054906101000a900473ffffffffffffffffffffffffffffffffffffffff1673ffffffffffffffffffffffffffffffffffffffff1663b9971b5d846040518263ffffffff1660e01b815260040161246091906135d1565b60206040518083038186803b15801561247857600080fd5b505afa15801561248c573d6000803e3d6000fd5b505050506040513d601f19601f820116820180604052508101906124b09190612d04565b90508073ffffffffffffffffffffffffffffffffffffffff168273ffffffffffffffffffffffffffffffffffffffff1614612520576040517f08c379a000000000000000000000000000000000000000000000000000000000815260040161251790613476565b60405180910390fd5b600460009054906101000a900473ffffffffffffffffffffffffffffffffffffffff1673ffffffffffffffffffffffffffffffffffffffff166342842e0e3084866040518463ffffffff1660e01b815260040161257f939291906132bd565b600060405180830381600087803b15801561259957600080fd5b505af11580156125ad573d6000803e3d6000fd5b50505050505050565b6060600880548060200260200160405190810160405280929190818152602001828054801561260457602002820191906000526020600020905b8154815260200190600101908083116125f0575b5050505050905090565b60026000541415612654576040517f08c379a000000000000000000000000000000000000000000000000000000000815260040161264b90613536565b60405180910390fd5b6002600081905550600460009054906101000a900473ffffffffffffffffffffffffffffffffffffffff1673ffffffffffffffffffffffffffffffffffffffff166308214112826040518263ffffffff1660e01b81526004016126b791906135d1565b60006040518083038186803b1580156126cf57600080fd5b505afa1580156126e3573d6000803e3d6000fd5b505050506040513d6000823e3d601f19601f8201168201806040525081019061270c9190612db9565b600001516040015173ffffffffffffffffffffffffffffffffffffffff163373ffffffffffffffffffffffffffffffffffffffff1614612781576040517f08c379a0000000000000000000000000000000000000000000000000000000008152600401612778906133d6565b60405180910390fd5b60006008805490501415806127aa57506000600960008381526020019081526020016000205414155b806127d357508060086000815481106127c6576127c56139bd565b5b9060005260206000200154145b612812576040517f08c379a0000000000000000000000000000000000000000000000000000000008152600401612809906133b6565b60405180910390fd5b600760008281526020019081526020016000206000808201600090556001820160006101000a81549073ffffffffffffffffffffffffffffffffffffffff0219169055600282016000905560038201600090555050600060096000838152602001908152602001600020549050600860016008805490506128939190613815565b815481106128a4576128a36139bd565b5b9060005260206000200154600882815481106128c3576128c26139bd565b5b90600052602060002001819055508060096000600884815481106128ea576128e96139bd565b5b906000526020600020015481526020019081526020016000208190555060088054806129195761291861398e565b5b60019003818190600052602060002001600090559055600960008381526020019081526020016000206000905550600160008190555050565b600160009054906101000a900473ffffffffffffffffffffffffffffffffffffffff1673ffffffffffffffffffffffffffffffffffffffff163373ffffffffffffffffffffffffffffffffffffffff16146129e2576040517f08c379a00000000000000000000000000000000000000000000000000000000081526004016129d990613496565b60405180910390fd5b80600260006101000a81548173ffffffffffffffffffffffffffffffffffffffff021916908373ffffffffffffffffffffffffffffffffffffffff16021790555050565b604051806080016040528060008152602001600073ffffffffffffffffffffffffffffffffffffffff16815260200160008152602001600081525090565b6000612a77612a72846136a8565b613683565b905082815260208101848484011115612a9357612a92613a34565b5b612a9e8482856138cc565b509392505050565b600081359050612ab581613ed2565b92915050565b600081519050612aca81613ed2565b92915050565b600081519050612adf81613ee9565b92915050565b60008083601f840112612afb57612afa613a20565b5b8235905067ffffffffffffffff811115612b1857612b17613a1b565b5b602083019150836001820283011115612b3457612b33613a2f565b5b9250929050565b600082601f830112612b5057612b4f613a20565b5b8151612b60848260208601612a64565b91505092915050565b600060c08284031215612b7f57612b7e613a25565b5b612b8960c0613683565b90506000612b9984828501612cc2565b6000830152506020612bad84828501612cc2565b6020830152506040612bc184828501612abb565b6040830152506060612bd584828501612ad0565b6060830152506080612be984828501612ad0565b60808301525060a082015167ffffffffffffffff811115612c0d57612c0c613a2a565b5b612c1984828501612b3b565b60a08301525092915050565b600060408284031215612c3b57612c3a613a25565b5b612c456040613683565b9050600082015167ffffffffffffffff811115612c6557612c64613a2a565b5b612c7184828501612b69565b600083015250602082015167ffffffffffffffff811115612c9557612c94613a2a565b5b612ca184828501612b3b565b60208301525092915050565b600081359050612cbc81613f00565b92915050565b600081519050612cd181613f00565b92915050565b600060208284031215612ced57612cec613a3e565b5b6000612cfb84828501612aa6565b91505092915050565b600060208284031215612d1a57612d19613a3e565b5b6000612d2884828501612abb565b91505092915050565b600080600080600060808688031215612d4d57612d4c613a3e565b5b6000612d5b88828901612aa6565b9550506020612d6c88828901612aa6565b9450506040612d7d88828901612cad565b935050606086013567ffffffffffffffff811115612d9e57612d9d613a39565b5b612daa88828901612ae5565b92509250509295509295909350565b600060208284031215612dcf57612dce613a3e565b5b600082015167ffffffffffffffff811115612ded57612dec613a39565b5b612df984828501612c25565b91505092915050565b600060208284031215612e1857612e17613a3e565b5b6000612e2684828501612cad565b91505092915050565b600060208284031215612e4557612e44613a3e565b5b6000612e5384828501612cc2565b91505092915050565b60008060408385031215612e7357612e72613a3e565b5b6000612e8185828601612cad565b9250506020612e9285828601612aa6565b9150509250929050565b60008060408385031215612eb357612eb2613a3e565b5b6000612ec185828601612cad565b9250506020612ed285828601612cad565b9150509250929050565b600080600060608486031215612ef557612ef4613a3e565b5b6000612f0386828701612cad565b9350506020612f1486828701612cad565b9250506040612f2586828701612cad565b9150509250925092565b6000612f3b8383613284565b60208301905092915050565b612f5081613849565b82525050565b612f5f81613849565b82525050565b6000612f70826136e9565b612f7a8185613701565b9350612f85836136d9565b8060005b83811015612fb6578151612f9d8882612f2f565b9750612fa8836136f4565b925050600181019050612f89565b5085935050505092915050565b612fcc81613867565b82525050565b6000612fde8385613712565b9350612feb8385846138bd565b612ff483613a43565b840190509392505050565b600061300c602d83613723565b915061301782613a54565b604082019050919050565b600061302f602c83613723565b915061303a82613aa3565b604082019050919050565b6000613052602383613723565b915061305d82613af2565b604082019050919050565b6000613075602a83613723565b915061308082613b41565b604082019050919050565b6000613098602783613723565b91506130a382613b90565b604082019050919050565b60006130bb604083613723565b91506130c682613bdf565b604082019050919050565b60006130de602e83613723565b91506130e982613c2e565b604082019050919050565b6000613101602783613723565b915061310c82613c7d565b604082019050919050565b6000613124603483613723565b915061312f82613ccc565b604082019050919050565b6000613147602583613723565b915061315282613d1b565b604082019050919050565b600061316a602783613723565b915061317582613d6a565b604082019050919050565b600061318d602d83613723565b915061319882613db9565b604082019050919050565b60006131b0601f83613723565b91506131bb82613e08565b602082019050919050565b60006131d3601d83613723565b91506131de82613e31565b602082019050919050565b60006131f6602d83613723565b915061320182613e5a565b604082019050919050565b6000613219601a83613723565b915061322482613ea9565b602082019050919050565b6080820160008201516132456000850182613284565b5060208201516132586020850182612f47565b50604082015161326b6040850182613284565b50606082015161327e6060850182613284565b50505050565b61328d816138b3565b82525050565b61329c816138b3565b82525050565b60006020820190506132b76000830184612f56565b92915050565b60006060820190506132d26000830186612f56565b6132df6020830185612f56565b6132ec6040830184613293565b949350505050565b60006080820190506133096000830188612f56565b6133166020830187612f56565b6133236040830186613293565b8181036060830152613336818486612fd2565b90509695505050505050565b60006060820190506133576000830186612f56565b6133646020830185613293565b6133716040830184613293565b949350505050565b600060208201905081810360008301526133938184612f65565b905092915050565b60006020820190506133b06000830184612fc3565b92915050565b600060208201905081810360008301526133cf81612fff565b9050919050565b600060208201905081810360008301526133ef81613022565b9050919050565b6000602082019050818103600083015261340f81613045565b9050919050565b6000602082019050818103600083015261342f81613068565b9050919050565b6000602082019050818103600083015261344f8161308b565b9050919050565b6000602082019050818103600083015261346f816130ae565b9050919050565b6000602082019050818103600083015261348f816130d1565b9050919050565b600060208201905081810360008301526134af816130f4565b9050919050565b600060208201905081810360008301526134cf81613117565b9050919050565b600060208201905081810360008301526134ef8161313a565b9050919050565b6000602082019050818103600083015261350f8161315d565b9050919050565b6000602082019050818103600083015261352f81613180565b9050919050565b6000602082019050818103600083015261354f816131a3565b9050919050565b6000602082019050818103600083015261356f816131c6565b9050919050565b6000602082019050818103600083015261358f816131e9565b9050919050565b600060208201905081810360008301526135af8161320c565b9050919050565b60006080820190506135cb600083018461322f565b92915050565b60006020820190506135e66000830184613293565b92915050565b60006040820190506136016000830185613293565b61360e6020830184612f56565b9392505050565b600060808201905061362a6000830187613293565b6136376020830186612f56565b6136446040830185613293565b6136516060830184613293565b95945050505050565b600060408201905061366f6000830185613293565b61367c6020830184613293565b9392505050565b600061368d61369e565b905061369982826138ff565b919050565b6000604051905090565b600067ffffffffffffffff8211156136c3576136c26139ec565b5b6136cc82613a43565b9050602081019050919050565b6000819050602082019050919050565b600081519050919050565b6000602082019050919050565b600082825260208201905092915050565b600082825260208201905092915050565b600082825260208201905092915050565b600061373f826138b3565b915061374a836138b3565b9250827fffffffffffffffffffffffffffffffffffffffffffffffffffffffffffffffff0382111561377f5761377e613930565b5b828201905092915050565b6000613795826138b3565b91506137a0836138b3565b9250826137b0576137af61395f565b5b828204905092915050565b60006137c6826138b3565b91506137d1836138b3565b9250817fffffffffffffffffffffffffffffffffffffffffffffffffffffffffffffffff048311821515161561380a57613809613930565b5b828202905092915050565b6000613820826138b3565b915061382b836138b3565b92508282101561383e5761383d613930565b5b828203905092915050565b600061385482613893565b9050919050565b60008115159050919050565b60007fffffffff0000000000000000000000000000000000000000000000000000000082169050919050565b600073ffffffffffffffffffffffffffffffffffffffff82169050919050565b6000819050919050565b82818337600083830152505050565b60005b838110156138ea5780820151818401526020810190506138cf565b838111156138f9576000848401525b50505050565b61390882613a43565b810181811067ffffffffffffffff82111715613927576139266139ec565b5b80604052505050565b7f4e487b7100000000000000000000000000000000000000000000000000000000600052601160045260246000fd5b7f4e487b7100000000000000000000000000000000000000000000000000000000600052601260045260246000fd5b7f4e487b7100000000000000000000000000000000000000000000000000000000600052603160045260246000fd5b7f4e487b7100000000000000000000000000000000000000000000000000000000600052603260045260246000fd5b7f4e487b7100000000000000000000000000000000000000000000000000000000600052604160045260246000fd5b600080fd5b600080fd5b600080fd5b600080fd5b600080fd5b600080fd5b600080fd5b600080fd5b6000601f19601f8301169050919050565b7f5468652070726f7669646564206e6674206973206e6f74206f6e20617563746960008201527f6f6e2063757272656e746c792e00000000000000000000000000000000000000602082015250565b7f4f6e6c79206f776e65722063616e20776974686472617720616e206e6674206660008201527f726f6d2061756374696f6e2e0000000000000000000000000000000000000000602082015250565b7f596f752061726520616c7265616479207468652068696768657374206269646460008201527f6572210000000000000000000000000000000000000000000000000000000000602082015250565b7f5468652061756374696f6e2068617320656e6465642e20596f752063616e6e6f60008201527f7420626964206e6f772e00000000000000000000000000000000000000000000602082015250565b7f4f6e6c79206c6973746564206e6674732063616e2062652070757420746f206160008201527f756374696f6e2e00000000000000000000000000000000000000000000000000602082015250565b7f506c65617365207375626d6974207468652061736b696e67207072696365206960008201527f6e206f7264657220746f20636f6d706c65746520746865207075726368617365602082015250565b7f4e66742063616e206f6e6c79206265207472616e736665726564206261636b2060008201527f746f207468652073656c6c65722e000000000000000000000000000000000000602082015250565b7f4f6e6c792073757065722061646d696e2063616e20706572666f726d2074686960008201527f73207461736b2e00000000000000000000000000000000000000000000000000602082015250565b7f4f6e6c792068696768657374206269646465722063616e20636c61696d20746860008201527f65204e46542061667465722061756374696f6e2e000000000000000000000000602082015250565b7f4f6e6c79206f776e65722063616e2070757420616e206e6674206f6e2061756360008201527f74696f6e2e000000000000000000000000000000000000000000000000000000602082015250565b7f4f776e65722063616e6e6f7420706c6163652062696420666f7220686973206f60008201527f776e204e46542e00000000000000000000000000000000000000000000000000602082015250565b7f4f6e6c79206f776e65722063616e20657874656e64207468652074696d65206f60008201527f6620616e2061756374696f6e2e00000000000000000000000000000000000000602082015250565b7f5265656e7472616e637947756172643a207265656e7472616e742063616c6c00600082015250565b7f4e667420697320616c726561647920707574206f6e2061756374696f6e000000600082015250565b7f596f75206861766520746f2062696420686967686572207468616e207468652060008201527f70726576696f7573206269642e00000000000000000000000000000000000000602082015250565b7f41756374696f6e20686173206e6f7420656e646564207965742e000000000000600082015250565b613edb81613849565b8114613ee657600080fd5b50565b613ef28161385b565b8114613efd57600080fd5b50565b613f09816138b3565b8114613f1457600080fd5b5056fea2646970667358221220eb38096bc07e67bebd0928c7f2c8f75fa985382c06ab1462105ff05c66ac08a464736f6c63430008070033",
  "immutableReferences": {},
  "source": "//SPDX-License-Identifier: Unlicensed\r\n\r\npragma solidity ^0.8.4;\r\n\r\nimport './NFT.sol';\r\nimport './Collections.sol';\r\nimport './Definitions.sol';\r\nimport './Businesses.sol';\r\nimport \"@openzeppelin/contracts/utils/Counters.sol\";\r\nimport \"@openzeppelin/contracts/token/ERC721/IERC721.sol\";\r\nimport \"@openzeppelin/contracts/token/ERC721/IERC721Receiver.sol\";\r\nimport '@openzeppelin/contracts/security/ReentrancyGuard.sol';\r\n\r\n/**\r\nThis contract is responsible for the whole functioning of the marketplace and it has access\r\nto the all the other contract instances.\r\n\r\n@author : Hritik Raheja\r\n*/\r\n\r\ncontract Marketplace is IERC721Receiver, ReentrancyGuard{\r\n\r\n    /**\r\n    1. superAdmin - The address of the super admin that can be seen by everyone.\r\n    2. feeAccount - The account address in which fee is to be deposited for the marketplace.\r\n    3. marketplaceFeePercent - The fee percent charged by the marketplace.\r\n    4. nftContractInstance - The instance of the nft contract used to call the methods of the same.\r\n    5. collectionsContractInstance - The instance of the collections contract used to call the methods of the same.\r\n    6. businessesContractInstance - The instance of the businesses contract used to call the methods of the same.\r\n    7. onGoingAuctions - This mapping maps the nft ids with their corresponding auction details.\r\n    8. nftsOnAuction - This array keeps track of the nft ids that are on auction.\r\n    9. nftIdToAuctionIndex - This mappings keep track of the index at which each nft id in the \r\n       nftsOnAuction array is stored.  \r\n    */\r\n    address public superAdmin;\r\n    address payable feeAccount;\r\n    uint public marketplaceFeePercent;\r\n    NFT nftContractInstance;\r\n    Collections collectionsContractInstance;\r\n    Businesses businessesContractInstance;\r\n    mapping(uint256 => Definitions.NftOnAuction) public onGoingAuctions;\r\n    uint256[] nftsOnAuction;\r\n    mapping (uint256 => uint256) nftIdToAuctionIndex;\r\n\r\n\r\n    event itemListed(address operator, address from, uint nftId, bytes v);\r\n\r\n    /**\r\n    This modifier allows only super admin to perform a specific task.\r\n    */\r\n    modifier onlySuperAdmin(){\r\n        require(msg.sender == superAdmin, \"Only super admin can perform this task.\");\r\n        _;\r\n    }\r\n\r\n    /**\r\n    The following parameters are passed to the constructor at the time of contract creation :-\r\n    1. _superAdmin - The address of the super admin.\r\n    2. _feeAccount - The account address in which the charged fee is to be deposited.\r\n    3. _fee - The fee percentage that is to be charged by the marketplace.\r\n    4. nftContractAddress - The address of the deployed NFT contract.\r\n    5. collectionsContractAddress - The address of the deployed Collections contract.\r\n    6. businessesContractAddress - The address of the deployed Businesses contract. \r\n    */\r\n    constructor(address _superAdmin, address payable _feeAccount, uint _fee, \r\n    address nftContractAddress, address collectionsContractAddress,\r\n    address businessesContractAddress) {\r\n        superAdmin = _superAdmin;\r\n        feeAccount = _feeAccount;\r\n        marketplaceFeePercent = _fee;\r\n        nftContractInstance = NFT(nftContractAddress);\r\n        collectionsContractInstance = Collections(collectionsContractAddress);\r\n        businessesContractInstance = Businesses(businessesContractAddress);\r\n        businessesContractInstance.setMarketplaceAddress(address(this));\r\n        nftContractInstance.setMarketplaceContractAddress(address(this));\r\n        collectionsContractInstance.setMarketplaceContractAddress(address(this));\r\n    }\r\n\r\n    /**\r\n    This method is oveeridden in order to create an implementation of the IERC721Receiver.\r\n    */\r\n    function onERC721Received(\r\n        address operator,\r\n        address from,\r\n        uint256 tokenId,\r\n        bytes calldata data\r\n    ) external override returns(bytes4){\r\n        emit itemListed(operator, from, tokenId, data);\r\n        return IERC721Receiver.onERC721Received.selector;\r\n    }\r\n\r\n    /**\r\n    This method is used to update the fee account address.\r\n    This method can only be called by the super admin.\r\n    @param _newFeeAccount - The new fee account address that is to be updated.\r\n    */\r\n    function updateFeeAccount(address _newFeeAccount) public onlySuperAdmin{\r\n        feeAccount = payable(_newFeeAccount);\r\n    }\r\n\r\n    /**\r\n    This method is used to update the super admin address.\r\n    This method can only be called by the super admin.\r\n    @param _newSuperAdmin - The new super admin address that is to be updated.\r\n    */\r\n    function changeSuperAdmin(address _newSuperAdmin) public onlySuperAdmin{\r\n        superAdmin = _newSuperAdmin;\r\n    }\r\n\r\n    /**\r\n    This method is used to update the fee percent.\r\n    This method can only be called by the super admin.\r\n    @param _newFee - The new fee percentage that is to be upadted.\r\n    */\r\n    function changeFeePercent(uint _newFee) public onlySuperAdmin{\r\n        marketplaceFeePercent = _newFee;\r\n    }\r\n\r\n    /**\r\n    This method sells the nft to the caller, transfers the ownership and performs the\r\n    various required manipulations in the businesses, collections and nfts contract.\r\n    @param _nftId - The id of the nft that is to be bought.\r\n    */\r\n    function buyNftAndChangeOwner(uint256 _nftId) public payable{\r\n        uint _bId = businessesContractInstance.nftIdToBusinessId(_nftId);\r\n        uint256 _cId = collectionsContractInstance.nftIdToCollectionId(_nftId);\r\n        Definitions.Nft memory _nft = nftContractInstance.getNftByTokenId(_nftId);\r\n        uint256 _price = _nft.details.price;\r\n        address _seller = _nft.details.seller;\r\n        require(msg.value == _price, \"Please submit the asking price in order to complete the purchase\");\r\n        uint256 feeAmount = marketplaceFeePercent * _price / 100;\r\n        uint256 businessFee = 0;\r\n        feeAccount.transfer(feeAmount);\r\n        if(_bId != 0){\r\n            businessFee = businessesContractInstance.getBusinessFeePercentByBusinessId(_bId) * _price / 100;\r\n            address businessAdmin = businessesContractInstance.getBusinessAdminByBusinessId(_bId);\r\n            payable(businessAdmin).transfer(businessFee);\r\n            businessesContractInstance.removeNftFromBusiness(_bId, _nftId);\r\n        }\r\n        if(_cId != 0){\r\n            collectionsContractInstance.removeNftFromCollection(_cId, _nftId);\r\n        }\r\n        payable(_seller).transfer(_price - feeAmount - businessFee);\r\n        IERC721(address(nftContractInstance)).safeTransferFrom(address(this), msg.sender,\r\n        _nftId);\r\n        nftContractInstance.setSold(_nftId, msg.sender);\r\n    }\r\n\r\n    /**\r\n    This method is called by the highest bidder of the nft after the completion of the auction.\r\n    It transfers the ownership to the bidder and performs various required manipulations\r\n    in the businesses, collections and nfts contract. It also calculates and transfers the marketplace and\r\n    business fees.\r\n    @param _nftId - The id of the nft that is to be claimed.\r\n    */\r\n    function claimNftAndTransferOwnershipAfterAuction(uint256 _nftId) public payable{\r\n        Definitions.NftOnAuction memory  _n = onGoingAuctions[_nftId];\r\n        require (block.timestamp > _n.bid_end_time, \"Auction has not ended yet.\");\r\n        require (msg.sender == _n.highestBidder, \"Only highest bidder can claim the NFT after auction.\");\r\n        uint _bId = businessesContractInstance.nftIdToBusinessId(_nftId);\r\n        uint256 _cId = collectionsContractInstance.nftIdToCollectionId(_nftId);\r\n        Definitions.Nft memory _nft = nftContractInstance.getNftByTokenId(_nftId);\r\n        uint256 _price = _n.highestBid;\r\n        address _seller = _nft.details.seller;\r\n        require(msg.value == _price, \"Please submit the asking price in order to complete the purchase\");\r\n        uint256 feeAmount = marketplaceFeePercent * _price / 100;\r\n        uint256 businessFee = 0;\r\n        feeAccount.transfer(feeAmount);\r\n        if(_bId != 0){\r\n            businessFee = businessesContractInstance.getBusinessFeePercentByBusinessId(_bId) * _price / 100;\r\n            address businessAdmin = businessesContractInstance.getBusinessAdminByBusinessId(_bId);\r\n            payable(businessAdmin).transfer(businessFee);\r\n            businessesContractInstance.removeNftFromBusiness(_bId, _nftId);\r\n        }\r\n        if(_cId != 0){\r\n            collectionsContractInstance.removeNftFromCollection(_cId, _nftId);\r\n        }\r\n        payable(_seller).transfer(_price - feeAmount - businessFee);\r\n        nftContractInstance.updatePrice(_seller, _nftId, _price);\r\n        IERC721(address(nftContractInstance)).safeTransferFrom(address(this), _n.highestBidder,\r\n        _nftId);\r\n        nftContractInstance.setSold(_nftId, msg.sender);\r\n        delete onGoingAuctions[_nftId];\r\n        uint256 _temp = nftIdToAuctionIndex[_nftId];\r\n        nftsOnAuction[_temp] = nftsOnAuction[nftsOnAuction.length - 1];\r\n        nftIdToAuctionIndex[nftsOnAuction[_temp]] = _temp;\r\n        nftsOnAuction.pop();\r\n        delete nftIdToAuctionIndex[_nftId];\r\n    }\r\n\r\n    /**\r\n    This method returns the balance of the fee account.\r\n    */\r\n    function getBalance() public view returns(uint256){\r\n        return feeAccount.balance;\r\n    }\r\n\r\n    /**\r\n    This method is called at the time when an nft is unlisted from the marketplace and the ownership\r\n    is transfered back to the seller of the NFT.\r\n    @param _nftId - The id of the NFT to be transfered back.\r\n    @param seller - The seller of the nft.\r\n    */\r\n    function transferNftBackToOwner(uint256 _nftId, address seller) external{\r\n        address nftSeller = nftContractInstance.getOwnerByNftId(_nftId);\r\n        require(seller == nftSeller, \"Nft can only be transfered back to the seller.\");\r\n        IERC721(address(nftContractInstance)).safeTransferFrom(address(this), seller, \r\n        _nftId);\r\n    }\r\n\r\n    /**\r\n    This method puts an nft up in the auction. This method can only be called by the seller \r\n    of the nft.\r\n    @param _nftId - The id of the nft to be auctioned.\r\n    @param basePrice - The base price of the nft at the starting of the auction.\r\n    @param biddingTimeInSec - Time period upto which the nft will be up for selling.\r\n    */\r\n    function putAnNftOnAuction(uint256 _nftId, uint256 basePrice, uint256 biddingTimeInSec) public nonReentrant{\r\n        Definitions.Nft memory _nft = nftContractInstance.getNftByTokenId(_nftId);\r\n        require (msg.sender == _nft.details.seller, \"Only owner can put an nft on auction.\");\r\n        require (_nft.details.isListed, \"Only listed nfts can be put to auction.\");\r\n        require (onGoingAuctions[_nftId].bid_end_time == 0, \"Nft is already put on auction\");\r\n        onGoingAuctions[_nftId] = Definitions.NftOnAuction(_nftId, address(0), basePrice, block.timestamp + biddingTimeInSec);\r\n        nftsOnAuction.push(_nftId);\r\n        nftIdToAuctionIndex[_nftId] = nftsOnAuction.length-1;\r\n    }\r\n\r\n    /**\r\n    This method allows the seller of the nft to withdraw it from the auction.\r\n    @param _nftId - The id of the nft to be withdrawn from the auction.\r\n    */\r\n    function withdrawAnNftFromAuction(uint256 _nftId) public nonReentrant{\r\n        require (msg.sender == nftContractInstance.getNftByTokenId(_nftId).details.seller, \"Only owner can withdraw an nft from auction.\");\r\n        require(nftsOnAuction.length != 0 || nftIdToAuctionIndex[_nftId] != 0 || nftsOnAuction[0] == _nftId, \"The provided nft is not on auction currently.\");\r\n        delete onGoingAuctions[_nftId];\r\n        uint256 _temp = nftIdToAuctionIndex[_nftId];\r\n        nftsOnAuction[_temp] = nftsOnAuction[nftsOnAuction.length - 1];\r\n        nftIdToAuctionIndex[nftsOnAuction[_temp]] = _temp;\r\n        nftsOnAuction.pop();\r\n        delete nftIdToAuctionIndex[_nftId];\r\n    }\r\n\r\n    /**\r\n    This method extends the bidding period of the particular nft in the auction.\r\n    @param _nftId - The id of the nft whose bidding period is to be extended.\r\n    @param _timeToBeAddedInSeconds - The time interval upto which the bidding period is to be extended.\r\n    */\r\n    function extendAuction(uint256 _nftId, uint256 _timeToBeAddedInSeconds) public nonReentrant{\r\n        require(nftsOnAuction.length != 0 || nftIdToAuctionIndex[_nftId] != 0 || nftsOnAuction[0] == _nftId, \"The provided nft is not on auction currently.\");\r\n        require (msg.sender == nftContractInstance.getNftByTokenId(_nftId).details.seller, \"Only owner can extend the time of an auction.\");\r\n        onGoingAuctions[_nftId].bid_end_time = onGoingAuctions[_nftId].bid_end_time + _timeToBeAddedInSeconds;\r\n    }\r\n\r\n    /**\r\n    This method places a higher bid for a particular nft in the auction.\r\n    @param _nftId - The id of the nft for which the bid is to be placed.\r\n    @param _bid - The higher bid to be placed by the sender.\r\n    */\r\n    function placeBid(uint256 _nftId, uint256 _bid) public nonReentrant{\r\n        require(nftsOnAuction.length != 0 || nftIdToAuctionIndex[_nftId] != 0 || nftsOnAuction[0] == _nftId, \"The provided nft is not on auction currently.\");\r\n        require (msg.sender != nftContractInstance.getNftByTokenId(_nftId).details.seller, \"Owner cannot place bid for his own NFT.\");\r\n        require (msg.sender != onGoingAuctions[_nftId].highestBidder, \"You are already the highest bidder!\");\r\n        require (_bid > onGoingAuctions[_nftId].highestBid, \"You have to bid higher than the previous bid.\");\r\n        require (block.timestamp <= onGoingAuctions[_nftId].bid_end_time, \"The auction has ended. You cannot bid now.\");\r\n        onGoingAuctions[_nftId].highestBidder = msg.sender;\r\n        onGoingAuctions[_nftId].highestBid = _bid;\r\n    }\r\n\r\n    /**\r\n    This method returns the auction details of the particular nft.\r\n    @param _nftId - The id of the nft whose details are to be fetched.\r\n    */\r\n    function getNftAuctionDetails(uint256 _nftId) public view returns(Definitions.NftOnAuction memory){\r\n        require(nftsOnAuction.length != 0 || nftIdToAuctionIndex[_nftId] != 0 || nftsOnAuction[0] == _nftId, \"The provided nft is not on auction currently.\");\r\n        return onGoingAuctions[_nftId];\r\n    }\r\n\r\n    /**\r\n    This method returns the ids of all the nfts that are currently in auction.\r\n    @return - An array containing list of all nft ids.\r\n    */\r\n    function getNftsInAuction() public view returns(uint256[] memory){\r\n        return nftsOnAuction;\r\n    }\r\n\r\n    /**\r\n    This method returns the time duration left before the closing of the auction\r\n    for the particular nft is seconds.\r\n    @param _nftId - The id of the nft whose time duration left is to be fetched.\r\n    */\r\n    function getTimeLeftInAuctionCompletion(uint256 _nftId) public view returns(uint256){\r\n        require(nftsOnAuction.length != 0 || nftIdToAuctionIndex[_nftId] != 0 || nftsOnAuction[0] == _nftId, \"The provided nft is not on auction currently.\");\r\n        if(block.timestamp >=  onGoingAuctions[_nftId].bid_end_time){\r\n            return 0;\r\n        }\r\n        return onGoingAuctions[_nftId].bid_end_time - block.timestamp;\r\n    }\r\n}",
  "sourcePath": "C:\\Users\\91805\\Desktop\\apynif\\src\\contracts\\Marketplace.sol",
  "compiler": {
    "name": "solc",
    "version": "0.8.7+commit.e28d00a7.Emscripten.clang"
  },
  "schemaVersion": "3.4.8",
  "updatedAt": "2022-07-22T14:49:43.574Z",
  "devdoc": {
    "author": ": Hritik Raheja",
    "kind": "dev",
    "methods": {
      "buyNftAndChangeOwner(uint256)": {
        "params": {
          "_nftId": "- The id of the nft that is to be bought."
        }
      },
      "changeFeePercent(uint256)": {
        "params": {
          "_newFee": "- The new fee percentage that is to be upadted."
        }
      },
      "changeSuperAdmin(address)": {
        "params": {
          "_newSuperAdmin": "- The new super admin address that is to be updated."
        }
      },
      "claimNftAndTransferOwnershipAfterAuction(uint256)": {
        "params": {
          "_nftId": "- The id of the nft that is to be claimed."
        }
      },
      "extendAuction(uint256,uint256)": {
        "params": {
          "_nftId": "- The id of the nft whose bidding period is to be extended.",
          "_timeToBeAddedInSeconds": "- The time interval upto which the bidding period is to be extended."
        }
      },
      "getNftAuctionDetails(uint256)": {
        "params": {
          "_nftId": "- The id of the nft whose details are to be fetched."
        }
      },
      "getNftsInAuction()": {
        "returns": {
          "_0": "- An array containing list of all nft ids."
        }
      },
      "getTimeLeftInAuctionCompletion(uint256)": {
        "params": {
          "_nftId": "- The id of the nft whose time duration left is to be fetched."
        }
      },
      "placeBid(uint256,uint256)": {
        "params": {
          "_bid": "- The higher bid to be placed by the sender.",
          "_nftId": "- The id of the nft for which the bid is to be placed."
        }
      },
      "putAnNftOnAuction(uint256,uint256,uint256)": {
        "params": {
          "_nftId": "- The id of the nft to be auctioned.",
          "basePrice": "- The base price of the nft at the starting of the auction.",
          "biddingTimeInSec": "- Time period upto which the nft will be up for selling."
        }
      },
      "transferNftBackToOwner(uint256,address)": {
        "params": {
          "_nftId": "- The id of the NFT to be transfered back.",
          "seller": "- The seller of the nft."
        }
      },
      "updateFeeAccount(address)": {
        "params": {
          "_newFeeAccount": "- The new fee account address that is to be updated."
        }
      },
      "withdrawAnNftFromAuction(uint256)": {
        "params": {
          "_nftId": "- The id of the nft to be withdrawn from the auction."
        }
      }
    },
    "version": 1
  },
  "userdoc": {
    "kind": "user",
    "methods": {
      "buyNftAndChangeOwner(uint256)": {
        "notice": "This method sells the nft to the caller, transfers the ownership and performs the various required manipulations in the businesses, collections and nfts contract."
      },
      "changeFeePercent(uint256)": {
        "notice": "This method is used to update the fee percent. This method can only be called by the super admin."
      },
      "changeSuperAdmin(address)": {
        "notice": "This method is used to update the super admin address. This method can only be called by the super admin."
      },
      "claimNftAndTransferOwnershipAfterAuction(uint256)": {
        "notice": "This method is called by the highest bidder of the nft after the completion of the auction. It transfers the ownership to the bidder and performs various required manipulations in the businesses, collections and nfts contract. It also calculates and transfers the marketplace and business fees."
      },
      "constructor": {
        "notice": "The following parameters are passed to the constructor at the time of contract creation :- 1. _superAdmin - The address of the super admin. 2. _feeAccount - The account address in which the charged fee is to be deposited. 3. _fee - The fee percentage that is to be charged by the marketplace. 4. nftContractAddress - The address of the deployed NFT contract. 5. collectionsContractAddress - The address of the deployed Collections contract. 6. businessesContractAddress - The address of the deployed Businesses contract. "
      },
      "extendAuction(uint256,uint256)": {
        "notice": "This method extends the bidding period of the particular nft in the auction."
      },
      "getBalance()": {
        "notice": "This method returns the balance of the fee account."
      },
      "getNftAuctionDetails(uint256)": {
        "notice": "This method returns the auction details of the particular nft."
      },
      "getNftsInAuction()": {
        "notice": "This method returns the ids of all the nfts that are currently in auction."
      },
      "getTimeLeftInAuctionCompletion(uint256)": {
        "notice": "This method returns the time duration left before the closing of the auction for the particular nft is seconds."
      },
      "onERC721Received(address,address,uint256,bytes)": {
        "notice": "This method is oveeridden in order to create an implementation of the IERC721Receiver."
      },
      "placeBid(uint256,uint256)": {
        "notice": "This method places a higher bid for a particular nft in the auction."
      },
      "putAnNftOnAuction(uint256,uint256,uint256)": {
        "notice": "This method puts an nft up in the auction. This method can only be called by the seller  of the nft."
      },
      "superAdmin()": {
        "notice": "1. superAdmin - The address of the super admin that can be seen by everyone. 2. feeAccount - The account address in which fee is to be deposited for the marketplace. 3. marketplaceFeePercent - The fee percent charged by the marketplace. 4. nftContractInstance - The instance of the nft contract used to call the methods of the same. 5. collectionsContractInstance - The instance of the collections contract used to call the methods of the same. 6. businessesContractInstance - The instance of the businesses contract used to call the methods of the same. 7. onGoingAuctions - This mapping maps the nft ids with their corresponding auction details. 8. nftsOnAuction - This array keeps track of the nft ids that are on auction. 9. nftIdToAuctionIndex - This mappings keep track of the index at which each nft id in the  nftsOnAuction array is stored.  "
      },
      "transferNftBackToOwner(uint256,address)": {
        "notice": "This method is called at the time when an nft is unlisted from the marketplace and the ownership is transfered back to the seller of the NFT."
      },
      "updateFeeAccount(address)": {
        "notice": "This method is used to update the fee account address. This method can only be called by the super admin."
      },
      "withdrawAnNftFromAuction(uint256)": {
        "notice": "This method allows the seller of the nft to withdraw it from the auction."
      }
    },
    "notice": "This contract is responsible for the whole functioning of the marketplace and it has access to the all the other contract instances.",
    "version": 1
  }
}