{
  "contractName": "NFT",
  "abi": [
    {
      "inputs": [],
      "stateMutability": "nonpayable",
      "type": "constructor"
    },
    {
      "anonymous": false,
      "inputs": [
        {
          "indexed": true,
          "internalType": "address",
          "name": "owner",
          "type": "address"
        },
        {
          "indexed": true,
          "internalType": "address",
          "name": "approved",
          "type": "address"
        },
        {
          "indexed": true,
          "internalType": "uint256",
          "name": "tokenId",
          "type": "uint256"
        }
      ],
      "name": "Approval",
      "type": "event"
    },
    {
      "anonymous": false,
      "inputs": [
        {
          "indexed": true,
          "internalType": "address",
          "name": "owner",
          "type": "address"
        },
        {
          "indexed": true,
          "internalType": "address",
          "name": "operator",
          "type": "address"
        },
        {
          "indexed": false,
          "internalType": "bool",
          "name": "approved",
          "type": "bool"
        }
      ],
      "name": "ApprovalForAll",
      "type": "event"
    },
    {
      "anonymous": false,
      "inputs": [
        {
          "indexed": true,
          "internalType": "address",
          "name": "from",
          "type": "address"
        },
        {
          "indexed": true,
          "internalType": "address",
          "name": "to",
          "type": "address"
        },
        {
          "indexed": true,
          "internalType": "uint256",
          "name": "tokenId",
          "type": "uint256"
        }
      ],
      "name": "Transfer",
      "type": "event"
    },
    {
      "anonymous": false,
      "inputs": [
        {
          "indexed": false,
          "internalType": "uint256",
          "name": "nftId",
          "type": "uint256"
        },
        {
          "indexed": false,
          "internalType": "uint256",
          "name": "price",
          "type": "uint256"
        },
        {
          "indexed": false,
          "internalType": "address",
          "name": "seller",
          "type": "address"
        },
        {
          "indexed": false,
          "internalType": "string",
          "name": "category",
          "type": "string"
        }
      ],
      "name": "nftCreated",
      "type": "event"
    },
    {
      "anonymous": false,
      "inputs": [
        {
          "indexed": false,
          "internalType": "uint256",
          "name": "nftId",
          "type": "uint256"
        },
        {
          "indexed": false,
          "internalType": "address",
          "name": "ownedBy",
          "type": "address"
        }
      ],
      "name": "nftDeleted",
      "type": "event"
    },
    {
      "anonymous": false,
      "inputs": [
        {
          "indexed": false,
          "internalType": "uint256",
          "name": "nftId",
          "type": "uint256"
        },
        {
          "indexed": false,
          "internalType": "address",
          "name": "seller",
          "type": "address"
        }
      ],
      "name": "nftListed",
      "type": "event"
    },
    {
      "anonymous": false,
      "inputs": [
        {
          "indexed": false,
          "internalType": "uint256",
          "name": "nftId",
          "type": "uint256"
        },
        {
          "indexed": false,
          "internalType": "address",
          "name": "seller",
          "type": "address"
        },
        {
          "indexed": false,
          "internalType": "uint256",
          "name": "newPrice",
          "type": "uint256"
        }
      ],
      "name": "nftPriceUpdated",
      "type": "event"
    },
    {
      "anonymous": false,
      "inputs": [
        {
          "indexed": false,
          "internalType": "uint256",
          "name": "nftId",
          "type": "uint256"
        },
        {
          "indexed": false,
          "internalType": "address",
          "name": "seller",
          "type": "address"
        }
      ],
      "name": "nftUnlisted",
      "type": "event"
    },
    {
      "inputs": [
        {
          "internalType": "address",
          "name": "to",
          "type": "address"
        },
        {
          "internalType": "uint256",
          "name": "tokenId",
          "type": "uint256"
        }
      ],
      "name": "approve",
      "outputs": [],
      "stateMutability": "nonpayable",
      "type": "function"
    },
    {
      "inputs": [
        {
          "internalType": "address",
          "name": "owner",
          "type": "address"
        }
      ],
      "name": "balanceOf",
      "outputs": [
        {
          "internalType": "uint256",
          "name": "",
          "type": "uint256"
        }
      ],
      "stateMutability": "view",
      "type": "function",
      "constant": true
    },
    {
      "inputs": [
        {
          "internalType": "uint256",
          "name": "tokenId",
          "type": "uint256"
        }
      ],
      "name": "burn",
      "outputs": [],
      "stateMutability": "nonpayable",
      "type": "function"
    },
    {
      "inputs": [
        {
          "internalType": "uint256",
          "name": "tokenId",
          "type": "uint256"
        }
      ],
      "name": "getApproved",
      "outputs": [
        {
          "internalType": "address",
          "name": "",
          "type": "address"
        }
      ],
      "stateMutability": "view",
      "type": "function",
      "constant": true
    },
    {
      "inputs": [
        {
          "internalType": "uint256",
          "name": "",
          "type": "uint256"
        }
      ],
      "name": "idToIndex",
      "outputs": [
        {
          "internalType": "uint256",
          "name": "",
          "type": "uint256"
        }
      ],
      "stateMutability": "view",
      "type": "function",
      "constant": true
    },
    {
      "inputs": [
        {
          "internalType": "address",
          "name": "owner",
          "type": "address"
        },
        {
          "internalType": "address",
          "name": "operator",
          "type": "address"
        }
      ],
      "name": "isApprovedForAll",
      "outputs": [
        {
          "internalType": "bool",
          "name": "",
          "type": "bool"
        }
      ],
      "stateMutability": "view",
      "type": "function",
      "constant": true
    },
    {
      "inputs": [],
      "name": "name",
      "outputs": [
        {
          "internalType": "string",
          "name": "",
          "type": "string"
        }
      ],
      "stateMutability": "view",
      "type": "function",
      "constant": true
    },
    {
      "inputs": [],
      "name": "nftCount",
      "outputs": [
        {
          "internalType": "uint256",
          "name": "",
          "type": "uint256"
        }
      ],
      "stateMutability": "view",
      "type": "function",
      "constant": true
    },
    {
      "inputs": [
        {
          "internalType": "uint256",
          "name": "",
          "type": "uint256"
        }
      ],
      "name": "nfts",
      "outputs": [
        {
          "internalType": "uint256",
          "name": "nftId",
          "type": "uint256"
        },
        {
          "internalType": "uint256",
          "name": "price",
          "type": "uint256"
        },
        {
          "internalType": "address",
          "name": "seller",
          "type": "address"
        },
        {
          "internalType": "bool",
          "name": "isSold",
          "type": "bool"
        },
        {
          "internalType": "bool",
          "name": "isListed",
          "type": "bool"
        },
        {
          "internalType": "string",
          "name": "category",
          "type": "string"
        }
      ],
      "stateMutability": "view",
      "type": "function",
      "constant": true
    },
    {
      "inputs": [
        {
          "internalType": "uint256",
          "name": "tokenId",
          "type": "uint256"
        }
      ],
      "name": "ownerOf",
      "outputs": [
        {
          "internalType": "address",
          "name": "",
          "type": "address"
        }
      ],
      "stateMutability": "view",
      "type": "function",
      "constant": true
    },
    {
      "inputs": [
        {
          "internalType": "address",
          "name": "from",
          "type": "address"
        },
        {
          "internalType": "address",
          "name": "to",
          "type": "address"
        },
        {
          "internalType": "uint256",
          "name": "tokenId",
          "type": "uint256"
        }
      ],
      "name": "safeTransferFrom",
      "outputs": [],
      "stateMutability": "nonpayable",
      "type": "function"
    },
    {
      "inputs": [
        {
          "internalType": "address",
          "name": "from",
          "type": "address"
        },
        {
          "internalType": "address",
          "name": "to",
          "type": "address"
        },
        {
          "internalType": "uint256",
          "name": "tokenId",
          "type": "uint256"
        },
        {
          "internalType": "bytes",
          "name": "data",
          "type": "bytes"
        }
      ],
      "name": "safeTransferFrom",
      "outputs": [],
      "stateMutability": "nonpayable",
      "type": "function"
    },
    {
      "inputs": [
        {
          "internalType": "address",
          "name": "operator",
          "type": "address"
        },
        {
          "internalType": "bool",
          "name": "approved",
          "type": "bool"
        }
      ],
      "name": "setApprovalForAll",
      "outputs": [],
      "stateMutability": "nonpayable",
      "type": "function"
    },
    {
      "inputs": [
        {
          "internalType": "uint256",
          "name": "",
          "type": "uint256"
        }
      ],
      "name": "singleNfts",
      "outputs": [
        {
          "internalType": "uint256",
          "name": "",
          "type": "uint256"
        }
      ],
      "stateMutability": "view",
      "type": "function",
      "constant": true
    },
    {
      "inputs": [
        {
          "internalType": "bytes4",
          "name": "interfaceId",
          "type": "bytes4"
        }
      ],
      "name": "supportsInterface",
      "outputs": [
        {
          "internalType": "bool",
          "name": "",
          "type": "bool"
        }
      ],
      "stateMutability": "view",
      "type": "function",
      "constant": true
    },
    {
      "inputs": [],
      "name": "symbol",
      "outputs": [
        {
          "internalType": "string",
          "name": "",
          "type": "string"
        }
      ],
      "stateMutability": "view",
      "type": "function",
      "constant": true
    },
    {
      "inputs": [
        {
          "internalType": "address",
          "name": "from",
          "type": "address"
        },
        {
          "internalType": "address",
          "name": "to",
          "type": "address"
        },
        {
          "internalType": "uint256",
          "name": "tokenId",
          "type": "uint256"
        }
      ],
      "name": "transferFrom",
      "outputs": [],
      "stateMutability": "nonpayable",
      "type": "function"
    },
    {
      "inputs": [
        {
          "internalType": "address",
          "name": "_contractAddress",
          "type": "address"
        }
      ],
      "name": "setMarketplaceContractAddress",
      "outputs": [],
      "stateMutability": "nonpayable",
      "type": "function"
    },
    {
      "inputs": [
        {
          "internalType": "string",
          "name": "_tokenUri",
          "type": "string"
        },
        {
          "internalType": "uint256",
          "name": "price",
          "type": "uint256"
        },
        {
          "internalType": "string",
          "name": "_category",
          "type": "string"
        },
        {
          "internalType": "address",
          "name": "_sender",
          "type": "address"
        }
      ],
      "name": "createNft",
      "outputs": [
        {
          "internalType": "uint256",
          "name": "",
          "type": "uint256"
        }
      ],
      "stateMutability": "nonpayable",
      "type": "function"
    },
    {
      "inputs": [
        {
          "internalType": "address",
          "name": "sender",
          "type": "address"
        },
        {
          "internalType": "uint256",
          "name": "_nftId",
          "type": "uint256"
        }
      ],
      "name": "deleteNft",
      "outputs": [],
      "stateMutability": "nonpayable",
      "type": "function"
    },
    {
      "inputs": [
        {
          "internalType": "address",
          "name": "_sender",
          "type": "address"
        },
        {
          "internalType": "uint256",
          "name": "_nftId",
          "type": "uint256"
        }
      ],
      "name": "removeNftFromSingleNftsArray",
      "outputs": [],
      "stateMutability": "nonpayable",
      "type": "function"
    },
    {
      "inputs": [
        {
          "internalType": "address",
          "name": "sender",
          "type": "address"
        },
        {
          "internalType": "uint256",
          "name": "_nftId",
          "type": "uint256"
        }
      ],
      "name": "addNftToSingleNftsArray",
      "outputs": [],
      "stateMutability": "nonpayable",
      "type": "function"
    },
    {
      "inputs": [
        {
          "internalType": "uint256",
          "name": "_nftId",
          "type": "uint256"
        }
      ],
      "name": "getNftByTokenId",
      "outputs": [
        {
          "components": [
            {
              "components": [
                {
                  "internalType": "uint256",
                  "name": "nftId",
                  "type": "uint256"
                },
                {
                  "internalType": "uint256",
                  "name": "price",
                  "type": "uint256"
                },
                {
                  "internalType": "address",
                  "name": "seller",
                  "type": "address"
                },
                {
                  "internalType": "bool",
                  "name": "isSold",
                  "type": "bool"
                },
                {
                  "internalType": "bool",
                  "name": "isListed",
                  "type": "bool"
                },
                {
                  "internalType": "string",
                  "name": "category",
                  "type": "string"
                }
              ],
              "internalType": "struct Definitions.NftDetails",
              "name": "details",
              "type": "tuple"
            },
            {
              "internalType": "string",
              "name": "uri",
              "type": "string"
            }
          ],
          "internalType": "struct Definitions.Nft",
          "name": "",
          "type": "tuple"
        }
      ],
      "stateMutability": "view",
      "type": "function",
      "constant": true
    },
    {
      "inputs": [],
      "name": "getListedSingleNftIds",
      "outputs": [
        {
          "internalType": "uint256[]",
          "name": "",
          "type": "uint256[]"
        }
      ],
      "stateMutability": "view",
      "type": "function",
      "constant": true
    },
    {
      "inputs": [
        {
          "internalType": "address",
          "name": "sender",
          "type": "address"
        },
        {
          "internalType": "uint256",
          "name": "_nftId",
          "type": "uint256"
        }
      ],
      "name": "listNft",
      "outputs": [],
      "stateMutability": "nonpayable",
      "type": "function"
    },
    {
      "inputs": [
        {
          "internalType": "address",
          "name": "sender",
          "type": "address"
        },
        {
          "internalType": "uint256",
          "name": "_nftId",
          "type": "uint256"
        }
      ],
      "name": "unlistNft",
      "outputs": [],
      "stateMutability": "nonpayable",
      "type": "function"
    },
    {
      "inputs": [
        {
          "internalType": "uint256",
          "name": "_nftId",
          "type": "uint256"
        },
        {
          "internalType": "address",
          "name": "_newOwner",
          "type": "address"
        }
      ],
      "name": "setSold",
      "outputs": [],
      "stateMutability": "nonpayable",
      "type": "function"
    },
    {
      "inputs": [
        {
          "internalType": "uint256",
          "name": "_nftId",
          "type": "uint256"
        }
      ],
      "name": "setUnsold",
      "outputs": [],
      "stateMutability": "nonpayable",
      "type": "function"
    },
    {
      "inputs": [
        {
          "internalType": "address",
          "name": "sender",
          "type": "address"
        },
        {
          "internalType": "uint256",
          "name": "_nftId",
          "type": "uint256"
        },
        {
          "internalType": "uint256",
          "name": "_price",
          "type": "uint256"
        }
      ],
      "name": "updatePrice",
      "outputs": [],
      "stateMutability": "nonpayable",
      "type": "function"
    },
    {
      "inputs": [
        {
          "internalType": "address",
          "name": "_owner",
          "type": "address"
        }
      ],
      "name": "getAllSingleNftsByOwnerAddress",
      "outputs": [
        {
          "internalType": "uint256[]",
          "name": "",
          "type": "uint256[]"
        }
      ],
      "stateMutability": "view",
      "type": "function",
      "constant": true
    },
    {
      "inputs": [
        {
          "internalType": "uint256",
          "name": "_nftId",
          "type": "uint256"
        }
      ],
      "name": "isListedSingleNftorNot",
      "outputs": [
        {
          "internalType": "bool",
          "name": "",
          "type": "bool"
        }
      ],
      "stateMutability": "view",
      "type": "function",
      "constant": true
    },
    {
      "inputs": [
        {
          "internalType": "uint256",
          "name": "_nftId",
          "type": "uint256"
        }
      ],
      "name": "getOwnerByNftId",
      "outputs": [
        {
          "internalType": "address",
          "name": "",
          "type": "address"
        }
      ],
      "stateMutability": "view",
      "type": "function",
      "constant": true
    },
    {
      "inputs": [
        {
          "internalType": "uint256",
          "name": "tokenId",
          "type": "uint256"
        }
      ],
      "name": "tokenURI",
      "outputs": [
        {
          "internalType": "string",
          "name": "",
          "type": "string"
        }
      ],
      "stateMutability": "view",
      "type": "function",
      "constant": true
    }
  ],
  "bytecode": "0x60806040523480156200001157600080fd5b506040518060400160405280601281526020017f4e6f6e2d46756e6769626c6520546f6b656e00000000000000000000000000008152506040518060400160405280600381526020017f4e46540000000000000000000000000000000000000000000000000000000000815250816000908051906020019062000096929190620000c0565b508060019080519060200190620000af929190620000c0565b5050506001600781905550620001d5565b828054620000ce9062000170565b90600052602060002090601f016020900481019282620000f257600085556200013e565b82601f106200010d57805160ff19168380011785556200013e565b828001600101855582156200013e579182015b828111156200013d57825182559160200191906001019062000120565b5b5090506200014d919062000151565b5090565b5b808211156200016c57600081600090555060010162000152565b5090565b600060028204905060018216806200018957607f821691505b60208210811415620001a0576200019f620001a6565b5b50919050565b7f4e487b7100000000000000000000000000000000000000000000000000000000600052602260045260246000fd5b614e5080620001e56000396000f3fe608060405234801561001057600080fd5b50600436106101fb5760003560e01c80634ad320301161011a578063b841b9dc116100ad578063c87b56dd1161007c578063c87b56dd146105f7578063e57d6fb714610627578063e985e9c514610643578063eac8b08a14610673578063f4ac6f8114610691576101fb565b8063b841b9dc14610573578063b88d4fde1461058f578063b916c0e4146105ab578063b9971b5d146105c7576101fb565b806395d89b41116100e957806395d89b41146105015780639d7a84b71461051f5780639fcf09821461053b578063a22cb46514610557576101fb565b80634ad320301461046957806354e6448e146104855780636352211e146104a157806370a08231146104d1576101fb565b8063192027eb116101925780633cf5f7dc116101615780633cf5f7dc146103d15780633df6db721461040157806342842e0e1461043157806342966c681461044d576101fb565b8063192027eb146103345780632376fada1461035057806323b872dd14610380578063265aa6211461039c576101fb565b8063095ea7b3116101ce578063095ea7b3146102ae5780630a780b61146102ca5780630af2c6ca146102fa5780630ef4122a14610318576101fb565b806301ffc9a71461020057806306fdde0314610230578063081812fc1461024e578063082141121461027e575b600080fd5b61021a60048036038101906102159190613959565b6106c1565b604051610227919061407e565b60405180910390f35b6102386107a3565b6040516102459190614099565b60405180910390f35b61026860048036038101906102639190613a52565b610835565b6040516102759190613ff5565b60405180910390f35b61029860048036038101906102939190613a52565b61087b565b6040516102a5919061431b565b60405180910390f35b6102c860048036038101906102c391906138c6565b6109f6565b005b6102e460048036038101906102df91906139b3565b610b0e565b6040516102f1919061433d565b60405180910390f35b610302610d6c565b60405161030f919061433d565b60405180910390f35b610332600480360381019061032d9190613a7f565b610d72565b005b61034e600480360381019061034991906138c6565b610e29565b005b61036a60048036038101906103659190613a52565b610fcb565b604051610377919061407e565b60405180910390f35b61039a600480360381019061039591906137b0565b611072565b005b6103b660048036038101906103b19190613a52565b6110d2565b6040516103c8969594939291906143b8565b60405180910390f35b6103eb60048036038101906103e69190613a52565b6111d0565b6040516103f8919061433d565b60405180910390f35b61041b60048036038101906104169190613a52565b6111f4565b604051610428919061433d565b60405180910390f35b61044b600480360381019061044691906137b0565b61120c565b005b61046760048036038101906104629190613a52565b61122c565b005b610483600480360381019061047e9190613716565b611288565b005b61049f600480360381019061049a91906138c6565b61151f565b005b6104bb60048036038101906104b69190613a52565b6116f4565b6040516104c89190613ff5565b60405180910390f35b6104eb60048036038101906104e69190613716565b6117a6565b6040516104f8919061433d565b60405180910390f35b61050961185e565b6040516105169190614099565b60405180910390f35b610539600480360381019061053491906138c6565b6118f0565b005b61055560048036038101906105509190613a52565b611a38565b005b610571600480360381019061056c9190613886565b611a6a565b005b61058d600480360381019061058891906138c6565b611a80565b005b6105a960048036038101906105a49190613803565b611c5e565b005b6105c560048036038101906105c091906138c6565b611cc0565b005b6105e160048036038101906105dc9190613a52565b611e87565b6040516105ee9190613ff5565b60405180910390f35b610611600480360381019061060c9190613a52565b611ec7565b60405161061e9190614099565b60405180910390f35b610641600480360381019061063c9190613906565b611ed9565b005b61065d60048036038101906106589190613770565b6120d3565b60405161066a919061407e565b60405180910390f35b61067b612167565b604051610688919061405c565b60405180910390f35b6106ab60048036038101906106a69190613716565b6122f3565b6040516106b8919061405c565b60405180910390f35b60007f80ac58cd000000000000000000000000000000000000000000000000000000007bffffffffffffffffffffffffffffffffffffffffffffffffffffffff1916827bffffffffffffffffffffffffffffffffffffffffffffffffffffffff1916148061078c57507f5b5e139f000000000000000000000000000000000000000000000000000000007bffffffffffffffffffffffffffffffffffffffffffffffffffffffff1916827bffffffffffffffffffffffffffffffffffffffffffffffffffffffff1916145b8061079c575061079b82612519565b5b9050919050565b6060600080546107b29061471b565b80601f01602080910402602001604051908101604052809291908181526020018280546107de9061471b565b801561082b5780601f106108005761010080835404028352916020019161082b565b820191906000526020600020905b81548152906001019060200180831161080e57829003601f168201915b5050505050905090565b600061084082612583565b6004600083815260200190815260200160002060009054906101000a900473ffffffffffffffffffffffffffffffffffffffff169050919050565b610883613465565b6040518060400160405280600a60008581526020019081526020016000206040518060c001604052908160008201548152602001600182015481526020016002820160009054906101000a900473ffffffffffffffffffffffffffffffffffffffff1673ffffffffffffffffffffffffffffffffffffffff1673ffffffffffffffffffffffffffffffffffffffff1681526020016002820160149054906101000a900460ff161515151581526020016002820160159054906101000a900460ff1615151515815260200160038201805461095c9061471b565b80601f01602080910402602001604051908101604052809291908181526020018280546109889061471b565b80156109d55780601f106109aa576101008083540402835291602001916109d5565b820191906000526020600020905b8154815290600101906020018083116109b857829003601f168201915b50505050508152505081526020016109ec84611ec7565b8152509050919050565b6000610a01826116f4565b90508073ffffffffffffffffffffffffffffffffffffffff168373ffffffffffffffffffffffffffffffffffffffff161415610a72576040517f08c379a0000000000000000000000000000000000000000000000000000000008152600401610a69906142bb565b60405180910390fd5b8073ffffffffffffffffffffffffffffffffffffffff16610a916125ce565b73ffffffffffffffffffffffffffffffffffffffff161480610ac05750610abf81610aba6125ce565b6120d3565b5b610aff576040517f08c379a0000000000000000000000000000000000000000000000000000000008152600401610af69061421b565b60405180910390fd5b610b0983836125d6565b505050565b600060096000815480929190610b239061477e565b9190505550610b32600861268f565b610b4582610b4060086126a5565b6126b3565b610b58610b5260086126a5565b8661288d565b600b610b6460086126a5565b90806001815401808255809150506001900390600052602060002001600090919091909150556040518060c00160405280610b9f60086126a5565b81526020018581526020018373ffffffffffffffffffffffffffffffffffffffff16815260200160001515815260200160001515815260200184815250600a6000610bea60086126a5565b8152602001908152602001600020600082015181600001556020820151816001015560408201518160020160006101000a81548173ffffffffffffffffffffffffffffffffffffffff021916908373ffffffffffffffffffffffffffffffffffffffff16021790555060608201518160020160146101000a81548160ff02191690831515021790555060808201518160020160156101000a81548160ff02191690831515021790555060a0820151816003019080519060200190610caf929190613485565b509050506001600b80549050610cc59190614607565b600c6000610cd360086126a5565b815260200190815260200160002081905550610d12600d60009054906101000a900473ffffffffffffffffffffffffffffffffffffffff166001611a6a565b7f29d6fd0fb9b633cae74998fb44b66c2419a22b3897f27d8b0dd0afdeda76f4a4610d3d60086126a5565b858486604051610d509493929190614420565b60405180910390a1610d6260086126a5565b9050949350505050565b60095481565b6001600a600084815260200190815260200160002060020160146101000a81548160ff0219169083151502179055506000600a600084815260200190815260200160002060020160156101000a81548160ff02191690831515021790555080600a600084815260200190815260200160002060020160006101000a81548173ffffffffffffffffffffffffffffffffffffffff021916908373ffffffffffffffffffffffffffffffffffffffff1602179055505050565b600a600082815260200190815260200160002060020160009054906101000a900473ffffffffffffffffffffffffffffffffffffffff1673ffffffffffffffffffffffffffffffffffffffff168273ffffffffffffffffffffffffffffffffffffffff1614610ecd576040517f08c379a0000000000000000000000000000000000000000000000000000000008152600401610ec4906140bb565b60405180910390fd5b6001600a600083815260200190815260200160002060020160156101000a81548160ff0219169083151502179055506000600a600083815260200190815260200160002060020160146101000a81548160ff021916908315150217905550610f5833600d60009054906101000a900473ffffffffffffffffffffffffffffffffffffffff168361120c565b7fa83b3a7575de8044351f4a032ed838da1e7099b6158235b8d4359e1ad95f159781600a600084815260200190815260200160002060020160009054906101000a900473ffffffffffffffffffffffffffffffffffffffff16604051610fbf929190614358565b60405180910390a15050565b600080600c60008481526020019081526020016000205490506000600b80549050148061102c5750600a600084815260200190815260200160002060000154600b828154811061101e5761101d6148b4565b5b906000526020600020015414155b806110585750600a600084815260200190815260200160002060020160159054906101000a900460ff16155b1561106757600091505061106d565b60019150505b919050565b61108361107d6125ce565b82612901565b6110c2576040517f08c379a00000000000000000000000000000000000000000000000000000000081526004016110b9906142db565b60405180910390fd5b6110cd838383612996565b505050565b600a6020528060005260406000206000915090508060000154908060010154908060020160009054906101000a900473ffffffffffffffffffffffffffffffffffffffff16908060020160149054906101000a900460ff16908060020160159054906101000a900460ff169080600301805461114d9061471b565b80601f01602080910402602001604051908101604052809291908181526020018280546111799061471b565b80156111c65780601f1061119b576101008083540402835291602001916111c6565b820191906000526020600020905b8154815290600101906020018083116111a957829003601f168201915b5050505050905086565b600b81815481106111e057600080fd5b906000526020600020016000915090505481565b600c6020528060005260406000206000915090505481565b61122783838360405180602001604052806000815250611c5e565b505050565b61123d6112376125ce565b82612901565b61127c576040517f08c379a0000000000000000000000000000000000000000000000000000000008152600401611273906142db565b60405180910390fd5b61128581612bfd565b50565b600260075414156112ce576040517f08c379a00000000000000000000000000000000000000000000000000000000081526004016112c5906142fb565b60405180910390fd5b6002600781905550600073ffffffffffffffffffffffffffffffffffffffff16600d60009054906101000a900473ffffffffffffffffffffffffffffffffffffffff1673ffffffffffffffffffffffffffffffffffffffff161461149257600e60009054906101000a900473ffffffffffffffffffffffffffffffffffffffff1673ffffffffffffffffffffffffffffffffffffffff166329575f6a6040518163ffffffff1660e01b815260040160206040518083038186803b15801561139457600080fd5b505afa1580156113a8573d6000803e3d6000fd5b505050506040513d601f19601f820116820180604052508101906113cc9190613743565b73ffffffffffffffffffffffffffffffffffffffff163373ffffffffffffffffffffffffffffffffffffffff1614806114525750600d60009054906101000a900473ffffffffffffffffffffffffffffffffffffffff1673ffffffffffffffffffffffffffffffffffffffff163373ffffffffffffffffffffffffffffffffffffffff16145b611491576040517f08c379a00000000000000000000000000000000000000000000000000000000081526004016114889061427b565b60405180910390fd5b5b80600d60006101000a81548173ffffffffffffffffffffffffffffffffffffffff021916908373ffffffffffffffffffffffffffffffffffffffff16021790555080600e60006101000a81548173ffffffffffffffffffffffffffffffffffffffff021916908373ffffffffffffffffffffffffffffffffffffffff160217905550600160078190555050565b600a600082815260200190815260200160002060020160009054906101000a900473ffffffffffffffffffffffffffffffffffffffff1673ffffffffffffffffffffffffffffffffffffffff168273ffffffffffffffffffffffffffffffffffffffff16146115c3576040517f08c379a00000000000000000000000000000000000000000000000000000000081526004016115ba906141bb565b60405180910390fd5b6000600a600083815260200190815260200160002060020160156101000a81548160ff021916908315150217905550600e60009054906101000a900473ffffffffffffffffffffffffffffffffffffffff1673ffffffffffffffffffffffffffffffffffffffff16639c8e0cfd82846040518363ffffffff1660e01b815260040161164f929190614358565b600060405180830381600087803b15801561166957600080fd5b505af115801561167d573d6000803e3d6000fd5b505050507fbb374b4deb659483a03557dfd24c616b9c55492ce8890164ae682cf7ede0620f81600a600084815260200190815260200160002060020160009054906101000a900473ffffffffffffffffffffffffffffffffffffffff166040516116e8929190614358565b60405180910390a15050565b6000806002600084815260200190815260200160002060009054906101000a900473ffffffffffffffffffffffffffffffffffffffff169050600073ffffffffffffffffffffffffffffffffffffffff168173ffffffffffffffffffffffffffffffffffffffff16141561179d576040517f08c379a00000000000000000000000000000000000000000000000000000000081526004016117949061429b565b60405180910390fd5b80915050919050565b60008073ffffffffffffffffffffffffffffffffffffffff168273ffffffffffffffffffffffffffffffffffffffff161415611817576040517f08c379a000000000000000000000000000000000000000000000000000000000815260040161180e9061419b565b60405180910390fd5b600360008373ffffffffffffffffffffffffffffffffffffffff1673ffffffffffffffffffffffffffffffffffffffff168152602001908152602001600020549050919050565b60606001805461186d9061471b565b80601f01602080910402602001604051908101604052809291908181526020018280546118999061471b565b80156118e65780601f106118bb576101008083540402835291602001916118e6565b820191906000526020600020905b8154815290600101906020018083116118c957829003601f168201915b5050505050905090565b6000600a60008381526020019081526020016000206000015490506000600a600084815260200190815260200160002060020160009054906101000a900473ffffffffffffffffffffffffffffffffffffffff16905060008311801561195f575061195b60086126a5565b8311155b801561196a57508183145b80156119a157508073ffffffffffffffffffffffffffffffffffffffff168473ffffffffffffffffffffffffffffffffffffffff16145b6119e0576040517f08c379a00000000000000000000000000000000000000000000000000000000081526004016119d7906141fb565b60405180910390fd5b600b8390806001815401808255809150506001900390600052602060002001600090919091909150556001600b80549050611a1b9190614607565b600c60008581526020019081526020016000208190555050505050565b6000600a600083815260200190815260200160002060020160146101000a81548160ff02191690831515021790555050565b611a7c611a756125ce565b8383612c09565b5050565b600a600082815260200190815260200160002060020160009054906101000a900473ffffffffffffffffffffffffffffffffffffffff1673ffffffffffffffffffffffffffffffffffffffff168273ffffffffffffffffffffffffffffffffffffffff1614611b24576040517f08c379a0000000000000000000000000000000000000000000000000000000008152600401611b1b9061417b565b60405180910390fd5b6000600c600083815260200190815260200160002054905060006001600b80549050611b509190614607565b905060008114611c19576000600b8381548110611b7057611b6f6148b4565b5b90600052602060002001549050600b8281548110611b9157611b906148b4565b5b9060005260206000200154600b8481548110611bb057611baf6148b4565b5b906000526020600020018190555080600b8381548110611bd357611bd26148b4565b5b906000526020600020018190555082600c6000600b8681548110611bfa57611bf96148b4565b5b9060005260206000200154815260200190815260200160002081905550505b600b805480611c2b57611c2a614885565b5b60019003818190600052602060002001600090559055600c60008481526020019081526020016000206000905550505050565b611c6f611c696125ce565b83612901565b611cae576040517f08c379a0000000000000000000000000000000000000000000000000000000008152600401611ca5906142db565b60405180910390fd5b611cba84848484612d76565b50505050565b600a600082815260200190815260200160002060020160009054906101000a900473ffffffffffffffffffffffffffffffffffffffff1673ffffffffffffffffffffffffffffffffffffffff168273ffffffffffffffffffffffffffffffffffffffff1614611d64576040517f08c379a0000000000000000000000000000000000000000000000000000000008152600401611d5b9061417b565b60405180910390fd5b611d6d81612bfd565b611d778282611a80565b600a600082815260200190815260200160002060008082016000905560018201600090556002820160006101000a81549073ffffffffffffffffffffffffffffffffffffffff02191690556002820160146101000a81549060ff02191690556002820160156101000a81549060ff0219169055600382016000611dfa919061350b565b505060096000815480929190611e0f906146f1565b91905055507ff4a7cec8557977f7da8049ade4c958893eeaa0002ae7296a21ae775437e7872981600a600084815260200190815260200160002060020160009054906101000a900473ffffffffffffffffffffffffffffffffffffffff16604051611e7b929190614358565b60405180910390a15050565b6000600a600083815260200190815260200160002060020160009054906101000a900473ffffffffffffffffffffffffffffffffffffffff169050919050565b6060611ed282612dd2565b9050919050565b600a600083815260200190815260200160002060020160009054906101000a900473ffffffffffffffffffffffffffffffffffffffff1673ffffffffffffffffffffffffffffffffffffffff163373ffffffffffffffffffffffffffffffffffffffff1614806120035750600d60009054906101000a900473ffffffffffffffffffffffffffffffffffffffff1673ffffffffffffffffffffffffffffffffffffffff163373ffffffffffffffffffffffffffffffffffffffff161480156120025750600a600083815260200190815260200160002060020160009054906101000a900473ffffffffffffffffffffffffffffffffffffffff1673ffffffffffffffffffffffffffffffffffffffff168373ffffffffffffffffffffffffffffffffffffffff16145b5b612042576040517f08c379a00000000000000000000000000000000000000000000000000000000081526004016120399061425b565b60405180910390fd5b80600a6000848152602001908152602001600020600101819055507f89fcc0e7a5af5ad59a4860776996aa425526ca15c4da59ab990bd8ef17b6568982600a600085815260200190815260200160002060020160009054906101000a900473ffffffffffffffffffffffffffffffffffffffff16836040516120c693929190614381565b60405180910390a1505050565b6000600560008473ffffffffffffffffffffffffffffffffffffffff1673ffffffffffffffffffffffffffffffffffffffff16815260200190815260200160002060008373ffffffffffffffffffffffffffffffffffffffff1673ffffffffffffffffffffffffffffffffffffffff16815260200190815260200160002060009054906101000a900460ff16905092915050565b60606000805b600b805490508110156121e357600a6000600b8381548110612192576121916148b4565b5b9060005260206000200154815260200190815260200160002060020160159054906101000a900460ff16156121d05781806121cc9061477e565b9250505b80806121db9061477e565b91505061216d565b5060008167ffffffffffffffff811115612200576121ff6148e3565b5b60405190808252806020026020018201604052801561222e5781602001602082028036833780820191505090505b5090506000805b600b805490508110156122e957600a6000600b838154811061225a576122596148b4565b5b9060005260206000200154815260200190815260200160002060020160159054906101000a900460ff16156122d657600b818154811061229d5761229c6148b4565b5b90600052602060002001548383815181106122bb576122ba6148b4565b5b60200260200101818152505081806122d29061477e565b9250505b80806122e19061477e565b915050612235565b5081935050505090565b60606000805b600b805490508110156123b0578373ffffffffffffffffffffffffffffffffffffffff16600a6000600b8481548110612335576123346148b4565b5b9060005260206000200154815260200190815260200160002060020160009054906101000a900473ffffffffffffffffffffffffffffffffffffffff1673ffffffffffffffffffffffffffffffffffffffff16141561239d5781806123999061477e565b9250505b80806123a89061477e565b9150506122f9565b5060008167ffffffffffffffff8111156123cd576123cc6148e3565b5b6040519080825280602002602001820160405280156123fb5781602001602082028036833780820191505090505b5090506000805b600b8054905081101561250d578573ffffffffffffffffffffffffffffffffffffffff16600a6000600b848154811061243e5761243d6148b4565b5b9060005260206000200154815260200190815260200160002060020160009054906101000a900473ffffffffffffffffffffffffffffffffffffffff1673ffffffffffffffffffffffffffffffffffffffff1614156124fa57600a6000600b83815481106124af576124ae6148b4565b5b90600052602060002001548152602001908152602001600020600001548383815181106124df576124de6148b4565b5b60200260200101818152505081806124f69061477e565b9250505b80806125059061477e565b915050612402565b50819350505050919050565b60007f01ffc9a7000000000000000000000000000000000000000000000000000000007bffffffffffffffffffffffffffffffffffffffffffffffffffffffff1916827bffffffffffffffffffffffffffffffffffffffffffffffffffffffff1916149050919050565b61258c81612ee5565b6125cb576040517f08c379a00000000000000000000000000000000000000000000000000000000081526004016125c29061429b565b60405180910390fd5b50565b600033905090565b816004600083815260200190815260200160002060006101000a81548173ffffffffffffffffffffffffffffffffffffffff021916908373ffffffffffffffffffffffffffffffffffffffff160217905550808273ffffffffffffffffffffffffffffffffffffffff16612649836116f4565b73ffffffffffffffffffffffffffffffffffffffff167f8c5be1e5ebec7d5bd14f71427d1e84f3dd0314c0f7b2291e5b200ac8c7c3b92560405160405180910390a45050565b6001816000016000828254019250508190555050565b600081600001549050919050565b600073ffffffffffffffffffffffffffffffffffffffff168273ffffffffffffffffffffffffffffffffffffffff161415612723576040517f08c379a000000000000000000000000000000000000000000000000000000000815260040161271a9061423b565b60405180910390fd5b61272c81612ee5565b1561276c576040517f08c379a00000000000000000000000000000000000000000000000000000000081526004016127639061411b565b60405180910390fd5b61277860008383612f51565b6001600360008473ffffffffffffffffffffffffffffffffffffffff1673ffffffffffffffffffffffffffffffffffffffff16815260200190815260200160002060008282546127c89190614580565b92505081905550816002600083815260200190815260200160002060006101000a81548173ffffffffffffffffffffffffffffffffffffffff021916908373ffffffffffffffffffffffffffffffffffffffff160217905550808273ffffffffffffffffffffffffffffffffffffffff16600073ffffffffffffffffffffffffffffffffffffffff167fddf252ad1be2c89b69c2b068fc378daa952ba7f163c4a11628f55a4df523b3ef60405160405180910390a461288960008383612f56565b5050565b61289682612ee5565b6128d5576040517f08c379a00000000000000000000000000000000000000000000000000000000081526004016128cc906141db565b60405180910390fd5b806006600084815260200190815260200160002090805190602001906128fc929190613485565b505050565b60008061290d836116f4565b90508073ffffffffffffffffffffffffffffffffffffffff168473ffffffffffffffffffffffffffffffffffffffff16148061294f575061294e81856120d3565b5b8061298d57508373ffffffffffffffffffffffffffffffffffffffff1661297584610835565b73ffffffffffffffffffffffffffffffffffffffff16145b91505092915050565b8273ffffffffffffffffffffffffffffffffffffffff166129b6826116f4565b73ffffffffffffffffffffffffffffffffffffffff1614612a0c576040517f08c379a0000000000000000000000000000000000000000000000000000000008152600401612a03906140fb565b60405180910390fd5b600073ffffffffffffffffffffffffffffffffffffffff168273ffffffffffffffffffffffffffffffffffffffff161415612a7c576040517f08c379a0000000000000000000000000000000000000000000000000000000008152600401612a739061413b565b60405180910390fd5b612a87838383612f51565b612a926000826125d6565b6001600360008573ffffffffffffffffffffffffffffffffffffffff1673ffffffffffffffffffffffffffffffffffffffff1681526020019081526020016000206000828254612ae29190614607565b925050819055506001600360008473ffffffffffffffffffffffffffffffffffffffff1673ffffffffffffffffffffffffffffffffffffffff1681526020019081526020016000206000828254612b399190614580565b92505081905550816002600083815260200190815260200160002060006101000a81548173ffffffffffffffffffffffffffffffffffffffff021916908373ffffffffffffffffffffffffffffffffffffffff160217905550808273ffffffffffffffffffffffffffffffffffffffff168473ffffffffffffffffffffffffffffffffffffffff167fddf252ad1be2c89b69c2b068fc378daa952ba7f163c4a11628f55a4df523b3ef60405160405180910390a4612bf8838383612f56565b505050565b612c0681612f5b565b50565b8173ffffffffffffffffffffffffffffffffffffffff168373ffffffffffffffffffffffffffffffffffffffff161415612c78576040517f08c379a0000000000000000000000000000000000000000000000000000000008152600401612c6f9061415b565b60405180910390fd5b80600560008573ffffffffffffffffffffffffffffffffffffffff1673ffffffffffffffffffffffffffffffffffffffff16815260200190815260200160002060008473ffffffffffffffffffffffffffffffffffffffff1673ffffffffffffffffffffffffffffffffffffffff16815260200190815260200160002060006101000a81548160ff0219169083151502179055508173ffffffffffffffffffffffffffffffffffffffff168373ffffffffffffffffffffffffffffffffffffffff167f17307eab39ab6107e8899845ad3d59bd9653f200f220920489ca2b5937696c3183604051612d69919061407e565b60405180910390a3505050565b612d81848484612996565b612d8d84848484612fae565b612dcc576040517f08c379a0000000000000000000000000000000000000000000000000000000008152600401612dc3906140db565b60405180910390fd5b50505050565b6060612ddd82612583565b6000600660008481526020019081526020016000208054612dfd9061471b565b80601f0160208091040260200160405190810160405280929190818152602001828054612e299061471b565b8015612e765780601f10612e4b57610100808354040283529160200191612e76565b820191906000526020600020905b815481529060010190602001808311612e5957829003601f168201915b505050505090506000612e87613145565b9050600081511415612e9d578192505050612ee0565b600082511115612ed2578082604051602001612eba929190613fd1565b60405160208183030381529060405292505050612ee0565b612edb8461315c565b925050505b919050565b60008073ffffffffffffffffffffffffffffffffffffffff166002600084815260200190815260200160002060009054906101000a900473ffffffffffffffffffffffffffffffffffffffff1673ffffffffffffffffffffffffffffffffffffffff1614159050919050565b505050565b505050565b612f64816131c4565b6000600660008381526020019081526020016000208054612f849061471b565b905014612fab57600660008281526020019081526020016000206000612faa919061350b565b5b50565b6000612fcf8473ffffffffffffffffffffffffffffffffffffffff166132e1565b15613138578373ffffffffffffffffffffffffffffffffffffffff1663150b7a02612ff86125ce565b8786866040518563ffffffff1660e01b815260040161301a9493929190614010565b602060405180830381600087803b15801561303457600080fd5b505af192505050801561306557506040513d601f19601f820116820180604052508101906130629190613986565b60015b6130e8573d8060008114613095576040519150601f19603f3d011682016040523d82523d6000602084013e61309a565b606091505b506000815114156130e0576040517f08c379a00000000000000000000000000000000000000000000000000000000081526004016130d7906140db565b60405180910390fd5b805181602001fd5b63150b7a0260e01b7bffffffffffffffffffffffffffffffffffffffffffffffffffffffff1916817bffffffffffffffffffffffffffffffffffffffffffffffffffffffff19161491505061313d565b600190505b949350505050565b606060405180602001604052806000815250905090565b606061316782612583565b6000613171613145565b9050600081511161319157604051806020016040528060008152506131bc565b8061319b84613304565b6040516020016131ac929190613fd1565b6040516020818303038152906040525b915050919050565b60006131cf826116f4565b90506131dd81600084612f51565b6131e86000836125d6565b6001600360008373ffffffffffffffffffffffffffffffffffffffff1673ffffffffffffffffffffffffffffffffffffffff16815260200190815260200160002060008282546132389190614607565b925050819055506002600083815260200190815260200160002060006101000a81549073ffffffffffffffffffffffffffffffffffffffff021916905581600073ffffffffffffffffffffffffffffffffffffffff168273ffffffffffffffffffffffffffffffffffffffff167fddf252ad1be2c89b69c2b068fc378daa952ba7f163c4a11628f55a4df523b3ef60405160405180910390a46132dd81600084612f56565b5050565b6000808273ffffffffffffffffffffffffffffffffffffffff163b119050919050565b6060600082141561334c576040518060400160405280600181526020017f30000000000000000000000000000000000000000000000000000000000000008152509050613460565b600082905060005b6000821461337e5780806133679061477e565b915050600a8261337791906145d6565b9150613354565b60008167ffffffffffffffff81111561339a576133996148e3565b5b6040519080825280601f01601f1916602001820160405280156133cc5781602001600182028036833780820191505090505b5090505b60008514613459576001826133e59190614607565b9150600a856133f491906147c7565b60306134009190614580565b60f81b818381518110613416576134156148b4565b5b60200101907effffffffffffffffffffffffffffffffffffffffffffffffffffffffffffff1916908160001a905350600a8561345291906145d6565b94506133d0565b8093505050505b919050565b604051806040016040528061347861354b565b8152602001606081525090565b8280546134919061471b565b90600052602060002090601f0160209004810192826134b357600085556134fa565b82601f106134cc57805160ff19168380011785556134fa565b828001600101855582156134fa579182015b828111156134f95782518255916020019190600101906134de565b5b509050613507919061359b565b5090565b5080546135179061471b565b6000825580601f106135295750613548565b601f016020900490600052602060002090810190613547919061359b565b5b50565b6040518060c001604052806000815260200160008152602001600073ffffffffffffffffffffffffffffffffffffffff168152602001600015158152602001600015158152602001606081525090565b5b808211156135b457600081600090555060010161359c565b5090565b60006135cb6135c684614491565b61446c565b9050828152602081018484840111156135e7576135e6614917565b5b6135f28482856146af565b509392505050565b600061360d613608846144c2565b61446c565b90508281526020810184848401111561362957613628614917565b5b6136348482856146af565b509392505050565b60008135905061364b81614dbe565b92915050565b60008151905061366081614dbe565b92915050565b60008135905061367581614dd5565b92915050565b60008135905061368a81614dec565b92915050565b60008151905061369f81614dec565b92915050565b600082601f8301126136ba576136b9614912565b5b81356136ca8482602086016135b8565b91505092915050565b600082601f8301126136e8576136e7614912565b5b81356136f88482602086016135fa565b91505092915050565b60008135905061371081614e03565b92915050565b60006020828403121561372c5761372b614921565b5b600061373a8482850161363c565b91505092915050565b60006020828403121561375957613758614921565b5b600061376784828501613651565b91505092915050565b6000806040838503121561378757613786614921565b5b60006137958582860161363c565b92505060206137a68582860161363c565b9150509250929050565b6000806000606084860312156137c9576137c8614921565b5b60006137d78682870161363c565b93505060206137e88682870161363c565b92505060406137f986828701613701565b9150509250925092565b6000806000806080858703121561381d5761381c614921565b5b600061382b8782880161363c565b945050602061383c8782880161363c565b935050604061384d87828801613701565b925050606085013567ffffffffffffffff81111561386e5761386d61491c565b5b61387a878288016136a5565b91505092959194509250565b6000806040838503121561389d5761389c614921565b5b60006138ab8582860161363c565b92505060206138bc85828601613666565b9150509250929050565b600080604083850312156138dd576138dc614921565b5b60006138eb8582860161363c565b92505060206138fc85828601613701565b9150509250929050565b60008060006060848603121561391f5761391e614921565b5b600061392d8682870161363c565b935050602061393e86828701613701565b925050604061394f86828701613701565b9150509250925092565b60006020828403121561396f5761396e614921565b5b600061397d8482850161367b565b91505092915050565b60006020828403121561399c5761399b614921565b5b60006139aa84828501613690565b91505092915050565b600080600080608085870312156139cd576139cc614921565b5b600085013567ffffffffffffffff8111156139eb576139ea61491c565b5b6139f7878288016136d3565b9450506020613a0887828801613701565b935050604085013567ffffffffffffffff811115613a2957613a2861491c565b5b613a35878288016136d3565b9250506060613a468782880161363c565b91505092959194509250565b600060208284031215613a6857613a67614921565b5b6000613a7684828501613701565b91505092915050565b60008060408385031215613a9657613a95614921565b5b6000613aa485828601613701565b9250506020613ab58582860161363c565b9150509250929050565b6000613acb8383613fb3565b60208301905092915050565b613ae08161463b565b82525050565b613aef8161463b565b82525050565b6000613b0082614503565b613b0a8185614531565b9350613b15836144f3565b8060005b83811015613b46578151613b2d8882613abf565b9750613b3883614524565b925050600181019050613b19565b5085935050505092915050565b613b5c8161464d565b82525050565b613b6b8161464d565b82525050565b6000613b7c8261450e565b613b868185614542565b9350613b968185602086016146be565b613b9f81614926565b840191505092915050565b6000613bb582614519565b613bbf8185614553565b9350613bcf8185602086016146be565b613bd881614926565b840191505092915050565b6000613bee82614519565b613bf88185614564565b9350613c088185602086016146be565b613c1181614926565b840191505092915050565b6000613c2782614519565b613c318185614575565b9350613c418185602086016146be565b80840191505092915050565b6000613c5a601b83614564565b9150613c6582614937565b602082019050919050565b6000613c7d603283614564565b9150613c8882614960565b604082019050919050565b6000613ca0602583614564565b9150613cab826149af565b604082019050919050565b6000613cc3601c83614564565b9150613cce826149fe565b602082019050919050565b6000613ce6602483614564565b9150613cf182614a27565b604082019050919050565b6000613d09601983614564565b9150613d1482614a76565b602082019050919050565b6000613d2c601d83614564565b9150613d3782614a9f565b602082019050919050565b6000613d4f602983614564565b9150613d5a82614ac8565b604082019050919050565b6000613d72601c83614564565b9150613d7d82614b17565b602082019050919050565b6000613d95602e83614564565b9150613da082614b40565b604082019050919050565b6000613db8600e83614564565b9150613dc382614b8f565b602082019050919050565b6000613ddb603e83614564565b9150613de682614bb8565b604082019050919050565b6000613dfe602083614564565b9150613e0982614c07565b602082019050919050565b6000613e21602683614564565b9150613e2c82614c30565b604082019050919050565b6000613e44603183614564565b9150613e4f82614c7f565b604082019050919050565b6000613e67601883614564565b9150613e7282614cce565b602082019050919050565b6000613e8a602183614564565b9150613e9582614cf7565b604082019050919050565b6000613ead602e83614564565b9150613eb882614d46565b604082019050919050565b6000613ed0601f83614564565b9150613edb82614d95565b602082019050919050565b600060c083016000830151613efe6000860182613fb3565b506020830151613f116020860182613fb3565b506040830151613f246040860182613ad7565b506060830151613f376060860182613b53565b506080830151613f4a6080860182613b53565b5060a083015184820360a0860152613f628282613baa565b9150508091505092915050565b60006040830160008301518482036000860152613f8c8282613ee6565b91505060208301518482036020860152613fa68282613baa565b9150508091505092915050565b613fbc816146a5565b82525050565b613fcb816146a5565b82525050565b6000613fdd8285613c1c565b9150613fe98284613c1c565b91508190509392505050565b600060208201905061400a6000830184613ae6565b92915050565b60006080820190506140256000830187613ae6565b6140326020830186613ae6565b61403f6040830185613fc2565b81810360608301526140518184613b71565b905095945050505050565b600060208201905081810360008301526140768184613af5565b905092915050565b60006020820190506140936000830184613b62565b92915050565b600060208201905081810360008301526140b38184613be3565b905092915050565b600060208201905081810360008301526140d481613c4d565b9050919050565b600060208201905081810360008301526140f481613c70565b9050919050565b6000602082019050818103600083015261411481613c93565b9050919050565b6000602082019050818103600083015261413481613cb6565b9050919050565b6000602082019050818103600083015261415481613cd9565b9050919050565b6000602082019050818103600083015261417481613cfc565b9050919050565b6000602082019050818103600083015261419481613d1f565b9050919050565b600060208201905081810360008301526141b481613d42565b9050919050565b600060208201905081810360008301526141d481613d65565b9050919050565b600060208201905081810360008301526141f481613d88565b9050919050565b6000602082019050818103600083015261421481613dab565b9050919050565b6000602082019050818103600083015261423481613dce565b9050919050565b6000602082019050818103600083015261425481613df1565b9050919050565b6000602082019050818103600083015261427481613e14565b9050919050565b6000602082019050818103600083015261429481613e37565b9050919050565b600060208201905081810360008301526142b481613e5a565b9050919050565b600060208201905081810360008301526142d481613e7d565b9050919050565b600060208201905081810360008301526142f481613ea0565b9050919050565b6000602082019050818103600083015261431481613ec3565b9050919050565b600060208201905081810360008301526143358184613f6f565b905092915050565b60006020820190506143526000830184613fc2565b92915050565b600060408201905061436d6000830185613fc2565b61437a6020830184613ae6565b9392505050565b60006060820190506143966000830186613fc2565b6143a36020830185613ae6565b6143b06040830184613fc2565b949350505050565b600060c0820190506143cd6000830189613fc2565b6143da6020830188613fc2565b6143e76040830187613ae6565b6143f46060830186613b62565b6144016080830185613b62565b81810360a08301526144138184613be3565b9050979650505050505050565b60006080820190506144356000830187613fc2565b6144426020830186613fc2565b61444f6040830185613ae6565b81810360608301526144618184613be3565b905095945050505050565b6000614476614487565b9050614482828261474d565b919050565b6000604051905090565b600067ffffffffffffffff8211156144ac576144ab6148e3565b5b6144b582614926565b9050602081019050919050565b600067ffffffffffffffff8211156144dd576144dc6148e3565b5b6144e682614926565b9050602081019050919050565b6000819050602082019050919050565b600081519050919050565b600081519050919050565b600081519050919050565b6000602082019050919050565b600082825260208201905092915050565b600082825260208201905092915050565b600082825260208201905092915050565b600082825260208201905092915050565b600081905092915050565b600061458b826146a5565b9150614596836146a5565b9250827fffffffffffffffffffffffffffffffffffffffffffffffffffffffffffffffff038211156145cb576145ca6147f8565b5b828201905092915050565b60006145e1826146a5565b91506145ec836146a5565b9250826145fc576145fb614827565b5b828204905092915050565b6000614612826146a5565b915061461d836146a5565b9250828210156146305761462f6147f8565b5b828203905092915050565b600061464682614685565b9050919050565b60008115159050919050565b60007fffffffff0000000000000000000000000000000000000000000000000000000082169050919050565b600073ffffffffffffffffffffffffffffffffffffffff82169050919050565b6000819050919050565b82818337600083830152505050565b60005b838110156146dc5780820151818401526020810190506146c1565b838111156146eb576000848401525b50505050565b60006146fc826146a5565b915060008214156147105761470f6147f8565b5b600182039050919050565b6000600282049050600182168061473357607f821691505b6020821081141561474757614746614856565b5b50919050565b61475682614926565b810181811067ffffffffffffffff82111715614775576147746148e3565b5b80604052505050565b6000614789826146a5565b91507fffffffffffffffffffffffffffffffffffffffffffffffffffffffffffffffff8214156147bc576147bb6147f8565b5b600182019050919050565b60006147d2826146a5565b91506147dd836146a5565b9250826147ed576147ec614827565b5b828206905092915050565b7f4e487b7100000000000000000000000000000000000000000000000000000000600052601160045260246000fd5b7f4e487b7100000000000000000000000000000000000000000000000000000000600052601260045260246000fd5b7f4e487b7100000000000000000000000000000000000000000000000000000000600052602260045260246000fd5b7f4e487b7100000000000000000000000000000000000000000000000000000000600052603160045260246000fd5b7f4e487b7100000000000000000000000000000000000000000000000000000000600052603260045260246000fd5b7f4e487b7100000000000000000000000000000000000000000000000000000000600052604160045260246000fd5b600080fd5b600080fd5b600080fd5b600080fd5b6000601f19601f8301169050919050565b7f4f6e6c79206f776e65722063616e206c69737420746865204e46540000000000600082015250565b7f4552433732313a207472616e7366657220746f206e6f6e20455243373231526560008201527f63656976657220696d706c656d656e7465720000000000000000000000000000602082015250565b7f4552433732313a207472616e736665722066726f6d20696e636f72726563742060008201527f6f776e6572000000000000000000000000000000000000000000000000000000602082015250565b7f4552433732313a20746f6b656e20616c7265616479206d696e74656400000000600082015250565b7f4552433732313a207472616e7366657220746f20746865207a65726f2061646460008201527f7265737300000000000000000000000000000000000000000000000000000000602082015250565b7f4552433732313a20617070726f766520746f2063616c6c657200000000000000600082015250565b7f4f6e6c79206f776e65722063616e2064656c65746520746865204e4654000000600082015250565b7f4552433732313a2061646472657373207a65726f206973206e6f74206120766160008201527f6c6964206f776e65720000000000000000000000000000000000000000000000602082015250565b7f4f6e6c79206f776e65722063616e20756e6c69737420616e204e465400000000600082015250565b7f45524337323155524953746f726167653a2055524920736574206f66206e6f6e60008201527f6578697374656e7420746f6b656e000000000000000000000000000000000000602082015250565b7f496e76616c6964204e4654204944000000000000000000000000000000000000600082015250565b7f4552433732313a20617070726f76652063616c6c6572206973206e6f7420746f60008201527f6b656e206f776e6572206e6f7220617070726f76656420666f7220616c6c0000602082015250565b7f4552433732313a206d696e7420746f20746865207a65726f2061646472657373600082015250565b7f4f6e6c79206f776e65722063616e206368616e6765207072696365206f66207460008201527f6865204e46540000000000000000000000000000000000000000000000000000602082015250565b7f4f6e6c792073757065722061646d696e2063616e2073657420746865206d617260008201527f6b6574706c61636520616464726573732e000000000000000000000000000000602082015250565b7f4552433732313a20696e76616c696420746f6b656e2049440000000000000000600082015250565b7f4552433732313a20617070726f76616c20746f2063757272656e74206f776e6560008201527f7200000000000000000000000000000000000000000000000000000000000000602082015250565b7f4552433732313a2063616c6c6572206973206e6f7420746f6b656e206f776e6560008201527f72206e6f7220617070726f766564000000000000000000000000000000000000602082015250565b7f5265656e7472616e637947756172643a207265656e7472616e742063616c6c00600082015250565b614dc78161463b565b8114614dd257600080fd5b50565b614dde8161464d565b8114614de957600080fd5b50565b614df581614659565b8114614e0057600080fd5b50565b614e0c816146a5565b8114614e1757600080fd5b5056fea2646970667358221220128931bab5ba376c7ae0ab205261d0bd80ce57c9a7af08eecbf1a5f7fd4251a764736f6c63430008070033",
  "immutableReferences": {},
  "source": "//SPDX-License-Identifier: Unlicensed.\r\n\r\npragma solidity ^0.8.4;\r\n\r\nimport './Definitions.sol';\r\nimport \"@openzeppelin/contracts/token/ERC721/extensions/ERC721URIStorage.sol\";\r\nimport \"@openzeppelin/contracts/utils/Counters.sol\";\r\nimport \"@openzeppelin/contracts/token/ERC721/extensions/ERC721Burnable.sol\";\r\nimport \"@openzeppelin/contracts/token/ERC721/extensions/ERC721Enumerable.sol\";\r\nimport \"@openzeppelin/contracts/token/ERC721/IERC721.sol\";\r\nimport '@openzeppelin/contracts/security/ReentrancyGuard.sol';\r\nimport './Marketplace.sol';\r\n\r\n/**\r\nThis contract mints and stores the NFTS with their necesary details in a struct defined \r\nin the Definitions contract, and provides all the necessary methods for manipulating the same.\r\n\r\n@author : Hritik Raheja\r\n*/\r\n\r\ncontract NFT is ERC721URIStorage, ERC721Burnable, ReentrancyGuard{\r\n\r\n    /**\r\n    1. _tokenIdGenerator allots a new token Id to every newly minted nft.\r\n    2. nftCount stores the number of nfts.\r\n    3. nfts mapping maps tokenIds to NFT Tokens defined in Definitions contract.\r\n    4. singleNfts stores all the nfts that are not part of any collection.\r\n    5. idToIndex mapping maps the nftIds to their index in the single nfts array, if present.\r\n    */\r\n    using Counters for Counters.Counter;\r\n    Counters.Counter _tokenIdGenerator;\r\n    uint256 public nftCount;\r\n    mapping(uint256 => Definitions.NftDetails) public nfts;\r\n    uint256[] public singleNfts;\r\n    mapping(uint256 => uint256) public idToIndex;\r\n    address marketplaceContractAddress;\r\n    Marketplace marketplaceContractInstance;\r\n\r\n    event nftCreated(uint nftId, uint price, address seller, string category);\r\n    event nftDeleted(uint nftId, address ownedBy);\r\n    event nftListed(uint nftId, address seller);\r\n    event nftUnlisted(uint nftId, address seller);\r\n    event nftPriceUpdated(uint nftId, address seller, uint newPrice);\r\n\r\n    /**\r\n    ERC721 constructor is called with the provided token name and symbol.\r\n    */\r\n    constructor() ERC721(\"Non-Fungible Token\", \"NFT\"){\r\n\r\n    }\r\n\r\n    /**\r\n    This method sets the marketplace contract address for super admin validations.\r\n    This method is called for the first time when the marketplace contract is created, and \r\n    can be called again but only by the super admin itself.\r\n    @param _contractAddress - The address of the deployed marketplace contract. \r\n    */\r\n    function setMarketplaceContractAddress(address _contractAddress) public nonReentrant{\r\n        if(marketplaceContractAddress != address(0)){\r\n            require(msg.sender == marketplaceContractInstance.superAdmin() || \r\n            msg.sender == marketplaceContractAddress, \r\n            \"Only super admin can set the marketplace address.\");\r\n        }\r\n        marketplaceContractAddress = _contractAddress;\r\n        marketplaceContractInstance = Marketplace(_contractAddress); \r\n    }\r\n\r\n    /**\r\n    This method mints an nft, increments the nftCount accordingly, generates a new nftID for it, \r\n    and adds it as an independent nft by default.\r\n    @param _tokenUri - This argument is the URI of the newly minted NFT.\r\n    @param price - This argument is the price of the newly minted NFT.\r\n    @param _category - This argument is the category of the newly minted NFT.\r\n    @param _sender - The caller of the function.\r\n    @return - Returns the unique nftId of the newly minted token.\r\n    */\r\n    function createNft(string memory _tokenUri, uint256 price, string memory _category, address _sender) external returns(uint256){\r\n        nftCount++;\r\n        _tokenIdGenerator.increment();\r\n        _mint(_sender, _tokenIdGenerator.current());\r\n        _setTokenURI(_tokenIdGenerator.current(), _tokenUri);\r\n        singleNfts.push(_tokenIdGenerator.current());\r\n        nfts[_tokenIdGenerator.current()] = Definitions.NftDetails(_tokenIdGenerator.current(),\r\n        price, _sender, false, false, _category);\r\n        idToIndex[_tokenIdGenerator.current()] = singleNfts.length - 1;\r\n        setApprovalForAll(marketplaceContractAddress, true);\r\n        emit nftCreated(_tokenIdGenerator.current(), price, _sender, _category);\r\n        return _tokenIdGenerator.current();\r\n    }\r\n\r\n    /**\r\n    This method burns an nft, decrements the nft count and removes it from the idToIndex mapping.\r\n    @param sender - The address of the caller or sender to be verified.\r\n    @param _nftId - The id of the nft to be burned or deleted.\r\n    */\r\n    function deleteNft(address sender, uint256 _nftId) external {\r\n        require(sender == nfts[_nftId].seller, \"Only owner can delete the NFT\");\r\n        _burn(_nftId);\r\n        removeNftFromSingleNftsArray(sender , _nftId);\r\n        delete nfts[_nftId];\r\n        nftCount--;\r\n        emit nftDeleted(_nftId, nfts[_nftId].seller);\r\n    }\r\n\r\n    /**\r\n    This method removes an nft from the singleNfts array. It is called whenever an nft is added\r\n    to a collection.\r\n    @param _nftId - The id of the NFT to be removed from the single NFTs array.\r\n    */\r\n    function removeNftFromSingleNftsArray(address _sender, uint256 _nftId) public {\r\n        require(_sender == nfts[_nftId].seller, \"Only owner can delete the NFT\");\r\n        uint256 _index = idToIndex[_nftId];\r\n        uint _lastIndex = singleNfts.length - 1;\r\n        if(_lastIndex != 0){\r\n            uint256 _temp = singleNfts[_index];\r\n            singleNfts[_index] = singleNfts[_lastIndex];\r\n            singleNfts[_lastIndex] = _temp;\r\n            idToIndex[singleNfts[_index]] = _index;\r\n        }\r\n        singleNfts.pop();\r\n        delete idToIndex[_nftId];\r\n    }\r\n\r\n    /**\r\n    This method adds an NFT to the single NFTs array. This method is called whenever is removed\r\n    from a collection and is to be listed as an individual array.\r\n    @param _nftId - The id of the NFT to added to the single NFTs array.\r\n    */\r\n    function addNftToSingleNftsArray(address sender, uint256 _nftId) public{\r\n        uint256 _id = nfts[_nftId].nftId;\r\n        address owner = nfts[_nftId].seller;\r\n        require(_nftId > 0 && _nftId <= _tokenIdGenerator.current() && _nftId == _id && sender == owner, \"Invalid NFT ID\");\r\n        singleNfts.push(_nftId);\r\n        idToIndex[_nftId] = singleNfts.length - 1;\r\n    }\r\n\r\n    /**\r\n    This method returns the NFT according to the provided nftId.\r\n    @param _nftId - The id of the nft to be fetched.\r\n    @return - It returns the NFT with the provided _nftId.\r\n    */\r\n    function getNftByTokenId(uint256 _nftId) public view returns(Definitions.Nft memory){\r\n        return Definitions.Nft(nfts[_nftId], tokenURI(_nftId));\r\n    }\r\n\r\n    /**\r\n    This method returns an array of all the listed single NFTs.\r\n    @return - A uint256 array of listed single NFTs. \r\n    */\r\n    function getListedSingleNftIds() public view returns(uint256[] memory){\r\n        uint256 n = 0;\r\n         for(uint i = 0; i < singleNfts.length; i++){\r\n            if(nfts[singleNfts[i]].isListed){\r\n               n++;\r\n            }\r\n        }\r\n        uint256[] memory _temp = new uint256[](n);\r\n        uint _i = 0;\r\n        for(uint j = 0; j < singleNfts.length; j++){\r\n            if(nfts[singleNfts[j]].isListed){\r\n               _temp[_i] = singleNfts[j];\r\n               _i++;\r\n            }\r\n        }\r\n        return _temp;\r\n    }\r\n\r\n    /**\r\n    This method sets the value of isListed parameter for the given nftId to be true.\r\n    @param _nftId - The id of the nft to be listed to the marketplace.\r\n    */\r\n    //@param sender - The address of the caller or sender to be verified.\r\n    function listNft(address sender, uint256 _nftId) public {\r\n        require(sender == nfts[_nftId].seller, \"Only owner can list the NFT\");\r\n        nfts[_nftId].isListed = true;\r\n        nfts[_nftId].isSold = false;\r\n        safeTransferFrom(msg.sender, marketplaceContractAddress, _nftId);\r\n        emit nftListed(_nftId, nfts[_nftId].seller);\r\n    }\r\n\r\n    /**\r\n    This method sets the value of isListed parameter for the given nftId to be false.\r\n    @param sender - The address of the caller or sender to be verified.\r\n    @param _nftId - The id of the nft to be unlisted from the marketplace.\r\n    */\r\n    function unlistNft(address sender, uint256 _nftId) public {\r\n        require(sender == nfts[_nftId].seller, \"Only owner can unlist an NFT\");\r\n        nfts[_nftId].isListed = false;\r\n        marketplaceContractInstance.transferNftBackToOwner(_nftId, sender);\r\n        emit nftUnlisted(_nftId, nfts[_nftId].seller);\r\n    }\r\n\r\n    /**\r\n    This method sets the value of isSold parameter for the given nftId to be true.\r\n    @param _nftId - The id of the nft to be set as sold.\r\n    @param _newOwner - The address of the buyer of the nft.\r\n    */\r\n    function setSold(uint256 _nftId, address _newOwner) public{\r\n        nfts[_nftId].isSold = true;\r\n        nfts[_nftId].isListed = false;\r\n        nfts[_nftId].seller = _newOwner;\r\n    }\r\n\r\n    /**\r\n    This methods sets the isSold parameter of the provided nftId to be false. It is called when\r\n    the newOwner again wants to sell the NFT.\r\n    @param _nftId - The id of the nft to set as unsold. \r\n    */\r\n    function setUnsold(uint256 _nftId) external{\r\n        nfts[_nftId].isSold = false;\r\n    }\r\n\r\n    /**\r\n    This method updates the price of the provided _nftId with the new price.\r\n    @param sender - The address of the sender or seller for verification.\r\n    @param _nftId - The id of the NFT whose price is to be updated.\r\n    @param _price - The new price of the NFT.\r\n    */\r\n    function updatePrice(address sender, uint256 _nftId, uint256 _price) external{\r\n        require(msg.sender == nfts[_nftId].seller || (msg.sender == marketplaceContractAddress && sender == nfts[_nftId].seller), \"Only owner can change price of the NFT\");\r\n        nfts[_nftId].price = _price;\r\n        emit nftPriceUpdated(_nftId, nfts[_nftId].seller, _price);\r\n    }\r\n\r\n    /**\r\n    This method returns a list of all the nfts owned by the provided address.\r\n    @param _owner - The address of the owner whose nfts are to be fetched.\r\n    */\r\n    function getAllSingleNftsByOwnerAddress(address _owner) public view returns(uint256[] memory){\r\n        uint _k = 0;\r\n        for(uint _i = 0; _i < singleNfts.length; _i++){\r\n            if(nfts[singleNfts[_i]].seller == _owner){\r\n                _k++;\r\n            }\r\n        }\r\n        uint256[] memory result = new uint256[](_k);\r\n        uint _j = 0;\r\n        for(uint _i = 0; _i < singleNfts.length; _i++){\r\n            if(nfts[singleNfts[_i]].seller == _owner){\r\n                result[_j] = nfts[singleNfts[_i]].nftId;\r\n                _j++;\r\n            }\r\n        }\r\n        return result;\r\n    }\r\n\r\n    /**\r\n    This function checks whether an nft belongs to single nfts array and is listed or not.\r\n    @param _nftId - The id of the nft to be checked.\r\n    @return - The provided nft is a listed single nft or not.\r\n    */\r\n    function isListedSingleNftorNot(uint256 _nftId) public view returns(bool){\r\n        uint256 _index = idToIndex[_nftId];\r\n        if(singleNfts.length == 0 || singleNfts[_index] != nfts[_nftId].nftId || !nfts[_nftId].isListed){\r\n            return false;\r\n        }\r\n\r\n        return true;\r\n    }\r\n\r\n    /**\r\n    This method fetches the address of the seller of the respective NFT.\r\n    @param _nftId - The id of the nft whose seller's address is to be fetched.\r\n    @return - The address of the NFT's seller.\r\n    */\r\n    function getOwnerByNftId(uint256 _nftId) public view returns(address){\r\n        return nfts[_nftId].seller;\r\n    }\r\n\r\n    /**\r\n    This function overrides the _burn function of ERC721Burnable contract.\r\n    It is necessary to be overriden in order to burn an NFT.\r\n    */\r\n    function _burn(uint256 tokenId) internal override(ERC721, ERC721URIStorage) {\r\n        super._burn(tokenId);\r\n    }\r\n\r\n    /**\r\n    This function overrides the tokenURI function of ERC721URIStorage contract.\r\n    It is necessary to be overriden in order to set the token URI of an NFT.\r\n    */\r\n    function tokenURI(uint256 tokenId)\r\n        public\r\n        view\r\n        override(ERC721, ERC721URIStorage)\r\n        returns (string memory){\r\n        return super.tokenURI(tokenId);\r\n    }\r\n}",
  "sourcePath": "C:\\Users\\91805\\Desktop\\apynif\\src\\contracts\\NFT.sol",
  "compiler": {
    "name": "solc",
    "version": "0.8.7+commit.e28d00a7.Emscripten.clang"
  },
  "schemaVersion": "3.4.8",
  "updatedAt": "2022-07-24T10:24:13.698Z",
  "networkType": "ethereum",
  "devdoc": {
    "author": ": Hritik Raheja",
    "kind": "dev",
    "methods": {
      "addNftToSingleNftsArray(address,uint256)": {
        "params": {
          "_nftId": "- The id of the NFT to added to the single NFTs array."
        }
      },
      "approve(address,uint256)": {
        "details": "See {IERC721-approve}."
      },
      "balanceOf(address)": {
        "details": "See {IERC721-balanceOf}."
      },
      "burn(uint256)": {
        "details": "Burns `tokenId`. See {ERC721-_burn}. Requirements: - The caller must own `tokenId` or be an approved operator."
      },
      "createNft(string,uint256,string,address)": {
        "params": {
          "_category": "- This argument is the category of the newly minted NFT.",
          "_sender": "- The caller of the function.",
          "_tokenUri": "- This argument is the URI of the newly minted NFT.",
          "price": "- This argument is the price of the newly minted NFT."
        },
        "returns": {
          "_0": "- Returns the unique nftId of the newly minted token."
        }
      },
      "deleteNft(address,uint256)": {
        "params": {
          "_nftId": "- The id of the nft to be burned or deleted.",
          "sender": "- The address of the caller or sender to be verified."
        }
      },
      "getAllSingleNftsByOwnerAddress(address)": {
        "params": {
          "_owner": "- The address of the owner whose nfts are to be fetched."
        }
      },
      "getApproved(uint256)": {
        "details": "See {IERC721-getApproved}."
      },
      "getListedSingleNftIds()": {
        "returns": {
          "_0": "- A uint256 array of listed single NFTs. "
        }
      },
      "getNftByTokenId(uint256)": {
        "params": {
          "_nftId": "- The id of the nft to be fetched."
        },
        "returns": {
          "_0": "- It returns the NFT with the provided _nftId."
        }
      },
      "getOwnerByNftId(uint256)": {
        "params": {
          "_nftId": "- The id of the nft whose seller's address is to be fetched."
        },
        "returns": {
          "_0": "- The address of the NFT's seller."
        }
      },
      "isApprovedForAll(address,address)": {
        "details": "See {IERC721-isApprovedForAll}."
      },
      "isListedSingleNftorNot(uint256)": {
        "params": {
          "_nftId": "- The id of the nft to be checked."
        },
        "returns": {
          "_0": "- The provided nft is a listed single nft or not."
        }
      },
      "listNft(address,uint256)": {
        "params": {
          "_nftId": "- The id of the nft to be listed to the marketplace."
        }
      },
      "name()": {
        "details": "See {IERC721Metadata-name}."
      },
      "ownerOf(uint256)": {
        "details": "See {IERC721-ownerOf}."
      },
      "removeNftFromSingleNftsArray(address,uint256)": {
        "params": {
          "_nftId": "- The id of the NFT to be removed from the single NFTs array."
        }
      },
      "safeTransferFrom(address,address,uint256)": {
        "details": "See {IERC721-safeTransferFrom}."
      },
      "safeTransferFrom(address,address,uint256,bytes)": {
        "details": "See {IERC721-safeTransferFrom}."
      },
      "setApprovalForAll(address,bool)": {
        "details": "See {IERC721-setApprovalForAll}."
      },
      "setMarketplaceContractAddress(address)": {
        "params": {
          "_contractAddress": "- The address of the deployed marketplace contract. "
        }
      },
      "setSold(uint256,address)": {
        "params": {
          "_newOwner": "- The address of the buyer of the nft.",
          "_nftId": "- The id of the nft to be set as sold."
        }
      },
      "setUnsold(uint256)": {
        "params": {
          "_nftId": "- The id of the nft to set as unsold. "
        }
      },
      "supportsInterface(bytes4)": {
        "details": "See {IERC165-supportsInterface}."
      },
      "symbol()": {
        "details": "See {IERC721Metadata-symbol}."
      },
      "transferFrom(address,address,uint256)": {
        "details": "See {IERC721-transferFrom}."
      },
      "unlistNft(address,uint256)": {
        "params": {
          "_nftId": "- The id of the nft to be unlisted from the marketplace.",
          "sender": "- The address of the caller or sender to be verified."
        }
      },
      "updatePrice(address,uint256,uint256)": {
        "params": {
          "_nftId": "- The id of the NFT whose price is to be updated.",
          "_price": "- The new price of the NFT.",
          "sender": "- The address of the sender or seller for verification."
        }
      }
    },
    "version": 1
  },
  "userdoc": {
    "kind": "user",
    "methods": {
      "addNftToSingleNftsArray(address,uint256)": {
        "notice": "This method adds an NFT to the single NFTs array. This method is called whenever is removed from a collection and is to be listed as an individual array."
      },
      "constructor": {
        "notice": "ERC721 constructor is called with the provided token name and symbol."
      },
      "createNft(string,uint256,string,address)": {
        "notice": "This method mints an nft, increments the nftCount accordingly, generates a new nftID for it,  and adds it as an independent nft by default."
      },
      "deleteNft(address,uint256)": {
        "notice": "This method burns an nft, decrements the nft count and removes it from the idToIndex mapping."
      },
      "getAllSingleNftsByOwnerAddress(address)": {
        "notice": "This method returns a list of all the nfts owned by the provided address."
      },
      "getListedSingleNftIds()": {
        "notice": "This method returns an array of all the listed single NFTs."
      },
      "getNftByTokenId(uint256)": {
        "notice": "This method returns the NFT according to the provided nftId."
      },
      "getOwnerByNftId(uint256)": {
        "notice": "This method fetches the address of the seller of the respective NFT."
      },
      "isListedSingleNftorNot(uint256)": {
        "notice": "This function checks whether an nft belongs to single nfts array and is listed or not."
      },
      "listNft(address,uint256)": {
        "notice": "This method sets the value of isListed parameter for the given nftId to be true."
      },
      "removeNftFromSingleNftsArray(address,uint256)": {
        "notice": "This method removes an nft from the singleNfts array. It is called whenever an nft is added to a collection."
      },
      "setMarketplaceContractAddress(address)": {
        "notice": "This method sets the marketplace contract address for super admin validations. This method is called for the first time when the marketplace contract is created, and  can be called again but only by the super admin itself."
      },
      "setSold(uint256,address)": {
        "notice": "This method sets the value of isSold parameter for the given nftId to be true."
      },
      "setUnsold(uint256)": {
        "notice": "This methods sets the isSold parameter of the provided nftId to be false. It is called when the newOwner again wants to sell the NFT."
      },
      "tokenURI(uint256)": {
        "notice": "This function overrides the tokenURI function of ERC721URIStorage contract. It is necessary to be overriden in order to set the token URI of an NFT."
      },
      "unlistNft(address,uint256)": {
        "notice": "This method sets the value of isListed parameter for the given nftId to be false."
      },
      "updatePrice(address,uint256,uint256)": {
        "notice": "This method updates the price of the provided _nftId with the new price."
      }
    },
    "notice": "This contract mints and stores the NFTS with their necesary details in a struct defined  in the Definitions contract, and provides all the necessary methods for manipulating the same.",
    "version": 1
  }
}